{"abi":[{"type":"constructor","inputs":[{"name":"_dai","type":"address","internalType":"contract IERC20"},{"name":"_eToken","type":"address","internalType":"contract IEToken"},{"name":"_dToken","type":"address","internalType":"contract IDToken"},{"name":"_euler","type":"address","internalType":"address"},{"name":"_liquidation","type":"address","internalType":"contract ILiquidation"},{"name":"_markets","type":"address","internalType":"contract IMarkets"},{"name":"_person","type":"address","internalType":"address"}],"stateMutability":"nonpayable"},{"type":"function","name":"violate","inputs":[],"outputs":[],"stateMutability":"nonpayable"},{"type":"event","name":"log_named_decimal_uint","inputs":[{"name":"key","type":"string","indexed":false,"internalType":"string"},{"name":"val","type":"uint256","indexed":false,"internalType":"uint256"},{"name":"decimals","type":"uint256","indexed":false,"internalType":"uint256"}],"anonymous":false}],"bytecode":{"object":"0x610160604052348015610010575f5ffd5b5060405161208f38038061208f8339818101604052810190610032919061033c565b8673ffffffffffffffffffffffffffffffffffffffff1660808173ffffffffffffffffffffffffffffffffffffffff16815250508573ffffffffffffffffffffffffffffffffffffffff1660a08173ffffffffffffffffffffffffffffffffffffffff16815250508473ffffffffffffffffffffffffffffffffffffffff1660c08173ffffffffffffffffffffffffffffffffffffffff16815250508373ffffffffffffffffffffffffffffffffffffffff1660e08173ffffffffffffffffffffffffffffffffffffffff16815250508173ffffffffffffffffffffffffffffffffffffffff166101008173ffffffffffffffffffffffffffffffffffffffff16815250508273ffffffffffffffffffffffffffffffffffffffff166101208173ffffffffffffffffffffffffffffffffffffffff1681525050805f5f6101000a81548173ffffffffffffffffffffffffffffffffffffffff021916908373ffffffffffffffffffffffffffffffffffffffff160217905550505050505050506103d9565b5f5ffd5b5f73ffffffffffffffffffffffffffffffffffffffff82169050919050565b5f6101e4826101bb565b9050919050565b5f6101f5826101da565b9050919050565b610205816101eb565b811461020f575f5ffd5b50565b5f81519050610220816101fc565b92915050565b5f610230826101da565b9050919050565b61024081610226565b811461024a575f5ffd5b50565b5f8151905061025b81610237565b92915050565b5f61026b826101da565b9050919050565b61027b81610261565b8114610285575f5ffd5b50565b5f8151905061029681610272565b92915050565b6102a5816101da565b81146102af575f5ffd5b50565b5f815190506102c08161029c565b92915050565b5f6102d0826101da565b9050919050565b6102e0816102c6565b81146102ea575f5ffd5b50565b5f815190506102fb816102d7565b92915050565b5f61030b826101da565b9050919050565b61031b81610301565b8114610325575f5ffd5b50565b5f8151905061033681610312565b92915050565b5f5f5f5f5f5f5f60e0888a031215610357576103566101b7565b5b5f6103648a828b01610212565b97505060206103758a828b0161024d565b96505060406103868a828b01610288565b95505060606103978a828b016102b2565b94505060806103a88a828b016102ed565b93505060a06103b98a828b01610328565b92505060c06103ca8a828b016102b2565b91505092959891949750929550565b60805160a05160c05160e051610100516101205161014051611ba66104e95f395f50505f81816105340152818161088e01528181610be80152610f4201525f81816101a8015281816103c60152818161072001528181610a7a0152610dd401525f607501525f61068d01525f8181610115015281816101e401528181610333015281816104020152818161075c015281816109e701528181610ab601528181610d410152610e1001525f81816039015281816102050152818161042301528181610592015281816105b30152818161077d015281816108ec0152818161090d01528181610ad701528181610c4601528181610c6701528181610e3101528181610fa00152610fc10152611ba65ff3fe608060405234801561000f575f5ffd5b5060043610610029575f3560e01c8063e8e621781461002d575b5f5ffd5b610035610037565b005b7f000000000000000000000000000000000000000000000000000000000000000073ffffffffffffffffffffffffffffffffffffffff1663095ea7b37f00000000000000000000000000000000000000000000000000000000000000007fffffffffffffffffffffffffffffffffffffffffffffffffffffffffffffffff6040518363ffffffff1660e01b81526004016100d29291906111b1565b6020604051808303815f875af11580156100ee573d5f5f3e3d5ffd5b505050506040513d601f19601f82011682018060405250810190610112919061121e565b507f000000000000000000000000000000000000000000000000000000000000000073ffffffffffffffffffffffffffffffffffffffff1663e2bbb1585f6a108b2a2c280290940000006040518363ffffffff1660e01b81526004016101799291906112c4565b5f604051808303815f87803b158015610190575f5ffd5b505af11580156101a2573d5f5f3e3d5ffd5b505050507f000000000000000000000000000000000000000000000000000000000000000073ffffffffffffffffffffffffffffffffffffffff1663843d8ab27f00000000000000000000000000000000000000000000000000000000000000007f000000000000000000000000000000000000000000000000000000000000000073ffffffffffffffffffffffffffffffffffffffff166395d89b416040518163ffffffff1660e01b81526004015f60405180830381865afa15801561026b573d5f5f3e3d5ffd5b505050506040513d5f823e3d601f19601f820116820180604052508101906102939190611427565b306040518463ffffffff1660e01b81526004016102b29392919061150a565b6060604051808303815f875af11580156102ce573d5f5f3e3d5ffd5b505050506040513d601f19601f820116820180604052508101906102f29190611672565b506103316040518060400160405280600181526020017f200000000000000000000000000000000000000000000000000000000000000081525061109b565b7f000000000000000000000000000000000000000000000000000000000000000073ffffffffffffffffffffffffffffffffffffffff16631b2ef1ca5f6aa56fa5b99019a5c80000006040518363ffffffff1660e01b81526004016103979291906116d6565b5f604051808303815f87803b1580156103ae575f5ffd5b505af11580156103c0573d5f5f3e3d5ffd5b505050507f000000000000000000000000000000000000000000000000000000000000000073ffffffffffffffffffffffffffffffffffffffff1663843d8ab27f00000000000000000000000000000000000000000000000000000000000000007f000000000000000000000000000000000000000000000000000000000000000073ffffffffffffffffffffffffffffffffffffffff166395d89b416040518163ffffffff1660e01b81526004015f60405180830381865afa158015610489573d5f5f3e3d5ffd5b505050506040513d5f823e3d601f19601f820116820180604052508101906104b19190611427565b306040518463ffffffff1660e01b81526004016104d093929190611747565b6060604051808303815f875af11580156104ec573d5f5f3e3d5ffd5b505050506040513d601f19601f820116820180604052508101906105109190611672565b507feb8ba43ced7537421946bd43e828b8b2b8428927aa8f801c13d934bf11aca57b7f000000000000000000000000000000000000000000000000000000000000000073ffffffffffffffffffffffffffffffffffffffff16631a96d9d55f5f9054906101000a900473ffffffffffffffffffffffffffffffffffffffff16307f00000000000000000000000000000000000000000000000000000000000000007f00000000000000000000000000000000000000000000000000000000000000006040518563ffffffff1660e01b81526004016105f19493929190611796565b60c0604051808303815f875af115801561060d573d5f5f3e3d5ffd5b505050506040513d601f19601f820116820180604052508101906106319190611876565b604001516012604051610645929190611924565b60405180910390a161068b6040518060400160405280600181526020017f200000000000000000000000000000000000000000000000000000000000000081525061109b565b7f000000000000000000000000000000000000000000000000000000000000000073ffffffffffffffffffffffffffffffffffffffff1663d8aed1455f6a084595161401484a0000006040518363ffffffff1660e01b81526004016106f1929190611997565b5f604051808303815f87803b158015610708575f5ffd5b505af115801561071a573d5f5f3e3d5ffd5b505050507f000000000000000000000000000000000000000000000000000000000000000073ffffffffffffffffffffffffffffffffffffffff1663843d8ab27f00000000000000000000000000000000000000000000000000000000000000007f000000000000000000000000000000000000000000000000000000000000000073ffffffffffffffffffffffffffffffffffffffff166395d89b416040518163ffffffff1660e01b81526004015f60405180830381865afa1580156107e3573d5f5f3e3d5ffd5b505050506040513d5f823e3d601f19601f8201168201806040525081019061080b9190611427565b306040518463ffffffff1660e01b815260040161082a93929190611a08565b6060604051808303815f875af1158015610846573d5f5f3e3d5ffd5b505050506040513d601f19601f8201168201806040525081019061086a9190611672565b507feb8ba43ced7537421946bd43e828b8b2b8428927aa8f801c13d934bf11aca57b7f000000000000000000000000000000000000000000000000000000000000000073ffffffffffffffffffffffffffffffffffffffff16631a96d9d55f5f9054906101000a900473ffffffffffffffffffffffffffffffffffffffff16307f00000000000000000000000000000000000000000000000000000000000000007f00000000000000000000000000000000000000000000000000000000000000006040518563ffffffff1660e01b815260040161094b9493929190611796565b60c0604051808303815f875af1158015610967573d5f5f3e3d5ffd5b505050506040513d601f19601f8201168201806040525081019061098b9190611876565b60400151601260405161099f929190611924565b60405180910390a16109e56040518060400160405280600181526020017f200000000000000000000000000000000000000000000000000000000000000081525061109b565b7f000000000000000000000000000000000000000000000000000000000000000073ffffffffffffffffffffffffffffffffffffffff16631b2ef1ca5f6aa56fa5b99019a5c80000006040518363ffffffff1660e01b8152600401610a4b9291906116d6565b5f604051808303815f87803b158015610a62575f5ffd5b505af1158015610a74573d5f5f3e3d5ffd5b505050507f000000000000000000000000000000000000000000000000000000000000000073ffffffffffffffffffffffffffffffffffffffff1663843d8ab27f00000000000000000000000000000000000000000000000000000000000000007f000000000000000000000000000000000000000000000000000000000000000073ffffffffffffffffffffffffffffffffffffffff166395d89b416040518163ffffffff1660e01b81526004015f60405180830381865afa158015610b3d573d5f5f3e3d5ffd5b505050506040513d5f823e3d601f19601f82011682018060405250810190610b659190611427565b306040518463ffffffff1660e01b8152600401610b8493929190611747565b6060604051808303815f875af1158015610ba0573d5f5f3e3d5ffd5b505050506040513d601f19601f82011682018060405250810190610bc49190611672565b507feb8ba43ced7537421946bd43e828b8b2b8428927aa8f801c13d934bf11aca57b7f000000000000000000000000000000000000000000000000000000000000000073ffffffffffffffffffffffffffffffffffffffff16631a96d9d55f5f9054906101000a900473ffffffffffffffffffffffffffffffffffffffff16307f00000000000000000000000000000000000000000000000000000000000000007f00000000000000000000000000000000000000000000000000000000000000006040518563ffffffff1660e01b8152600401610ca59493929190611796565b60c0604051808303815f875af1158015610cc1573d5f5f3e3d5ffd5b505050506040513d601f19601f82011682018060405250810190610ce59190611876565b604001516012604051610cf9929190611924565b60405180910390a1610d3f6040518060400160405280600181526020017f200000000000000000000000000000000000000000000000000000000000000081525061109b565b7f000000000000000000000000000000000000000000000000000000000000000073ffffffffffffffffffffffffffffffffffffffff166336f022aa5f6a52b7d2dcc80cd2e40000006040518363ffffffff1660e01b8152600401610da5929190611a90565b5f604051808303815f87803b158015610dbc575f5ffd5b505af1158015610dce573d5f5f3e3d5ffd5b505050507f000000000000000000000000000000000000000000000000000000000000000073ffffffffffffffffffffffffffffffffffffffff1663843d8ab27f00000000000000000000000000000000000000000000000000000000000000007f000000000000000000000000000000000000000000000000000000000000000073ffffffffffffffffffffffffffffffffffffffff166395d89b416040518163ffffffff1660e01b81526004015f60405180830381865afa158015610e97573d5f5f3e3d5ffd5b505050506040513d5f823e3d601f19601f82011682018060405250810190610ebf9190611427565b306040518463ffffffff1660e01b8152600401610ede93929190611b01565b6060604051808303815f875af1158015610efa573d5f5f3e3d5ffd5b505050506040513d601f19601f82011682018060405250810190610f1e9190611672565b507feb8ba43ced7537421946bd43e828b8b2b8428927aa8f801c13d934bf11aca57b7f000000000000000000000000000000000000000000000000000000000000000073ffffffffffffffffffffffffffffffffffffffff16631a96d9d55f5f9054906101000a900473ffffffffffffffffffffffffffffffffffffffff16307f00000000000000000000000000000000000000000000000000000000000000007f00000000000000000000000000000000000000000000000000000000000000006040518563ffffffff1660e01b8152600401610fff9493929190611796565b60c0604051808303815f875af115801561101b573d5f5f3e3d5ffd5b505050506040513d601f19601f8201168201806040525081019061103f9190611876565b604001516012604051611053929190611924565b60405180910390a16110996040518060400160405280600181526020017f200000000000000000000000000000000000000000000000000000000000000081525061109b565b565b611131816040516024016110af9190611b50565b6040516020818303038152906040527f41304fac000000000000000000000000000000000000000000000000000000007bffffffffffffffffffffffffffffffffffffffffffffffffffffffff19166020820180517bffffffffffffffffffffffffffffffffffffffffffffffffffffffff8381831617835250505050611134565b50565b5f815190505f6a636f6e736f6c652e6c6f679050602083015f5f8483855afa5050505050565b5f73ffffffffffffffffffffffffffffffffffffffff82169050919050565b5f6111838261115a565b9050919050565b61119381611179565b82525050565b5f819050919050565b6111ab81611199565b82525050565b5f6040820190506111c45f83018561118a565b6111d160208301846111a2565b9392505050565b5f604051905090565b5f5ffd5b5f5ffd5b5f8115159050919050565b6111fd816111e9565b8114611207575f5ffd5b50565b5f81519050611218816111f4565b92915050565b5f60208284031215611233576112326111e1565b5b5f6112408482850161120a565b91505092915050565b5f819050919050565b5f819050919050565b5f61127561127061126b84611249565b611252565b611199565b9050919050565b6112858161125b565b82525050565b5f819050919050565b5f6112ae6112a96112a48461128b565b611252565b611199565b9050919050565b6112be81611294565b82525050565b5f6040820190506112d75f83018561127c565b6112e460208301846112b5565b9392505050565b5f5ffd5b5f5ffd5b5f601f19601f8301169050919050565b7f4e487b71000000000000000000000000000000000000000000000000000000005f52604160045260245ffd5b611339826112f3565b810181811067ffffffffffffffff8211171561135857611357611303565b5b80604052505050565b5f61136a6111d8565b90506113768282611330565b919050565b5f67ffffffffffffffff82111561139557611394611303565b5b61139e826112f3565b9050602081019050919050565b8281835e5f83830152505050565b5f6113cb6113c68461137b565b611361565b9050828152602081018484840111156113e7576113e66112ef565b5b6113f28482856113ab565b509392505050565b5f82601f83011261140e5761140d6112eb565b5b815161141e8482602086016113b9565b91505092915050565b5f6020828403121561143c5761143b6111e1565b5b5f82015167ffffffffffffffff811115611459576114586111e5565b5b611465848285016113fa565b91505092915050565b5f82825260208201905092915050565b7f4166746572206465706f736974696e67202876696f6c61746f72293a200000005f82015250565b5f6114b2601d8361146e565b91506114bd8261147e565b602082019050919050565b5f81519050919050565b5f6114dc826114c8565b6114e6818561146e565b93506114f68185602086016113ab565b6114ff816112f3565b840191505092915050565b5f6080820190508181035f830152611521816114a6565b9050611530602083018661118a565b818103604083015261154281856114d2565b9050611551606083018461118a565b949350505050565b5f5ffd5b5f6dffffffffffffffffffffffffffff82169050919050565b61157f8161155d565b8114611589575f5ffd5b50565b5f8151905061159a81611576565b92915050565b5f71ffffffffffffffffffffffffffffffffffff82169050919050565b6115c6816115a0565b81146115d0575f5ffd5b50565b5f815190506115e1816115bd565b92915050565b6115f081611199565b81146115fa575f5ffd5b50565b5f8151905061160b816115e7565b92915050565b5f6060828403121561162657611625611559565b5b6116306060611361565b90505f61163f8482850161158c565b5f830152506020611652848285016115d3565b6020830152506040611666848285016115fd565b60408301525092915050565b5f60608284031215611687576116866111e1565b5b5f61169484828501611611565b91505092915050565b5f819050919050565b5f6116c06116bb6116b68461169d565b611252565b611199565b9050919050565b6116d0816116a6565b82525050565b5f6040820190506116e95f83018561127c565b6116f660208301846116c7565b9392505050565b7f4166746572206d696e74696e67202876696f6c61746f72293a200000000000005f82015250565b5f611731601a8361146e565b915061173c826116fd565b602082019050919050565b5f6080820190508181035f83015261175e81611725565b905061176d602083018661118a565b818103604083015261177f81856114d2565b905061178e606083018461118a565b949350505050565b5f6080820190506117a95f83018761118a565b6117b6602083018661118a565b6117c3604083018561118a565b6117d0606083018461118a565b95945050505050565b5f60c082840312156117ee576117ed611559565b5b6117f860c0611361565b90505f611807848285016115fd565b5f83015250602061181a848285016115fd565b602083015250604061182e848285016115fd565b6040830152506060611842848285016115fd565b6060830152506080611856848285016115fd565b60808301525060a061186a848285016115fd565b60a08301525092915050565b5f60c0828403121561188b5761188a6111e1565b5b5f611898848285016117d9565b91505092915050565b7f4865616c74682073636f726500000000000000000000000000000000000000005f82015250565b5f6118d5600c8361146e565b91506118e0826118a1565b602082019050919050565b5f819050919050565b5f61190e611909611904846118eb565b611252565b611199565b9050919050565b61191e816118f4565b82525050565b5f6060820190508181035f83015261193b816118c9565b905061194a60208301856111a2565b6119576040830184611915565b9392505050565b5f819050919050565b5f61198161197c6119778461195e565b611252565b611199565b9050919050565b61199181611967565b82525050565b5f6040820190506119aa5f83018561127c565b6119b76020830184611988565b9392505050565b7f4166746572207265706179696e67202876696f6c61746f72293a2000000000005f82015250565b5f6119f2601b8361146e565b91506119fd826119be565b602082019050919050565b5f6080820190508181035f830152611a1f816119e6565b9050611a2e602083018661118a565b8181036040830152611a4081856114d2565b9050611a4f606083018461118a565b949350505050565b5f819050919050565b5f611a7a611a75611a7084611a57565b611252565b611199565b9050919050565b611a8a81611a60565b82525050565b5f604082019050611aa35f83018561127c565b611ab06020830184611a81565b9392505050565b7f416674657220646f6e6174696e67202876696f6c61746f72293a2000000000005f82015250565b5f611aeb601b8361146e565b9150611af682611ab7565b602082019050919050565b5f6080820190508181035f830152611b1881611adf565b9050611b27602083018661118a565b8181036040830152611b3981856114d2565b9050611b48606083018461118a565b949350505050565b5f6020820190508181035f830152611b6881846114d2565b90509291505056fea26469706673582212208566ab0e2bcbf657238755b059c148665dfc2f0f774b73c2ed167be8555925d264736f6c634300081e0033","linkReferences":{}},"methodIdentifiers":{"violate()":"e8e62178"},"id":37}