{"abi":[{"type":"constructor","inputs":[{"name":"euler_","type":"address","internalType":"address"},{"name":"underlying_","type":"address","internalType":"address"}],"stateMutability":"nonpayable"},{"type":"function","name":"allowance","inputs":[{"name":"holder","type":"address","internalType":"address"},{"name":"spender","type":"address","internalType":"address"}],"outputs":[{"name":"","type":"uint256","internalType":"uint256"}],"stateMutability":"view"},{"type":"function","name":"approve","inputs":[{"name":"spender","type":"address","internalType":"address"},{"name":"amount","type":"uint256","internalType":"uint256"}],"outputs":[{"name":"","type":"bool","internalType":"bool"}],"stateMutability":"nonpayable"},{"type":"function","name":"balanceOf","inputs":[{"name":"who","type":"address","internalType":"address"}],"outputs":[{"name":"","type":"uint256","internalType":"uint256"}],"stateMutability":"view"},{"type":"function","name":"claimSurplus","inputs":[{"name":"who","type":"address","internalType":"address"}],"outputs":[],"stateMutability":"nonpayable"},{"type":"function","name":"decimals","inputs":[],"outputs":[{"name":"","type":"uint8","internalType":"uint8"}],"stateMutability":"view"},{"type":"function","name":"forceUnwrap","inputs":[{"name":"who","type":"address","internalType":"address"},{"name":"amount","type":"uint256","internalType":"uint256"}],"outputs":[],"stateMutability":"nonpayable"},{"type":"function","name":"name","inputs":[],"outputs":[{"name":"","type":"string","internalType":"string"}],"stateMutability":"view"},{"type":"function","name":"symbol","inputs":[],"outputs":[{"name":"","type":"string","internalType":"string"}],"stateMutability":"view"},{"type":"function","name":"totalSupply","inputs":[],"outputs":[{"name":"","type":"uint256","internalType":"uint256"}],"stateMutability":"view"},{"type":"function","name":"transfer","inputs":[{"name":"recipient","type":"address","internalType":"address"},{"name":"amount","type":"uint256","internalType":"uint256"}],"outputs":[{"name":"","type":"bool","internalType":"bool"}],"stateMutability":"nonpayable"},{"type":"function","name":"transferFrom","inputs":[{"name":"from","type":"address","internalType":"address"},{"name":"recipient","type":"address","internalType":"address"},{"name":"amount","type":"uint256","internalType":"uint256"}],"outputs":[{"name":"","type":"bool","internalType":"bool"}],"stateMutability":"nonpayable"},{"type":"function","name":"underlying","inputs":[],"outputs":[{"name":"","type":"address","internalType":"address"}],"stateMutability":"view"},{"type":"function","name":"unwrap","inputs":[{"name":"amount","type":"uint256","internalType":"uint256"}],"outputs":[],"stateMutability":"nonpayable"},{"type":"function","name":"wrap","inputs":[{"name":"amount","type":"uint256","internalType":"uint256"}],"outputs":[],"stateMutability":"nonpayable"},{"type":"event","name":"Approval","inputs":[{"name":"owner","type":"address","indexed":true,"internalType":"address"},{"name":"spender","type":"address","indexed":true,"internalType":"address"},{"name":"value","type":"uint256","indexed":false,"internalType":"uint256"}],"anonymous":false},{"type":"event","name":"Transfer","inputs":[{"name":"from","type":"address","indexed":true,"internalType":"address"},{"name":"to","type":"address","indexed":true,"internalType":"address"},{"name":"value","type":"uint256","indexed":false,"internalType":"uint256"}],"anonymous":false}],"bytecode":{"object":"0x60c060405234801561000f575f5ffd5b50604051611da2380380611da2833981810160405281019061003191906100fe565b8173ffffffffffffffffffffffffffffffffffffffff1660808173ffffffffffffffffffffffffffffffffffffffff16815250508073ffffffffffffffffffffffffffffffffffffffff1660a08173ffffffffffffffffffffffffffffffffffffffff1681525050505061013c565b5f5ffd5b5f73ffffffffffffffffffffffffffffffffffffffff82169050919050565b5f6100cd826100a4565b9050919050565b6100dd816100c3565b81146100e7575f5ffd5b50565b5f815190506100f8816100d4565b92915050565b5f5f60408385031215610114576101136100a0565b5b5f610121858286016100ea565b9250506020610132858286016100ea565b9150509250929050565b60805160a051611c1461018e5f395f81816102e601528181610a1901528181610aac01528181610b1901528181610be201528181610e370152610f5801525f818161049001526105e30152611c145ff3fe608060405234801561000f575f5ffd5b50600436106100e8575f3560e01c806370a082311161008a578063b77dfe0311610064578063b77dfe031461025e578063dd62ed3e1461027a578063de0e9a3e146102aa578063ea598cb0146102c6576100e8565b806370a08231146101e057806395d89b4114610210578063a9059cbb1461022e576100e8565b80631ed575db116100c65780631ed575db1461015857806323b872dd14610174578063313ce567146101a45780636f307dc3146101c2576100e8565b806306fdde03146100ec578063095ea7b31461010a57806318160ddd1461013a575b5f5ffd5b6100f46102e2565b6040516101019190611300565b60405180910390f35b610124600480360381019061011f91906113be565b610398565b6040516101319190611416565b60405180910390f35b610142610485565b60405161014f919061143e565b60405180910390f35b610172600480360381019061016d91906113be565b61048e565b005b61018e60048036038101906101899190611457565b61052a565b60405161019b9190611416565b60405180910390f35b6101ac610a16565b6040516101b991906114c2565b60405180910390f35b6101ca610aa9565b6040516101d791906114ea565b60405180910390f35b6101fa60048036038101906101f59190611503565b610ad0565b604051610207919061143e565b60405180910390f35b610218610b15565b6040516102259190611300565b60405180910390f35b610248600480360381019061024391906113be565b610bcb565b6040516102559190611416565b60405180910390f35b61027860048036038101906102739190611503565b610bdf565b005b610294600480360381019061028f919061152e565b610da3565b6040516102a1919061143e565b60405180910390f35b6102c460048036038101906102bf919061156c565b610e25565b005b6102e060048036038101906102db919061156c565b610e32565b005b60607f000000000000000000000000000000000000000000000000000000000000000073ffffffffffffffffffffffffffffffffffffffff166306fdde036040518163ffffffff1660e01b81526004015f60405180830381865afa15801561034c573d5f5f3e3d5ffd5b505050506040513d5f823e3d601f19601f8201168201806040525081019061037491906116b5565b6040516020016103849190611780565b604051602081830303815290604052905090565b5f8160015f3373ffffffffffffffffffffffffffffffffffffffff1673ffffffffffffffffffffffffffffffffffffffff1681526020019081526020015f205f8573ffffffffffffffffffffffffffffffffffffffff1673ffffffffffffffffffffffffffffffffffffffff1681526020019081526020015f20819055508273ffffffffffffffffffffffffffffffffffffffff163373ffffffffffffffffffffffffffffffffffffffff167f8c5be1e5ebec7d5bd14f71427d1e84f3dd0314c0f7b2291e5b200ac8c7c3b92584604051610473919061143e565b60405180910390a36001905092915050565b5f600254905090565b7f000000000000000000000000000000000000000000000000000000000000000073ffffffffffffffffffffffffffffffffffffffff163373ffffffffffffffffffffffffffffffffffffffff161461051c576040517f08c379a0000000000000000000000000000000000000000000000000000000008152600401610513906117eb565b60405180910390fd5b6105268282610e6a565b5050565b5f815f5f8673ffffffffffffffffffffffffffffffffffffffff1673ffffffffffffffffffffffffffffffffffffffff1681526020019081526020015f205410156105aa576040517f08c379a00000000000000000000000000000000000000000000000000000000081526004016105a190611853565b60405180910390fd5b3373ffffffffffffffffffffffffffffffffffffffff168473ffffffffffffffffffffffffffffffffffffffff161415801561063257507f000000000000000000000000000000000000000000000000000000000000000073ffffffffffffffffffffffffffffffffffffffff163373ffffffffffffffffffffffffffffffffffffffff1614155b80156106d657507fffffffffffffffffffffffffffffffffffffffffffffffffffffffffffffffff60015f8673ffffffffffffffffffffffffffffffffffffffff1673ffffffffffffffffffffffffffffffffffffffff1681526020019081526020015f205f3373ffffffffffffffffffffffffffffffffffffffff1673ffffffffffffffffffffffffffffffffffffffff1681526020019081526020015f205414155b15610902578160015f8673ffffffffffffffffffffffffffffffffffffffff1673ffffffffffffffffffffffffffffffffffffffff1681526020019081526020015f205f3373ffffffffffffffffffffffffffffffffffffffff1673ffffffffffffffffffffffffffffffffffffffff1681526020019081526020015f20541015610796576040517f08c379a000000000000000000000000000000000000000000000000000000000815260040161078d906118bb565b60405180910390fd5b8160015f8673ffffffffffffffffffffffffffffffffffffffff1673ffffffffffffffffffffffffffffffffffffffff1681526020019081526020015f205f3373ffffffffffffffffffffffffffffffffffffffff1673ffffffffffffffffffffffffffffffffffffffff1681526020019081526020015f205f82825461081d9190611906565b925050819055503373ffffffffffffffffffffffffffffffffffffffff168473ffffffffffffffffffffffffffffffffffffffff167f8c5be1e5ebec7d5bd14f71427d1e84f3dd0314c0f7b2291e5b200ac8c7c3b92560015f8873ffffffffffffffffffffffffffffffffffffffff1673ffffffffffffffffffffffffffffffffffffffff1681526020019081526020015f205f3373ffffffffffffffffffffffffffffffffffffffff1673ffffffffffffffffffffffffffffffffffffffff1681526020019081526020015f20546040516108f9919061143e565b60405180910390a35b815f5f8673ffffffffffffffffffffffffffffffffffffffff1673ffffffffffffffffffffffffffffffffffffffff1681526020019081526020015f205f82825461094d9190611906565b92505081905550815f5f8573ffffffffffffffffffffffffffffffffffffffff1673ffffffffffffffffffffffffffffffffffffffff1681526020019081526020015f205f82825461099f9190611939565b925050819055508273ffffffffffffffffffffffffffffffffffffffff168473ffffffffffffffffffffffffffffffffffffffff167fddf252ad1be2c89b69c2b068fc378daa952ba7f163c4a11628f55a4df523b3ef84604051610a03919061143e565b60405180910390a3600190509392505050565b5f7f000000000000000000000000000000000000000000000000000000000000000073ffffffffffffffffffffffffffffffffffffffff1663313ce5676040518163ffffffff1660e01b8152600401602060405180830381865afa158015610a80573d5f5f3e3d5ffd5b505050506040513d601f19601f82011682018060405250810190610aa49190611996565b905090565b5f7f0000000000000000000000000000000000000000000000000000000000000000905090565b5f5f5f8373ffffffffffffffffffffffffffffffffffffffff1673ffffffffffffffffffffffffffffffffffffffff1681526020019081526020015f20549050919050565b60607f000000000000000000000000000000000000000000000000000000000000000073ffffffffffffffffffffffffffffffffffffffff166395d89b416040518163ffffffff1660e01b81526004015f60405180830381865afa158015610b7f573d5f5f3e3d5ffd5b505050506040513d5f823e3d601f19601f82011682018060405250810190610ba791906116b5565b604051602001610bb79190611a0b565b604051602081830303815290604052905090565b5f610bd733848461052a565b905092915050565b5f7f000000000000000000000000000000000000000000000000000000000000000073ffffffffffffffffffffffffffffffffffffffff166370a08231306040518263ffffffff1660e01b8152600401610c3991906114ea565b602060405180830381865afa158015610c54573d5f5f3e3d5ffd5b505050506040513d601f19601f82011682018060405250810190610c789190611a40565b90506002548111610cbe576040517f08c379a0000000000000000000000000000000000000000000000000000000008152600401610cb590611ab5565b60405180910390fd5b5f60025482610ccd9190611906565b90508060025f828254610ce09190611939565b92505081905550805f5f8573ffffffffffffffffffffffffffffffffffffffff1673ffffffffffffffffffffffffffffffffffffffff1681526020019081526020015f205f828254610d329190611939565b925050819055508273ffffffffffffffffffffffffffffffffffffffff165f73ffffffffffffffffffffffffffffffffffffffff167fddf252ad1be2c89b69c2b068fc378daa952ba7f163c4a11628f55a4df523b3ef83604051610d96919061143e565b60405180910390a3505050565b5f60015f8473ffffffffffffffffffffffffffffffffffffffff1673ffffffffffffffffffffffffffffffffffffffff1681526020019081526020015f205f8373ffffffffffffffffffffffffffffffffffffffff1673ffffffffffffffffffffffffffffffffffffffff1681526020019081526020015f2054905092915050565b610e2f3382610e6a565b50565b610e5e7f0000000000000000000000000000000000000000000000000000000000000000333084610fe7565b610e6733610bdf565b50565b805f5f8473ffffffffffffffffffffffffffffffffffffffff1673ffffffffffffffffffffffffffffffffffffffff1681526020019081526020015f20541015610ee9576040517f08c379a0000000000000000000000000000000000000000000000000000000008152600401610ee090611853565b60405180910390fd5b8060025f828254610efa9190611906565b92505081905550805f5f8473ffffffffffffffffffffffffffffffffffffffff1673ffffffffffffffffffffffffffffffffffffffff1681526020019081526020015f205f828254610f4c9190611906565b92505081905550610f7e7f0000000000000000000000000000000000000000000000000000000000000000838361113d565b5f73ffffffffffffffffffffffffffffffffffffffff168273ffffffffffffffffffffffffffffffffffffffff167fddf252ad1be2c89b69c2b068fc378daa952ba7f163c4a11628f55a4df523b3ef83604051610fdb919061143e565b60405180910390a35050565b5f5f8573ffffffffffffffffffffffffffffffffffffffff166323b872dd60e01b86868660405160240161101d93929190611ad3565b604051602081830303815290604052907bffffffffffffffffffffffffffffffffffffffffffffffffffffffff19166020820180517bffffffffffffffffffffffffffffffffffffffffffffffffffffffff83818316178352505050506040516110879190611b4c565b5f604051808303815f865af19150503d805f81146110c0576040519150601f19603f3d011682016040523d82523d5f602084013e6110c5565b606091505b50915091508180156110f257505f815114806110f15750808060200190518101906110f09190611b8c565b5b5b8190611134576040517f08c379a000000000000000000000000000000000000000000000000000000000815260040161112b9190611300565b60405180910390fd5b50505050505050565b5f5f8473ffffffffffffffffffffffffffffffffffffffff1663a9059cbb60e01b8585604051602401611171929190611bb7565b604051602081830303815290604052907bffffffffffffffffffffffffffffffffffffffffffffffffffffffff19166020820180517bffffffffffffffffffffffffffffffffffffffffffffffffffffffff83818316178352505050506040516111db9190611b4c565b5f604051808303815f865af19150503d805f8114611214576040519150601f19603f3d011682016040523d82523d5f602084013e611219565b606091505b509150915081801561124657505f815114806112455750808060200190518101906112449190611b8c565b5b5b8190611288576040517f08c379a000000000000000000000000000000000000000000000000000000000815260040161127f9190611300565b60405180910390fd5b505050505050565b5f81519050919050565b5f82825260208201905092915050565b8281835e5f83830152505050565b5f601f19601f8301169050919050565b5f6112d282611290565b6112dc818561129a565b93506112ec8185602086016112aa565b6112f5816112b8565b840191505092915050565b5f6020820190508181035f83015261131881846112c8565b905092915050565b5f604051905090565b5f5ffd5b5f5ffd5b5f73ffffffffffffffffffffffffffffffffffffffff82169050919050565b5f61135a82611331565b9050919050565b61136a81611350565b8114611374575f5ffd5b50565b5f8135905061138581611361565b92915050565b5f819050919050565b61139d8161138b565b81146113a7575f5ffd5b50565b5f813590506113b881611394565b92915050565b5f5f604083850312156113d4576113d3611329565b5b5f6113e185828601611377565b92505060206113f2858286016113aa565b9150509250929050565b5f8115159050919050565b611410816113fc565b82525050565b5f6020820190506114295f830184611407565b92915050565b6114388161138b565b82525050565b5f6020820190506114515f83018461142f565b92915050565b5f5f5f6060848603121561146e5761146d611329565b5b5f61147b86828701611377565b935050602061148c86828701611377565b925050604061149d868287016113aa565b9150509250925092565b5f60ff82169050919050565b6114bc816114a7565b82525050565b5f6020820190506114d55f8301846114b3565b92915050565b6114e481611350565b82525050565b5f6020820190506114fd5f8301846114db565b92915050565b5f6020828403121561151857611517611329565b5b5f61152584828501611377565b91505092915050565b5f5f6040838503121561154457611543611329565b5b5f61155185828601611377565b925050602061156285828601611377565b9150509250929050565b5f6020828403121561158157611580611329565b5b5f61158e848285016113aa565b91505092915050565b5f5ffd5b5f5ffd5b7f4e487b71000000000000000000000000000000000000000000000000000000005f52604160045260245ffd5b6115d5826112b8565b810181811067ffffffffffffffff821117156115f4576115f361159f565b5b80604052505050565b5f611606611320565b905061161282826115cc565b919050565b5f67ffffffffffffffff8211156116315761163061159f565b5b61163a826112b8565b9050602081019050919050565b5f61165961165484611617565b6115fd565b9050828152602081018484840111156116755761167461159b565b5b6116808482856112aa565b509392505050565b5f82601f83011261169c5761169b611597565b5b81516116ac848260208601611647565b91505092915050565b5f602082840312156116ca576116c9611329565b5b5f82015167ffffffffffffffff8111156116e7576116e661132d565b5b6116f384828501611688565b91505092915050565b5f81905092915050565b7f45756c65722050726f74656374656420000000000000000000000000000000005f82015250565b5f61173a6010836116fc565b915061174582611706565b601082019050919050565b5f61175a82611290565b61176481856116fc565b93506117748185602086016112aa565b80840191505092915050565b5f61178a8261172e565b91506117968284611750565b915081905092915050565b7f7065726d697373696f6e2064656e6965640000000000000000000000000000005f82015250565b5f6117d560118361129a565b91506117e0826117a1565b602082019050919050565b5f6020820190508181035f830152611802816117c9565b9050919050565b7f696e73756666696369656e742062616c616e63650000000000000000000000005f82015250565b5f61183d60148361129a565b915061184882611809565b602082019050919050565b5f6020820190508181035f83015261186a81611831565b9050919050565b7f696e73756666696369656e7420616c6c6f77616e6365000000000000000000005f82015250565b5f6118a560168361129a565b91506118b082611871565b602082019050919050565b5f6020820190508181035f8301526118d281611899565b9050919050565b7f4e487b71000000000000000000000000000000000000000000000000000000005f52601160045260245ffd5b5f6119108261138b565b915061191b8361138b565b9250828203905081811115611933576119326118d9565b5b92915050565b5f6119438261138b565b915061194e8361138b565b9250828201905080821115611966576119656118d9565b5b92915050565b611975816114a7565b811461197f575f5ffd5b50565b5f815190506119908161196c565b92915050565b5f602082840312156119ab576119aa611329565b5b5f6119b884828501611982565b91505092915050565b7f70000000000000000000000000000000000000000000000000000000000000005f82015250565b5f6119f56001836116fc565b9150611a00826119c1565b600182019050919050565b5f611a15826119e9565b9150611a218284611750565b915081905092915050565b5f81519050611a3a81611394565b92915050565b5f60208284031215611a5557611a54611329565b5b5f611a6284828501611a2c565b91505092915050565b7f6e6f20737572706c75732062616c616e636520746f20636c61696d00000000005f82015250565b5f611a9f601b8361129a565b9150611aaa82611a6b565b602082019050919050565b5f6020820190508181035f830152611acc81611a93565b9050919050565b5f606082019050611ae65f8301866114db565b611af360208301856114db565b611b00604083018461142f565b949350505050565b5f81519050919050565b5f81905092915050565b5f611b2682611b08565b611b308185611b12565b9350611b408185602086016112aa565b80840191505092915050565b5f611b578284611b1c565b915081905092915050565b611b6b816113fc565b8114611b75575f5ffd5b50565b5f81519050611b8681611b62565b92915050565b5f60208284031215611ba157611ba0611329565b5b5f611bae84828501611b78565b91505092915050565b5f604082019050611bca5f8301856114db565b611bd7602083018461142f565b939250505056fea26469706673582212201f75bc4c2c91b9fec9e92a7af7373a0da699054a66aee22660d8fe08c222116764736f6c634300081e0033","linkReferences":{}},"methodIdentifiers":{"allowance(address,address)":"dd62ed3e","approve(address,uint256)":"095ea7b3","balanceOf(address)":"70a08231","claimSurplus(address)":"b77dfe03","decimals()":"313ce567","forceUnwrap(address,uint256)":"1ed575db","name()":"06fdde03","symbol()":"95d89b41","totalSupply()":"18160ddd","transfer(address,uint256)":"a9059cbb","transferFrom(address,address,uint256)":"23b872dd","underlying()":"6f307dc3","unwrap(uint256)":"de0e9a3e","wrap(uint256)":"ea598cb0"},"id":8}