{"abi":[{"type":"constructor","inputs":[{"name":"moduleGitCommit_","type":"bytes32","internalType":"bytes32"}],"stateMutability":"nonpayable"},{"type":"function","name":"activateMarket","inputs":[{"name":"underlying","type":"address","internalType":"address"}],"outputs":[{"name":"","type":"address","internalType":"address"}],"stateMutability":"nonpayable"},{"type":"function","name":"activatePToken","inputs":[{"name":"underlying","type":"address","internalType":"address"}],"outputs":[{"name":"","type":"address","internalType":"address"}],"stateMutability":"nonpayable"},{"type":"function","name":"dTokenToUnderlying","inputs":[{"name":"dToken","type":"address","internalType":"address"}],"outputs":[{"name":"underlying","type":"address","internalType":"address"}],"stateMutability":"view"},{"type":"function","name":"eTokenToDToken","inputs":[{"name":"eToken","type":"address","internalType":"address"}],"outputs":[{"name":"dTokenAddr","type":"address","internalType":"address"}],"stateMutability":"view"},{"type":"function","name":"eTokenToUnderlying","inputs":[{"name":"eToken","type":"address","internalType":"address"}],"outputs":[{"name":"underlying","type":"address","internalType":"address"}],"stateMutability":"view"},{"type":"function","name":"enterMarket","inputs":[{"name":"subAccountId","type":"uint256","internalType":"uint256"},{"name":"newMarket","type":"address","internalType":"address"}],"outputs":[],"stateMutability":"nonpayable"},{"type":"function","name":"exitMarket","inputs":[{"name":"subAccountId","type":"uint256","internalType":"uint256"},{"name":"oldMarket","type":"address","internalType":"address"}],"outputs":[],"stateMutability":"nonpayable"},{"type":"function","name":"getChainlinkPriceFeedConfig","inputs":[{"name":"underlying","type":"address","internalType":"address"}],"outputs":[{"name":"chainlinkAggregator","type":"address","internalType":"address"}],"stateMutability":"view"},{"type":"function","name":"getEnteredMarkets","inputs":[{"name":"account","type":"address","internalType":"address"}],"outputs":[{"name":"","type":"address[]","internalType":"address[]"}],"stateMutability":"view"},{"type":"function","name":"getPricingConfig","inputs":[{"name":"underlying","type":"address","internalType":"address"}],"outputs":[{"name":"pricingType","type":"uint16","internalType":"uint16"},{"name":"pricingParameters","type":"uint32","internalType":"uint32"},{"name":"pricingForwarded","type":"address","internalType":"address"}],"stateMutability":"view"},{"type":"function","name":"interestAccumulator","inputs":[{"name":"underlying","type":"address","internalType":"address"}],"outputs":[{"name":"","type":"uint256","internalType":"uint256"}],"stateMutability":"view"},{"type":"function","name":"interestRate","inputs":[{"name":"underlying","type":"address","internalType":"address"}],"outputs":[{"name":"","type":"int96","internalType":"int96"}],"stateMutability":"view"},{"type":"function","name":"interestRateModel","inputs":[{"name":"underlying","type":"address","internalType":"address"}],"outputs":[{"name":"","type":"uint256","internalType":"uint256"}],"stateMutability":"view"},{"type":"function","name":"moduleGitCommit","inputs":[],"outputs":[{"name":"","type":"bytes32","internalType":"bytes32"}],"stateMutability":"view"},{"type":"function","name":"moduleId","inputs":[],"outputs":[{"name":"","type":"uint256","internalType":"uint256"}],"stateMutability":"view"},{"type":"function","name":"reserveFee","inputs":[{"name":"underlying","type":"address","internalType":"address"}],"outputs":[{"name":"","type":"uint32","internalType":"uint32"}],"stateMutability":"view"},{"type":"function","name":"underlyingToAssetConfig","inputs":[{"name":"underlying","type":"address","internalType":"address"}],"outputs":[{"name":"","type":"tuple","internalType":"struct Storage.AssetConfig","components":[{"name":"eTokenAddress","type":"address","internalType":"address"},{"name":"borrowIsolated","type":"bool","internalType":"bool"},{"name":"collateralFactor","type":"uint32","internalType":"uint32"},{"name":"borrowFactor","type":"uint32","internalType":"uint32"},{"name":"twapWindow","type":"uint24","internalType":"uint24"}]}],"stateMutability":"view"},{"type":"function","name":"underlyingToAssetConfigUnresolved","inputs":[{"name":"underlying","type":"address","internalType":"address"}],"outputs":[{"name":"config","type":"tuple","internalType":"struct Storage.AssetConfig","components":[{"name":"eTokenAddress","type":"address","internalType":"address"},{"name":"borrowIsolated","type":"bool","internalType":"bool"},{"name":"collateralFactor","type":"uint32","internalType":"uint32"},{"name":"borrowFactor","type":"uint32","internalType":"uint32"},{"name":"twapWindow","type":"uint24","internalType":"uint24"}]}],"stateMutability":"view"},{"type":"function","name":"underlyingToDToken","inputs":[{"name":"underlying","type":"address","internalType":"address"}],"outputs":[{"name":"","type":"address","internalType":"address"}],"stateMutability":"view"},{"type":"function","name":"underlyingToEToken","inputs":[{"name":"underlying","type":"address","internalType":"address"}],"outputs":[{"name":"","type":"address","internalType":"address"}],"stateMutability":"view"},{"type":"function","name":"underlyingToPToken","inputs":[{"name":"underlying","type":"address","internalType":"address"}],"outputs":[{"name":"","type":"address","internalType":"address"}],"stateMutability":"view"},{"type":"event","name":"AssetStatus","inputs":[{"name":"underlying","type":"address","indexed":true,"internalType":"address"},{"name":"totalBalances","type":"uint256","indexed":false,"internalType":"uint256"},{"name":"totalBorrows","type":"uint256","indexed":false,"internalType":"uint256"},{"name":"reserveBalance","type":"uint96","indexed":false,"internalType":"uint96"},{"name":"poolSize","type":"uint256","indexed":false,"internalType":"uint256"},{"name":"interestAccumulator","type":"uint256","indexed":false,"internalType":"uint256"},{"name":"interestRate","type":"int96","indexed":false,"internalType":"int96"},{"name":"timestamp","type":"uint256","indexed":false,"internalType":"uint256"}],"anonymous":false},{"type":"event","name":"Borrow","inputs":[{"name":"underlying","type":"address","indexed":true,"internalType":"address"},{"name":"account","type":"address","indexed":true,"internalType":"address"},{"name":"amount","type":"uint256","indexed":false,"internalType":"uint256"}],"anonymous":false},{"type":"event","name":"DelegateAverageLiquidity","inputs":[{"name":"account","type":"address","indexed":true,"internalType":"address"},{"name":"delegate","type":"address","indexed":true,"internalType":"address"}],"anonymous":false},{"type":"event","name":"Deposit","inputs":[{"name":"underlying","type":"address","indexed":true,"internalType":"address"},{"name":"account","type":"address","indexed":true,"internalType":"address"},{"name":"amount","type":"uint256","indexed":false,"internalType":"uint256"}],"anonymous":false},{"type":"event","name":"EnterMarket","inputs":[{"name":"underlying","type":"address","indexed":true,"internalType":"address"},{"name":"account","type":"address","indexed":true,"internalType":"address"}],"anonymous":false},{"type":"event","name":"ExitMarket","inputs":[{"name":"underlying","type":"address","indexed":true,"internalType":"address"},{"name":"account","type":"address","indexed":true,"internalType":"address"}],"anonymous":false},{"type":"event","name":"Genesis","inputs":[],"anonymous":false},{"type":"event","name":"GovConvertReserves","inputs":[{"name":"underlying","type":"address","indexed":true,"internalType":"address"},{"name":"recipient","type":"address","indexed":true,"internalType":"address"},{"name":"amount","type":"uint256","indexed":false,"internalType":"uint256"}],"anonymous":false},{"type":"event","name":"GovSetAssetConfig","inputs":[{"name":"underlying","type":"address","indexed":true,"internalType":"address"},{"name":"newConfig","type":"tuple","indexed":false,"internalType":"struct Storage.AssetConfig","components":[{"name":"eTokenAddress","type":"address","internalType":"address"},{"name":"borrowIsolated","type":"bool","internalType":"bool"},{"name":"collateralFactor","type":"uint32","internalType":"uint32"},{"name":"borrowFactor","type":"uint32","internalType":"uint32"},{"name":"twapWindow","type":"uint24","internalType":"uint24"}]}],"anonymous":false},{"type":"event","name":"GovSetChainlinkPriceFeed","inputs":[{"name":"underlying","type":"address","indexed":true,"internalType":"address"},{"name":"chainlinkAggregator","type":"address","indexed":false,"internalType":"address"}],"anonymous":false},{"type":"event","name":"GovSetIRM","inputs":[{"name":"underlying","type":"address","indexed":true,"internalType":"address"},{"name":"interestRateModel","type":"uint256","indexed":false,"internalType":"uint256"},{"name":"resetParams","type":"bytes","indexed":false,"internalType":"bytes"}],"anonymous":false},{"type":"event","name":"GovSetPricingConfig","inputs":[{"name":"underlying","type":"address","indexed":true,"internalType":"address"},{"name":"newPricingType","type":"uint16","indexed":false,"internalType":"uint16"},{"name":"newPricingParameter","type":"uint32","indexed":false,"internalType":"uint32"}],"anonymous":false},{"type":"event","name":"GovSetReserveFee","inputs":[{"name":"underlying","type":"address","indexed":true,"internalType":"address"},{"name":"newReserveFee","type":"uint32","indexed":false,"internalType":"uint32"}],"anonymous":false},{"type":"event","name":"InstallerInstallModule","inputs":[{"name":"moduleId","type":"uint256","indexed":true,"internalType":"uint256"},{"name":"moduleImpl","type":"address","indexed":true,"internalType":"address"},{"name":"moduleGitCommit","type":"bytes32","indexed":false,"internalType":"bytes32"}],"anonymous":false},{"type":"event","name":"InstallerSetGovernorAdmin","inputs":[{"name":"newGovernorAdmin","type":"address","indexed":true,"internalType":"address"}],"anonymous":false},{"type":"event","name":"InstallerSetUpgradeAdmin","inputs":[{"name":"newUpgradeAdmin","type":"address","indexed":true,"internalType":"address"}],"anonymous":false},{"type":"event","name":"Liquidation","inputs":[{"name":"liquidator","type":"address","indexed":true,"internalType":"address"},{"name":"violator","type":"address","indexed":true,"internalType":"address"},{"name":"underlying","type":"address","indexed":true,"internalType":"address"},{"name":"collateral","type":"address","indexed":false,"internalType":"address"},{"name":"repay","type":"uint256","indexed":false,"internalType":"uint256"},{"name":"yield","type":"uint256","indexed":false,"internalType":"uint256"},{"name":"healthScore","type":"uint256","indexed":false,"internalType":"uint256"},{"name":"baseDiscount","type":"uint256","indexed":false,"internalType":"uint256"},{"name":"discount","type":"uint256","indexed":false,"internalType":"uint256"}],"anonymous":false},{"type":"event","name":"MarketActivated","inputs":[{"name":"underlying","type":"address","indexed":true,"internalType":"address"},{"name":"eToken","type":"address","indexed":true,"internalType":"address"},{"name":"dToken","type":"address","indexed":true,"internalType":"address"}],"anonymous":false},{"type":"event","name":"PTokenActivated","inputs":[{"name":"underlying","type":"address","indexed":true,"internalType":"address"},{"name":"pToken","type":"address","indexed":true,"internalType":"address"}],"anonymous":false},{"type":"event","name":"PTokenUnWrap","inputs":[{"name":"underlying","type":"address","indexed":true,"internalType":"address"},{"name":"account","type":"address","indexed":true,"internalType":"address"},{"name":"amount","type":"uint256","indexed":false,"internalType":"uint256"}],"anonymous":false},{"type":"event","name":"PTokenWrap","inputs":[{"name":"underlying","type":"address","indexed":true,"internalType":"address"},{"name":"account","type":"address","indexed":true,"internalType":"address"},{"name":"amount","type":"uint256","indexed":false,"internalType":"uint256"}],"anonymous":false},{"type":"event","name":"ProxyCreated","inputs":[{"name":"proxy","type":"address","indexed":true,"internalType":"address"},{"name":"moduleId","type":"uint256","indexed":false,"internalType":"uint256"}],"anonymous":false},{"type":"event","name":"Repay","inputs":[{"name":"underlying","type":"address","indexed":true,"internalType":"address"},{"name":"account","type":"address","indexed":true,"internalType":"address"},{"name":"amount","type":"uint256","indexed":false,"internalType":"uint256"}],"anonymous":false},{"type":"event","name":"RequestBorrow","inputs":[{"name":"account","type":"address","indexed":true,"internalType":"address"},{"name":"amount","type":"uint256","indexed":false,"internalType":"uint256"}],"anonymous":false},{"type":"event","name":"RequestBurn","inputs":[{"name":"account","type":"address","indexed":true,"internalType":"address"},{"name":"amount","type":"uint256","indexed":false,"internalType":"uint256"}],"anonymous":false},{"type":"event","name":"RequestDeposit","inputs":[{"name":"account","type":"address","indexed":true,"internalType":"address"},{"name":"amount","type":"uint256","indexed":false,"internalType":"uint256"}],"anonymous":false},{"type":"event","name":"RequestDonate","inputs":[{"name":"account","type":"address","indexed":true,"internalType":"address"},{"name":"amount","type":"uint256","indexed":false,"internalType":"uint256"}],"anonymous":false},{"type":"event","name":"RequestLiquidate","inputs":[{"name":"liquidator","type":"address","indexed":true,"internalType":"address"},{"name":"violator","type":"address","indexed":true,"internalType":"address"},{"name":"underlying","type":"address","indexed":true,"internalType":"address"},{"name":"collateral","type":"address","indexed":false,"internalType":"address"},{"name":"repay","type":"uint256","indexed":false,"internalType":"uint256"},{"name":"minYield","type":"uint256","indexed":false,"internalType":"uint256"}],"anonymous":false},{"type":"event","name":"RequestMint","inputs":[{"name":"account","type":"address","indexed":true,"internalType":"address"},{"name":"amount","type":"uint256","indexed":false,"internalType":"uint256"}],"anonymous":false},{"type":"event","name":"RequestRepay","inputs":[{"name":"account","type":"address","indexed":true,"internalType":"address"},{"name":"amount","type":"uint256","indexed":false,"internalType":"uint256"}],"anonymous":false},{"type":"event","name":"RequestSwap","inputs":[{"name":"accountIn","type":"address","indexed":true,"internalType":"address"},{"name":"accountOut","type":"address","indexed":true,"internalType":"address"},{"name":"underlyingIn","type":"address","indexed":true,"internalType":"address"},{"name":"underlyingOut","type":"address","indexed":false,"internalType":"address"},{"name":"amount","type":"uint256","indexed":false,"internalType":"uint256"},{"name":"swapType","type":"uint256","indexed":false,"internalType":"uint256"}],"anonymous":false},{"type":"event","name":"RequestSwapHub","inputs":[{"name":"accountIn","type":"address","indexed":true,"internalType":"address"},{"name":"accountOut","type":"address","indexed":true,"internalType":"address"},{"name":"underlyingIn","type":"address","indexed":true,"internalType":"address"},{"name":"underlyingOut","type":"address","indexed":false,"internalType":"address"},{"name":"amountIn","type":"uint256","indexed":false,"internalType":"uint256"},{"name":"amountOut","type":"uint256","indexed":false,"internalType":"uint256"},{"name":"mode","type":"uint256","indexed":false,"internalType":"uint256"},{"name":"swapHandler","type":"address","indexed":false,"internalType":"address"}],"anonymous":false},{"type":"event","name":"RequestSwapHubRepay","inputs":[{"name":"accountIn","type":"address","indexed":true,"internalType":"address"},{"name":"accountOut","type":"address","indexed":true,"internalType":"address"},{"name":"underlyingIn","type":"address","indexed":true,"internalType":"address"},{"name":"underlyingOut","type":"address","indexed":false,"internalType":"address"},{"name":"targetDebt","type":"uint256","indexed":false,"internalType":"uint256"},{"name":"swapHandler","type":"address","indexed":false,"internalType":"address"}],"anonymous":false},{"type":"event","name":"RequestTransferDToken","inputs":[{"name":"from","type":"address","indexed":true,"internalType":"address"},{"name":"to","type":"address","indexed":true,"internalType":"address"},{"name":"amount","type":"uint256","indexed":false,"internalType":"uint256"}],"anonymous":false},{"type":"event","name":"RequestTransferEToken","inputs":[{"name":"from","type":"address","indexed":true,"internalType":"address"},{"name":"to","type":"address","indexed":true,"internalType":"address"},{"name":"amount","type":"uint256","indexed":false,"internalType":"uint256"}],"anonymous":false},{"type":"event","name":"RequestWithdraw","inputs":[{"name":"account","type":"address","indexed":true,"internalType":"address"},{"name":"amount","type":"uint256","indexed":false,"internalType":"uint256"}],"anonymous":false},{"type":"event","name":"TrackAverageLiquidity","inputs":[{"name":"account","type":"address","indexed":true,"internalType":"address"}],"anonymous":false},{"type":"event","name":"UnTrackAverageLiquidity","inputs":[{"name":"account","type":"address","indexed":true,"internalType":"address"}],"anonymous":false},{"type":"event","name":"Withdraw","inputs":[{"name":"underlying","type":"address","indexed":true,"internalType":"address"},{"name":"account","type":"address","indexed":true,"internalType":"address"},{"name":"amount","type":"uint256","indexed":false,"internalType":"uint256"}],"anonymous":false}],"bytecode":{"object":"0x60c060405234801561000f575f5ffd5b50604051616c49380380616c4983398181016040528101906100319190610087565b600281818181608081815250508060a0818152505050505050506100b2565b5f5ffd5b5f819050919050565b61006681610054565b8114610070575f5ffd5b50565b5f815190506100818161005d565b92915050565b5f6020828403121561009c5761009b610050565b5b5f6100a984828501610073565b91505092915050565b60805160a051616b766100d35f395f610ba601525f6110270152616b765ff3fe608060405234801561000f575f5ffd5b5060043610610135575f3560e01c80638ccb720b116100b6578063b74b1ed51161007a578063b74b1ed5146103d3578063b93982a014610403578063bcc343ae14610433578063c3c96b2b14610463578063c8a5fba314610493578063fd7948d4146104af57610135565b80638ccb720b146102f55780638f34bdbc14610325578063a1308f2714610355578063b3312cf414610373578063b409dd9b146103a357610135565b806369a92ea3116100fd57806369a92ea31461022b5780636b5e36061461024957806373f0b437146102795780637c2c69c01461029557806389488749146102c557610135565b80630d771df7146101395780631b300582146101695780634e807177146101995780634e9cfac2146101c9578063546422d6146101f9575b5f5ffd5b610153600480360381019061014e9190613b05565b6104df565b6040516101609190613b3f565b60405180910390f35b610183600480360381019061017e9190613b05565b6108e2565b6040516101909190613b3f565b60405180910390f35b6101b360048036038101906101ae9190613b05565b6109a8565b6040516101c09190613b3f565b60405180910390f35b6101e360048036038101906101de9190613b05565b610ad5565b6040516101f09190613c22565b60405180910390f35b610213600480360381019061020e9190613b05565b610aed565b60405161022293929190613c66565b60405180910390f35b610233610ba4565b6040516102409190613cb3565b60405180910390f35b610263600480360381019061025e9190613b05565b610bc8565b6040516102709190613b3f565b60405180910390f35b610293600480360381019061028e9190613cff565b610c9e565b005b6102af60048036038101906102aa9190613b05565b610de4565b6040516102bc9190613d58565b60405180910390f35b6102df60048036038101906102da9190613b05565b610e0a565b6040516102ec9190613b3f565b60405180910390f35b61030f600480360381019061030a9190613b05565b610e71565b60405161031c9190613e19565b60405180910390f35b61033f600480360381019061033a9190613b05565b610e83565b60405161034c9190613c22565b60405180910390f35b61035d611025565b60405161036a9190613e48565b60405180910390f35b61038d60048036038101906103889190613b05565b611049565b60405161039a9190613b3f565b60405180910390f35b6103bd60048036038101906103b89190613b05565b6110ae565b6040516103ca9190613e48565b60405180910390f35b6103ed60048036038101906103e89190613b05565b6110dd565b6040516103fa9190613e61565b60405180910390f35b61041d60048036038101906104189190613b05565b611137565b60405161042a9190613b3f565b60405180910390f35b61044d60048036038101906104489190613b05565b61120d565b60405161045a9190613e48565b60405180910390f35b61047d60048036038101906104789190613b05565b611235565b60405161048a9190613b3f565b60405180910390f35b6104ad60048036038101906104a89190613cff565b61136c565b005b6104c960048036038101906104c49190613b05565b611589565b6040516104d69190613b3f565b60405180910390f35b5f60015f5414610524576040517f08c379a000000000000000000000000000000000000000000000000000000000815260040161051b90613ed4565b60405180910390fd5b60025f819055505f73ffffffffffffffffffffffffffffffffffffffff16600b5f8473ffffffffffffffffffffffffffffffffffffffff1673ffffffffffffffffffffffffffffffffffffffff1681526020019081526020015f205f9054906101000a900473ffffffffffffffffffffffffffffffffffffffff1673ffffffffffffffffffffffffffffffffffffffff16146105f5576040517f08c379a00000000000000000000000000000000000000000000000000000000081526004016105ec90613f3c565b60405180910390fd5b5f73ffffffffffffffffffffffffffffffffffffffff16600c5f8473ffffffffffffffffffffffffffffffffffffffff1673ffffffffffffffffffffffffffffffffffffffff1681526020019081526020015f205f9054906101000a900473ffffffffffffffffffffffffffffffffffffffff1673ffffffffffffffffffffffffffffffffffffffff16146106e857600c5f8373ffffffffffffffffffffffffffffffffffffffff1673ffffffffffffffffffffffffffffffffffffffff1681526020019081526020015f205f9054906101000a900473ffffffffffffffffffffffffffffffffffffffff1690506108d6565b5f6106f2836115ee565b90505f816040015163ffffffff1603610740576040517f08c379a000000000000000000000000000000000000000000000000000000000815260040161073790613fa4565b60405180910390fd5b505f308360405161075090613930565b61075b929190613fc2565b604051809103905ff080158015610774573d5f5f3e3d5ffd5b50905082600b5f8373ffffffffffffffffffffffffffffffffffffffff1673ffffffffffffffffffffffffffffffffffffffff1681526020019081526020015f205f6101000a81548173ffffffffffffffffffffffffffffffffffffffff021916908373ffffffffffffffffffffffffffffffffffffffff16021790555080600c5f8573ffffffffffffffffffffffffffffffffffffffff1673ffffffffffffffffffffffffffffffffffffffff1681526020019081526020015f205f6101000a81548173ffffffffffffffffffffffffffffffffffffffff021916908373ffffffffffffffffffffffffffffffffffffffff1602179055508073ffffffffffffffffffffffffffffffffffffffff168373ffffffffffffffffffffffffffffffffffffffff167f73fb3a739df7a607a2d4190be1c2d2beb0a1a1d66712602ace77dfa83381b73f60405160405180910390a36108d0816117f7565b50809150505b60015f81905550919050565b5f60095f60085f8573ffffffffffffffffffffffffffffffffffffffff1673ffffffffffffffffffffffffffffffffffffffff1681526020019081526020015f205f015f9054906101000a900473ffffffffffffffffffffffffffffffffffffffff1673ffffffffffffffffffffffffffffffffffffffff1673ffffffffffffffffffffffffffffffffffffffff1681526020019081526020015f206002015f9054906101000a900473ffffffffffffffffffffffffffffffffffffffff169050919050565b5f60015f54146109ed576040517f08c379a00000000000000000000000000000000000000000000000000000000081526004016109e490613ed4565b60405180910390fd5b60025f819055505f73ffffffffffffffffffffffffffffffffffffffff16600b5f8473ffffffffffffffffffffffffffffffffffffffff1673ffffffffffffffffffffffffffffffffffffffff1681526020019081526020015f205f9054906101000a900473ffffffffffffffffffffffffffffffffffffffff1673ffffffffffffffffffffffffffffffffffffffff1614610abe576040517f08c379a0000000000000000000000000000000000000000000000000000000008152600401610ab590614033565b60405180910390fd5b610ac7826117f7565b905060015f81905550919050565b610add61393d565b610ae6826115ee565b9050919050565b5f5f5f5f610afa85611faa565b9050805f01601a9054906101000a900461ffff169350805f01601c9054906101000a900463ffffffff169250600361ffff168461ffff1614610b3c575f610b9a565b600b5f8673ffffffffffffffffffffffffffffffffffffffff1673ffffffffffffffffffffffffffffffffffffffff1681526020019081526020015f205f9054906101000a900473ffffffffffffffffffffffffffffffffffffffff165b9150509193909250565b7f000000000000000000000000000000000000000000000000000000000000000081565b5f60095f8373ffffffffffffffffffffffffffffffffffffffff1673ffffffffffffffffffffffffffffffffffffffff1681526020019081526020015f206002015f9054906101000a900473ffffffffffffffffffffffffffffffffffffffff1690505f73ffffffffffffffffffffffffffffffffffffffff168173ffffffffffffffffffffffffffffffffffffffff1603610c99576040517f08c379a0000000000000000000000000000000000000000000000000000000008152600401610c909061409b565b60405180910390fd5b919050565b60015f5414610ce2576040517f08c379a0000000000000000000000000000000000000000000000000000000008152600401610cd990613ed4565b60405180910390fd5b60025f819055505f610cf26120c0565b90505f610cff82856120ce565b90505f73ffffffffffffffffffffffffffffffffffffffff1660085f8573ffffffffffffffffffffffffffffffffffffffff1673ffffffffffffffffffffffffffffffffffffffff1681526020019081526020015f205f015f9054906101000a900473ffffffffffffffffffffffffffffffffffffffff1673ffffffffffffffffffffffffffffffffffffffff1603610dcd576040517f08c379a0000000000000000000000000000000000000000000000000000000008152600401610dc490614103565b60405180910390fd5b610dd7818461211e565b505060015f819055505050565b5f5f610def83611faa565b9050805f01600a9054906101000a9004600b0b915050919050565b5f60085f8373ffffffffffffffffffffffffffffffffffffffff1673ffffffffffffffffffffffffffffffffffffffff1681526020019081526020015f205f015f9054906101000a900473ffffffffffffffffffffffffffffffffffffffff169050919050565b6060610e7c82612440565b9050919050565b610e8b61393d565b60085f8373ffffffffffffffffffffffffffffffffffffffff1673ffffffffffffffffffffffffffffffffffffffff1681526020019081526020015f206040518060a00160405290815f82015f9054906101000a900473ffffffffffffffffffffffffffffffffffffffff1673ffffffffffffffffffffffffffffffffffffffff1673ffffffffffffffffffffffffffffffffffffffff1681526020015f820160149054906101000a900460ff161515151581526020015f820160159054906101000a900463ffffffff1663ffffffff1663ffffffff1681526020015f820160199054906101000a900463ffffffff1663ffffffff1663ffffffff1681526020015f8201601d9054906101000a900462ffffff1662ffffff1662ffffff168152505090505f73ffffffffffffffffffffffffffffffffffffffff16815f015173ffffffffffffffffffffffffffffffffffffffff1603611020576040517f08c379a000000000000000000000000000000000000000000000000000000000815260040161101790614103565b60405180910390fd5b919050565b7f000000000000000000000000000000000000000000000000000000000000000081565b5f600d5f8373ffffffffffffffffffffffffffffffffffffffff1673ffffffffffffffffffffffffffffffffffffffff1681526020019081526020015f205f9054906101000a900473ffffffffffffffffffffffffffffffffffffffff169050919050565b5f5f6110b983611faa565b9050805f0160069054906101000a900463ffffffff1663ffffffff16915050919050565b5f5f6110e883611faa565b905063ffffffff8016815f0160169054906101000a900463ffffffff1663ffffffff161461112957805f0160169054906101000a900463ffffffff1661112f565b6336d616005b915050919050565b5f60095f8373ffffffffffffffffffffffffffffffffffffffff1673ffffffffffffffffffffffffffffffffffffffff1681526020019081526020015f206001015f9054906101000a900473ffffffffffffffffffffffffffffffffffffffff1690505f73ffffffffffffffffffffffffffffffffffffffff168173ffffffffffffffffffffffffffffffffffffffff1603611208576040517f08c379a00000000000000000000000000000000000000000000000000000000081526004016111ff9061409b565b60405180910390fd5b919050565b5f5f61121883611faa565b90505f61122584836126a2565b9050806080015192505050919050565b5f5f600a5f8473ffffffffffffffffffffffffffffffffffffffff1673ffffffffffffffffffffffffffffffffffffffff1681526020019081526020015f205f9054906101000a900473ffffffffffffffffffffffffffffffffffffffff1690505f73ffffffffffffffffffffffffffffffffffffffff168173ffffffffffffffffffffffffffffffffffffffff1603611304576040517f08c379a00000000000000000000000000000000000000000000000000000000081526004016112fb9061416b565b60405180910390fd5b60095f8273ffffffffffffffffffffffffffffffffffffffff1673ffffffffffffffffffffffffffffffffffffffff1681526020019081526020015f206001015f9054906101000a900473ffffffffffffffffffffffffffffffffffffffff16915050919050565b60015f54146113b0576040517f08c379a00000000000000000000000000000000000000000000000000000000081526004016113a790613ed4565b60405180910390fd5b60025f819055505f6113c06120c0565b90505f6113cd82856120ce565b90505f6113d9846115ee565b90505f60095f835f015173ffffffffffffffffffffffffffffffffffffffff1673ffffffffffffffffffffffffffffffffffffffff1681526020019081526020015f2090505f816005015f8573ffffffffffffffffffffffffffffffffffffffff1673ffffffffffffffffffffffffffffffffffffffff1681526020019081526020015f205f015f9054906101000a90046dffffffffffffffffffffffffffff166dffffffffffffffffffffffffffff1690505f826005015f8673ffffffffffffffffffffffffffffffffffffffff1673ffffffffffffffffffffffffffffffffffffffff1681526020019081526020015f205f01600e9054906101000a900471ffffffffffffffffffffffffffffffffffff1671ffffffffffffffffffffffffffffffffffff1690505f8114611545576040517f08c379a000000000000000000000000000000000000000000000000000000000815260040161153c906141d3565b60405180910390fd5b61154f8588612700565b5f846040015163ffffffff161415801561156957505f8214155b156115785761157785612b09565b5b50505050505060015f819055505050565b5f600c5f8373ffffffffffffffffffffffffffffffffffffffff1673ffffffffffffffffffffffffffffffffffffffff1681526020019081526020015f205f9054906101000a900473ffffffffffffffffffffffffffffffffffffffff169050919050565b6115f661393d565b5f60085f8473ffffffffffffffffffffffffffffffffffffffff1673ffffffffffffffffffffffffffffffffffffffff1681526020019081526020015f206040518060a00160405290815f82015f9054906101000a900473ffffffffffffffffffffffffffffffffffffffff1673ffffffffffffffffffffffffffffffffffffffff1673ffffffffffffffffffffffffffffffffffffffff1681526020015f820160149054906101000a900460ff161515151581526020015f820160159054906101000a900463ffffffff1663ffffffff1663ffffffff1681526020015f820160199054906101000a900463ffffffff1663ffffffff1663ffffffff1681526020015f8201601d9054906101000a900462ffffff1662ffffff1662ffffff168152505090505f73ffffffffffffffffffffffffffffffffffffffff16815f015173ffffffffffffffffffffffffffffffffffffffff160361178c576040517f08c379a000000000000000000000000000000000000000000000000000000000815260040161178390614103565b60405180910390fd5b63ffffffff8016816060015163ffffffff16036117c0576342c1d800816060019063ffffffff16908163ffffffff16815250505b62ffffff8016816080015162ffffff16036117ee57610708816080019062ffffff16908162ffffff16815250505b80915050919050565b5f5f73ffffffffffffffffffffffffffffffffffffffff1660085f8473ffffffffffffffffffffffffffffffffffffffff1673ffffffffffffffffffffffffffffffffffffffff1681526020019081526020015f205f015f9054906101000a900473ffffffffffffffffffffffffffffffffffffffff1673ffffffffffffffffffffffffffffffffffffffff16146118ef5760085f8373ffffffffffffffffffffffffffffffffffffffff1673ffffffffffffffffffffffffffffffffffffffff1681526020019081526020015f205f015f9054906101000a900473ffffffffffffffffffffffffffffffffffffffff169050611fa5565b5f60055f8473ffffffffffffffffffffffffffffffffffffffff1673ffffffffffffffffffffffffffffffffffffffff1681526020019081526020015f205f015f9054906101000a900463ffffffff1663ffffffff1614801561197e57503073ffffffffffffffffffffffffffffffffffffffff168273ffffffffffffffffffffffffffffffffffffffff1614155b6119bd576040517f08c379a00000000000000000000000000000000000000000000000000000000081526004016119b490614033565b60405180910390fd5b5f8273ffffffffffffffffffffffffffffffffffffffff1663313ce5676040518163ffffffff1660e01b8152600401602060405180830381865afa158015611a07573d5f5f3e3d5ffd5b505050506040513d601f19601f82011682018060405250810190611a2b9190614227565b905060128160ff161115611a74576040517f08c379a0000000000000000000000000000000000000000000000000000000008152600401611a6b9061429c565b60405180910390fd5b611a7c613990565b5f611aff620f4240638eddcd9260e01b87604051602401611a9d9190613b3f565b604051602081830303815290604052907bffffffffffffffffffffffffffffffffffffffffffffffffffffffff19166020820180517bffffffffffffffffffffffffffffffffffffffffffffffffffffffff8381831617835250505050612c59565b905080806020019051810190611b1591906144ec565b9150505f611b256207a120612d0e565b82604001515f019073ffffffffffffffffffffffffffffffffffffffff16908173ffffffffffffffffffffffffffffffffffffffff1681525090505f611b6d6207a121612d0e565b9050826040015160085f8873ffffffffffffffffffffffffffffffffffffffff1673ffffffffffffffffffffffffffffffffffffffff1681526020019081526020015f205f820151815f015f6101000a81548173ffffffffffffffffffffffffffffffffffffffff021916908373ffffffffffffffffffffffffffffffffffffffff1602179055506020820151815f0160146101000a81548160ff0219169083151502179055506040820151815f0160156101000a81548163ffffffff021916908363ffffffff1602179055506060820151815f0160196101000a81548163ffffffff021916908363ffffffff1602179055506080820151815f01601d6101000a81548162ffffff021916908362ffffff16021790555090505081600a5f8373ffffffffffffffffffffffffffffffffffffffff1673ffffffffffffffffffffffffffffffffffffffff1681526020019081526020015f205f6101000a81548173ffffffffffffffffffffffffffffffffffffffff021916908373ffffffffffffffffffffffffffffffffffffffff1602179055505f60095f8473ffffffffffffffffffffffffffffffffffffffff1673ffffffffffffffffffffffffffffffffffffffff1681526020019081526020015f20905086816001015f6101000a81548173ffffffffffffffffffffffffffffffffffffffff021916908373ffffffffffffffffffffffffffffffffffffffff160217905550835f0151815f01601a6101000a81548161ffff021916908361ffff1602179055508360200151815f01601c6101000a81548163ffffffff021916908363ffffffff16021790555081816002015f6101000a81548173ffffffffffffffffffffffffffffffffffffffff021916908373ffffffffffffffffffffffffffffffffffffffff16021790555042815f015f6101000a81548164ffffffffff021916908364ffffffffff16021790555084815f0160056101000a81548160ff021916908360ff160217905550621e8480815f0160066101000a81548163ffffffff021916908363ffffffff16021790555063ffffffff815f0160166101000a81548163ffffffff021916908363ffffffff160217905550611ea3620f4240612fe8565b8160010160146101000a8154816bffffffffffffffffffffffff02191690836bffffffffffffffffffffffff160217905550611ee1620f4240613042565b816003015f6101000a8154816dffffffffffffffffffffffffffff02191690836dffffffffffffffffffffffffffff1602179055506b033b2e3c9fd0803ce800000081600401819055508173ffffffffffffffffffffffffffffffffffffffff168373ffffffffffffffffffffffffffffffffffffffff168873ffffffffffffffffffffffffffffffffffffffff167f2ece124509c63be11a6985ae00b93c8cb8f8d8898f6e5239fc9e38bc7190966760405160405180910390a482955050505050505b919050565b5f5f60085f8473ffffffffffffffffffffffffffffffffffffffff1673ffffffffffffffffffffffffffffffffffffffff1681526020019081526020015f205f015f9054906101000a900473ffffffffffffffffffffffffffffffffffffffff1690505f73ffffffffffffffffffffffffffffffffffffffff168173ffffffffffffffffffffffffffffffffffffffff160361207b576040517f08c379a000000000000000000000000000000000000000000000000000000000815260040161207290614103565b60405180910390fd5b60095f8273ffffffffffffffffffffffffffffffffffffffff1673ffffffffffffffffffffffffffffffffffffffff1681526020019081526020015f20915050919050565b5f602836033560601c905090565b5f6101008210612113576040517f08c379a000000000000000000000000000000000000000000000000000000000815260040161210a90614561565b60405180910390fd5b818318905092915050565b5f60065f8473ffffffffffffffffffffffffffffffffffffffff1673ffffffffffffffffffffffffffffffffffffffff1681526020019081526020015f2090505f815f0160069054906101000a900463ffffffff1690505f60075f8673ffffffffffffffffffffffffffffffffffffffff1673ffffffffffffffffffffffffffffffffffffffff1681526020019081526020015f2090505f8263ffffffff16146122b6578373ffffffffffffffffffffffffffffffffffffffff16835f01600a9054906101000a900473ffffffffffffffffffffffffffffffffffffffff1673ffffffffffffffffffffffffffffffffffffffff16036122205750505061243c565b5f600190505b8263ffffffff168110156122b4578473ffffffffffffffffffffffffffffffffffffffff16828264010000000081106122625761226161457f565b5b015f9054906101000a900473ffffffffffffffffffffffffffffffffffffffff1673ffffffffffffffffffffffffffffffffffffffff16036122a7575050505061243c565b8080600101915050612226565b505b600a8263ffffffff16106122ff576040517f08c379a00000000000000000000000000000000000000000000000000000000081526004016122f6906145f6565b60405180910390fd5b5f8263ffffffff16036123535783835f01600a6101000a81548173ffffffffffffffffffffffffffffffffffffffff021916908373ffffffffffffffffffffffffffffffffffffffff1602179055506123b0565b83818363ffffffff1664010000000081106123715761237061457f565b5b015f6101000a81548173ffffffffffffffffffffffffffffffffffffffff021916908373ffffffffffffffffffffffffffffffffffffffff1602179055505b6001826123bd9190614641565b835f0160066101000a81548163ffffffff021916908363ffffffff1602179055508473ffffffffffffffffffffffffffffffffffffffff168473ffffffffffffffffffffffffffffffffffffffff167f1c0971b8e0f7bb4e90bdbd87cfe682c36c383e2fc3dc4716ecc02771186293cc60405160405180910390a35050505b5050565b60605f60065f8473ffffffffffffffffffffffffffffffffffffffff1673ffffffffffffffffffffffffffffffffffffffff1681526020019081526020015f205f0160069054906101000a900463ffffffff1690505f60065f8573ffffffffffffffffffffffffffffffffffffffff1673ffffffffffffffffffffffffffffffffffffffff1681526020019081526020015f205f01600a9054906101000a900473ffffffffffffffffffffffffffffffffffffffff1690505f8263ffffffff1667ffffffffffffffff811115612519576125186142ce565b5b6040519080825280602002602001820160405280156125475781602001602082028036833780820191505090505b5090505f8363ffffffff16036125625780935050505061269d565b5f60075f8773ffffffffffffffffffffffffffffffffffffffff1673ffffffffffffffffffffffffffffffffffffffff1681526020019081526020015f20905082825f815181106125b6576125b561457f565b5b602002602001019073ffffffffffffffffffffffffffffffffffffffff16908173ffffffffffffffffffffffffffffffffffffffff16815250505f600190505b8463ffffffff16811015612694578181640100000000811061261b5761261a61457f565b5b015f9054906101000a900473ffffffffffffffffffffffffffffffffffffffff1683828151811061264f5761264e61457f565b5b602002602001019073ffffffffffffffffffffffffffffffffffffffff16908173ffffffffffffffffffffffffffffffffffffffff16815250508060010190506125f6565b50819450505050505b919050565b6126aa6139bf565b60015f54146126ee576040517f08c379a00000000000000000000000000000000000000000000000000000000081526004016126e5906146c2565b60405180910390fd5b6126f983838361309e565b5092915050565b5f60065f8473ffffffffffffffffffffffffffffffffffffffff1673ffffffffffffffffffffffffffffffffffffffff1681526020019081526020015f2090505f815f0160069054906101000a900463ffffffff1690505f60075f8673ffffffffffffffffffffffffffffffffffffffff1673ffffffffffffffffffffffffffffffffffffffff1681526020019081526020015f2090505f7fffffffffffffffffffffffffffffffffffffffffffffffffffffffffffffffff90505f8363ffffffff16036127d15750505050612b05565b8473ffffffffffffffffffffffffffffffffffffffff16845f01600a9054906101000a900473ffffffffffffffffffffffffffffffffffffffff1673ffffffffffffffffffffffffffffffffffffffff160361282f575f90506128f4565b5f600190505b8363ffffffff168110156128c2578573ffffffffffffffffffffffffffffffffffffffff16838264010000000081106128715761287061457f565b5b015f9054906101000a900473ffffffffffffffffffffffffffffffffffffffff1673ffffffffffffffffffffffffffffffffffffffff16036128b5578091506128c2565b8080600101915050612835565b507fffffffffffffffffffffffffffffffffffffffffffffffffffffffffffffffff81036128f35750505050612b05565b5b5f60018461290291906146e0565b63ffffffff169050808214612a25575f8203612996578281640100000000811061292f5761292e61457f565b5b015f9054906101000a900473ffffffffffffffffffffffffffffffffffffffff16855f01600a6101000a81548173ffffffffffffffffffffffffffffffffffffffff021916908373ffffffffffffffffffffffffffffffffffffffff160217905550612a24565b828164010000000081106129ad576129ac61457f565b5b015f9054906101000a900473ffffffffffffffffffffffffffffffffffffffff16838364010000000081106129e5576129e461457f565b5b015f6101000a81548173ffffffffffffffffffffffffffffffffffffffff021916908373ffffffffffffffffffffffffffffffffffffffff1602179055505b5b80855f0160066101000a81548163ffffffff021916908363ffffffff1602179055505f8114612aa5575f83826401000000008110612a6657612a6561457f565b5b015f6101000a81548173ffffffffffffffffffffffffffffffffffffffff021916908373ffffffffffffffffffffffffffffffffffffffff1602179055505b8673ffffffffffffffffffffffffffffffffffffffff168673ffffffffffffffffffffffffffffffffffffffff167f7a35d9c64b6bcbe8e9104e3f481fb44a765d4b2a54cfa1c2d434a46c69f0418960405160405180910390a350505050505b5050565b5f60065f8373ffffffffffffffffffffffffffffffffffffffff1673ffffffffffffffffffffffffffffffffffffffff1681526020019081526020015f205f015f9054906101000a900460ff1690505f60ff168160ff1603612bed57612be7620f424063c39b543a60e01b84604051602401612b859190613b3f565b604051602081830303815290604052907bffffffffffffffffffffffffffffffffffffffffffffffffffffffff19166020820180517bffffffffffffffffffffffffffffffffffffffffffffffffffffffff8381831617835250505050612c59565b50612c55565b600160ff168160ff1603612c5457600260065f8473ffffffffffffffffffffffffffffffffffffffff1673ffffffffffffffffffffffffffffffffffffffff1681526020019081526020015f205f015f6101000a81548160ff021916908360ff1602179055505b5b5050565b60605f5f60035f8681526020019081526020015f205f9054906101000a900473ffffffffffffffffffffffffffffffffffffffff1673ffffffffffffffffffffffffffffffffffffffff1684604051612cb29190614769565b5f60405180830381855af49150503d805f8114612cea576040519150601f19603f3d011682016040523d82523d5f602084013e612cef565b606091505b509150915081612d0357612d0281613699565b5b809250505092915050565b5f5f8203612d51576040517f08c379a0000000000000000000000000000000000000000000000000000000008152600401612d48906147c9565b60405180910390fd5b620f423f821115612d97576040517f08c379a0000000000000000000000000000000000000000000000000000000008152600401612d8e90614831565b60405180910390fd5b5f73ffffffffffffffffffffffffffffffffffffffff1660045f8481526020019081526020015f205f9054906101000a900473ffffffffffffffffffffffffffffffffffffffff1673ffffffffffffffffffffffffffffffffffffffff1614612e325760045f8381526020019081526020015f205f9054906101000a900473ffffffffffffffffffffffffffffffffffffffff169050612fe3565b5f604051612e3f90613a91565b604051809103905ff080158015612e58573d5f5f3e3d5ffd5b5090506207a11f8311612eb5578060045f8581526020019081526020015f205f6101000a81548173ffffffffffffffffffffffffffffffffffffffff021916908373ffffffffffffffffffffffffffffffffffffffff1602179055505b60405180604001604052808463ffffffff1681526020015f73ffffffffffffffffffffffffffffffffffffffff1681525060055f8373ffffffffffffffffffffffffffffffffffffffff1673ffffffffffffffffffffffffffffffffffffffff1681526020019081526020015f205f820151815f015f6101000a81548163ffffffff021916908363ffffffff1602179055506020820151815f0160046101000a81548173ffffffffffffffffffffffffffffffffffffffff021916908373ffffffffffffffffffffffffffffffffffffffff1602179055509050508073ffffffffffffffffffffffffffffffffffffffff167f6c6ffd7df9a0cfaa14ee2cf752003968de6c340564276242aa48ca641b09bce484604051612fd69190613e48565b60405180910390a2809150505b919050565b5f6bffffffffffffffffffffffff801682111561303a576040517f08c379a0000000000000000000000000000000000000000000000000000000008152600401613031906148bf565b60405180910390fd5b819050919050565b5f6dffffffffffffffffffffffffffff8016821115613096576040517f08c379a000000000000000000000000000000000000000000000000000000000815260040161308d90614927565b60405180910390fd5b819050919050565b5f5f905083825f019073ffffffffffffffffffffffffffffffffffffffff16908173ffffffffffffffffffffffffffffffffffffffff1681525050825f015f9054906101000a900464ffffffffff168260a0019064ffffffffff16908164ffffffffff16815250505f835f0160059054906101000a900460ff168360c0019060ff16908160ff168152509050835f0160069054906101000a900463ffffffff168360e0019063ffffffff16908163ffffffff1681525050835f01600a9054906101000a9004600b0b836101000190600b0b9081600b0b81525050835f0160169054906101000a900463ffffffff1683610120019063ffffffff16908163ffffffff1681525050835f01601a9054906101000a900461ffff1683610140019061ffff16908161ffff1681525050835f01601c9054906101000a900463ffffffff1683610160019063ffffffff16908163ffffffff16815250508360010160149054906101000a90046bffffffffffffffffffffffff1683606001906bffffffffffffffffffffffff1690816bffffffffffffffffffffffff1681525050836003015f9054906101000a90046dffffffffffffffffffffffffffff1683602001906dffffffffffffffffffffffffffff1690816dffffffffffffffffffffffffffff168152505083600301600e9054906101000a900471ffffffffffffffffffffffffffffffffffff16836040019071ffffffffffffffffffffffffffffffffffff16908171ffffffffffffffffffffffffffffffffffff168152505083600401548360800181815250508060120360ff16600a0a836101a0018181525050826101a001516dffffffffffffffffffffffffffff8016816133205761331f614945565b5b04836101c00181815250505f61333684306136e5565b9050836101c00151811161335b57836101a00151810284610180018181525050613367565b5f846101800181815250505b8360a0015164ffffffffff16421461369057600192505f8460a0015164ffffffffff16426133959190614972565b90505f6b033b2e3c9fd0803ce800000086608001516133e06b033b2e3c9fd0803ce8000000896101000151600b0b6133cd91906149ae565b856b033b2e3c9fd0803ce8000000613813565b6133ea91906149ef565b6133f49190614a30565b90505f866080015182886040015171ffffffffffffffffffffffffffffffffffff1661342091906149ef565b61342a9190614a30565b90505f87606001516bffffffffffffffffffffffff1690505f88602001516dffffffffffffffffffffffffffff1690505f633b9aca0063ee6b280061346f91906149ef565b63ffffffff80168b610120015163ffffffff1614613492578a6101200151613498565b6336d616005b63ffffffff168b6040015171ffffffffffffffffffffffffffffffffffff16866134c29190614972565b6134cc91906149ef565b6134d69190614a30565b90505f8114613555575f633b9aca00856134f09190614a30565b8b61018001516135009190614a60565b9050818161350e9190614972565b838261351a91906149ef565b6135249190614a30565b92508a602001516dffffffffffffffffffffffffffff16836135469190614972565b846135519190614a60565b9350505b6dffffffffffffffffffffffffffff80168211158015613589575071ffffffffffffffffffffffffffffffffffff80168411155b80156135a357506bffffffffffffffffffffffff80168311155b15613689576135b1846138d0565b8a6040019071ffffffffffffffffffffffffffffffffffff16908171ffffffffffffffffffffffffffffffffffff1681525050848a6080018181525050428a60a0019064ffffffffff16908164ffffffffff168152505089602001516dffffffffffffffffffffffffffff1682146136885761362c83612fe8565b8a606001906bffffffffffffffffffffffff1690816bffffffffffffffffffffffff168152505061365c82613042565b8a602001906dffffffffffffffffffffffffffff1690816dffffffffffffffffffffffffffff16815250505b5b5050505050505b50509392505050565b5f815111156136aa57805181602001fd5b6040517f08c379a00000000000000000000000000000000000000000000000000000000081526004016136dc90614add565b60405180910390fd5b5f5f60405190505f5f855f015173ffffffffffffffffffffffffffffffffffffffff1662030d406370a0823160e01b876040516024016137259190613b3f565b604051602081830303815290604052907bffffffffffffffffffffffffffffffffffffffffffffffffffffffff19166020820180517bffffffffffffffffffffffffffffffffffffffffffffffffffffffff838183161783525050505060405161378f9190614769565b5f604051808303818686fa925050503d805f81146137c8576040519150601f19603f3d011682016040523d82523d5f602084013e6137cd565b606091505b50915091508115806137e0575060208151105b156137ef575f93505050613808565b808060200190518101906138039190614b0f565b935050505b806040525092915050565b5f835f81146138b257600284065f811461382f57859250613833565b8392505b50600283046002850494505b84156138ac578586028687820414613855575f5ffd5b81810181811015613864575f5ffd5b8581049750600287061561389f578785028589820414158915151615613888575f5ffd5b83810181811015613897575f5ffd5b878104965050505b505060028504945061383f565b506138c8565b835f81146138c2575f92506138c6565b8392505b505b509392505050565b5f71ffffffffffffffffffffffffffffffffffff8016821115613928576040517f08c379a000000000000000000000000000000000000000000000000000000000815260040161391f90614baa565b60405180910390fd5b819050919050565b611da280614bc983390190565b6040518060a001604052805f73ffffffffffffffffffffffffffffffffffffffff1681526020015f151581526020015f63ffffffff1681526020015f63ffffffff1681526020015f62ffffff1681525090565b60405180606001604052805f61ffff1681526020015f63ffffffff1681526020016139b961393d565b81525090565b604051806101e001604052805f73ffffffffffffffffffffffffffffffffffffffff1681526020015f6dffffffffffffffffffffffffffff1681526020015f71ffffffffffffffffffffffffffffffffffff1681526020015f6bffffffffffffffffffffffff1681526020015f81526020015f64ffffffffff1681526020015f60ff1681526020015f63ffffffff1681526020015f600b0b81526020015f63ffffffff1681526020015f61ffff1681526020015f63ffffffff1681526020015f81526020015f81526020015f81525090565b6101d68061696b83390190565b5f604051905090565b5f5ffd5b5f73ffffffffffffffffffffffffffffffffffffffff82169050919050565b5f613ad482613aab565b9050919050565b613ae481613aca565b8114613aee575f5ffd5b50565b5f81359050613aff81613adb565b92915050565b5f60208284031215613b1a57613b19613aa7565b5b5f613b2784828501613af1565b91505092915050565b613b3981613aca565b82525050565b5f602082019050613b525f830184613b30565b92915050565b613b6181613aca565b82525050565b5f8115159050919050565b613b7b81613b67565b82525050565b5f63ffffffff82169050919050565b613b9981613b81565b82525050565b5f62ffffff82169050919050565b613bb681613b9f565b82525050565b60a082015f820151613bd05f850182613b58565b506020820151613be36020850182613b72565b506040820151613bf66040850182613b90565b506060820151613c096060850182613b90565b506080820151613c1c6080850182613bad565b50505050565b5f60a082019050613c355f830184613bbc565b92915050565b5f61ffff82169050919050565b613c5181613c3b565b82525050565b613c6081613b81565b82525050565b5f606082019050613c795f830186613c48565b613c866020830185613c57565b613c936040830184613b30565b949350505050565b5f819050919050565b613cad81613c9b565b82525050565b5f602082019050613cc65f830184613ca4565b92915050565b5f819050919050565b613cde81613ccc565b8114613ce8575f5ffd5b50565b5f81359050613cf981613cd5565b92915050565b5f5f60408385031215613d1557613d14613aa7565b5b5f613d2285828601613ceb565b9250506020613d3385828601613af1565b9150509250929050565b5f81600b0b9050919050565b613d5281613d3d565b82525050565b5f602082019050613d6b5f830184613d49565b92915050565b5f81519050919050565b5f82825260208201905092915050565b5f819050602082019050919050565b5f613da58383613b58565b60208301905092915050565b5f602082019050919050565b5f613dc782613d71565b613dd18185613d7b565b9350613ddc83613d8b565b805f5b83811015613e0c578151613df38882613d9a565b9750613dfe83613db1565b925050600181019050613ddf565b5085935050505092915050565b5f6020820190508181035f830152613e318184613dbd565b905092915050565b613e4281613ccc565b82525050565b5f602082019050613e5b5f830184613e39565b92915050565b5f602082019050613e745f830184613c57565b92915050565b5f82825260208201905092915050565b7f652f7265656e7472616e637900000000000000000000000000000000000000005f82015250565b5f613ebe600c83613e7a565b9150613ec982613e8a565b602082019050919050565b5f6020820190508181035f830152613eeb81613eb2565b9050919050565b7f652f6e65737465642d70746f6b656e00000000000000000000000000000000005f82015250565b5f613f26600f83613e7a565b9150613f3182613ef2565b602082019050919050565b5f6020820190508181035f830152613f5381613f1a565b9050919050565b7f652f70746f6b656e2f6e6f742d636f6c6c61746572616c0000000000000000005f82015250565b5f613f8e601783613e7a565b9150613f9982613f5a565b602082019050919050565b5f6020820190508181035f830152613fbb81613f82565b9050919050565b5f604082019050613fd55f830185613b30565b613fe26020830184613b30565b9392505050565b7f652f6d61726b6574732f696e76616c69642d746f6b656e0000000000000000005f82015250565b5f61401d601783613e7a565b915061402882613fe9565b602082019050919050565b5f6020820190508181035f83015261404a81614011565b9050919050565b7f652f696e76616c69642d65746f6b656e000000000000000000000000000000005f82015250565b5f614085601083613e7a565b915061409082614051565b602082019050919050565b5f6020820190508181035f8301526140b281614079565b9050919050565b7f652f6d61726b65742d6e6f742d616374697661746564000000000000000000005f82015250565b5f6140ed601683613e7a565b91506140f8826140b9565b602082019050919050565b5f6020820190508181035f83015261411a816140e1565b9050919050565b7f652f696e76616c69642d64746f6b656e000000000000000000000000000000005f82015250565b5f614155601083613e7a565b915061416082614121565b602082019050919050565b5f6020820190508181035f83015261418281614149565b9050919050565b7f652f6f75747374616e64696e672d626f72726f770000000000000000000000005f82015250565b5f6141bd601483613e7a565b91506141c882614189565b602082019050919050565b5f6020820190508181035f8301526141ea816141b1565b9050919050565b5f60ff82169050919050565b614206816141f1565b8114614210575f5ffd5b50565b5f81519050614221816141fd565b92915050565b5f6020828403121561423c5761423b613aa7565b5b5f61424984828501614213565b91505092915050565b7f652f746f6f2d6d616e792d646563696d616c73000000000000000000000000005f82015250565b5f614286601383613e7a565b915061429182614252565b602082019050919050565b5f6020820190508181035f8301526142b38161427a565b9050919050565b5f5ffd5b5f601f19601f8301169050919050565b7f4e487b71000000000000000000000000000000000000000000000000000000005f52604160045260245ffd5b614304826142be565b810181811067ffffffffffffffff82111715614323576143226142ce565b5b80604052505050565b5f614335613a9e565b905061434182826142fb565b919050565b61434f81613c3b565b8114614359575f5ffd5b50565b5f8151905061436a81614346565b92915050565b61437981613b81565b8114614383575f5ffd5b50565b5f8151905061439481614370565b92915050565b5f815190506143a881613adb565b92915050565b6143b781613b67565b81146143c1575f5ffd5b50565b5f815190506143d2816143ae565b92915050565b6143e181613b9f565b81146143eb575f5ffd5b50565b5f815190506143fc816143d8565b92915050565b5f60a08284031215614417576144166142ba565b5b61442160a061432c565b90505f6144308482850161439a565b5f830152506020614443848285016143c4565b602083015250604061445784828501614386565b604083015250606061446b84828501614386565b606083015250608061447f848285016143ee565b60808301525092915050565b5f60e082840312156144a05761449f6142ba565b5b6144aa606061432c565b90505f6144b98482850161435c565b5f8301525060206144cc84828501614386565b60208301525060406144e084828501614402565b60408301525092915050565b5f60e0828403121561450157614500613aa7565b5b5f61450e8482850161448b565b91505092915050565b7f652f7375622d6163636f756e742d69642d746f6f2d62696700000000000000005f82015250565b5f61454b601883613e7a565b915061455682614517565b602082019050919050565b5f6020820190508181035f8301526145788161453f565b9050919050565b7f4e487b71000000000000000000000000000000000000000000000000000000005f52603260045260245ffd5b7f652f746f6f2d6d616e792d656e74657265642d6d61726b6574730000000000005f82015250565b5f6145e0601a83613e7a565b91506145eb826145ac565b602082019050919050565b5f6020820190508181035f83015261460d816145d4565b9050919050565b7f4e487b71000000000000000000000000000000000000000000000000000000005f52601160045260245ffd5b5f61464b82613b81565b915061465683613b81565b9250828201905063ffffffff81111561467257614671614614565b5b92915050565b7f652f726f2d7265656e7472616e637900000000000000000000000000000000005f82015250565b5f6146ac600f83613e7a565b91506146b782614678565b602082019050919050565b5f6020820190508181035f8301526146d9816146a0565b9050919050565b5f6146ea82613b81565b91506146f583613b81565b9250828203905063ffffffff81111561471157614710614614565b5b92915050565b5f81519050919050565b5f81905092915050565b8281835e5f83830152505050565b5f61474382614717565b61474d8185614721565b935061475d81856020860161472b565b80840191505092915050565b5f6147748284614739565b915081905092915050565b7f652f6372656174652d70726f78792f696e76616c69642d6d6f64756c650000005f82015250565b5f6147b3601d83613e7a565b91506147be8261477f565b602082019050919050565b5f6020820190508181035f8301526147e0816147a7565b9050919050565b7f652f6372656174652d70726f78792f696e7465726e616c2d6d6f64756c6500005f82015250565b5f61481b601e83613e7a565b9150614826826147e7565b602082019050919050565b5f6020820190508181035f8301526148488161480f565b9050919050565b7f652f736d616c6c2d616d6f756e742d746f6f2d6c617267652d746f2d656e636f5f8201527f6465000000000000000000000000000000000000000000000000000000000000602082015250565b5f6148a9602283613e7a565b91506148b48261484f565b604082019050919050565b5f6020820190508181035f8301526148d68161489d565b9050919050565b7f652f616d6f756e742d746f6f2d6c617267652d746f2d656e636f6465000000005f82015250565b5f614911601c83613e7a565b915061491c826148dd565b602082019050919050565b5f6020820190508181035f83015261493e81614905565b9050919050565b7f4e487b71000000000000000000000000000000000000000000000000000000005f52601260045260245ffd5b5f61497c82613ccc565b915061498783613ccc565b925082820390508181111561499f5761499e614614565b5b92915050565b5f819050919050565b5f6149b8826149a5565b91506149c3836149a5565b92508282019050828112155f8312168382125f8412151617156149e9576149e8614614565b5b92915050565b5f6149f982613ccc565b9150614a0483613ccc565b9250828202614a1281613ccc565b91508282048414831517614a2957614a28614614565b5b5092915050565b5f614a3a82613ccc565b9150614a4583613ccc565b925082614a5557614a54614945565b5b828204905092915050565b5f614a6a82613ccc565b9150614a7583613ccc565b9250828201905080821115614a8d57614a8c614614565b5b92915050565b7f652f656d7074792d6572726f72000000000000000000000000000000000000005f82015250565b5f614ac7600d83613e7a565b9150614ad282614a93565b602082019050919050565b5f6020820190508181035f830152614af481614abb565b9050919050565b5f81519050614b0981613cd5565b92915050565b5f60208284031215614b2457614b23613aa7565b5b5f614b3184828501614afb565b91505092915050565b7f652f646562742d616d6f756e742d746f6f2d6c617267652d746f2d656e636f645f8201527f6500000000000000000000000000000000000000000000000000000000000000602082015250565b5f614b94602183613e7a565b9150614b9f82614b3a565b604082019050919050565b5f6020820190508181035f830152614bc181614b88565b905091905056fe60c060405234801561000f575f5ffd5b50604051611da2380380611da2833981810160405281019061003191906100fe565b8173ffffffffffffffffffffffffffffffffffffffff1660808173ffffffffffffffffffffffffffffffffffffffff16815250508073ffffffffffffffffffffffffffffffffffffffff1660a08173ffffffffffffffffffffffffffffffffffffffff1681525050505061013c565b5f5ffd5b5f73ffffffffffffffffffffffffffffffffffffffff82169050919050565b5f6100cd826100a4565b9050919050565b6100dd816100c3565b81146100e7575f5ffd5b50565b5f815190506100f8816100d4565b92915050565b5f5f60408385031215610114576101136100a0565b5b5f610121858286016100ea565b9250506020610132858286016100ea565b9150509250929050565b60805160a051611c1461018e5f395f81816102e601528181610a1901528181610aac01528181610b1901528181610be201528181610e370152610f5801525f818161049001526105e30152611c145ff3fe608060405234801561000f575f5ffd5b50600436106100e8575f3560e01c806370a082311161008a578063b77dfe0311610064578063b77dfe031461025e578063dd62ed3e1461027a578063de0e9a3e146102aa578063ea598cb0146102c6576100e8565b806370a08231146101e057806395d89b4114610210578063a9059cbb1461022e576100e8565b80631ed575db116100c65780631ed575db1461015857806323b872dd14610174578063313ce567146101a45780636f307dc3146101c2576100e8565b806306fdde03146100ec578063095ea7b31461010a57806318160ddd1461013a575b5f5ffd5b6100f46102e2565b6040516101019190611300565b60405180910390f35b610124600480360381019061011f91906113be565b610398565b6040516101319190611416565b60405180910390f35b610142610485565b60405161014f919061143e565b60405180910390f35b610172600480360381019061016d91906113be565b61048e565b005b61018e60048036038101906101899190611457565b61052a565b60405161019b9190611416565b60405180910390f35b6101ac610a16565b6040516101b991906114c2565b60405180910390f35b6101ca610aa9565b6040516101d791906114ea565b60405180910390f35b6101fa60048036038101906101f59190611503565b610ad0565b604051610207919061143e565b60405180910390f35b610218610b15565b6040516102259190611300565b60405180910390f35b610248600480360381019061024391906113be565b610bcb565b6040516102559190611416565b60405180910390f35b61027860048036038101906102739190611503565b610bdf565b005b610294600480360381019061028f919061152e565b610da3565b6040516102a1919061143e565b60405180910390f35b6102c460048036038101906102bf919061156c565b610e25565b005b6102e060048036038101906102db919061156c565b610e32565b005b60607f000000000000000000000000000000000000000000000000000000000000000073ffffffffffffffffffffffffffffffffffffffff166306fdde036040518163ffffffff1660e01b81526004015f60405180830381865afa15801561034c573d5f5f3e3d5ffd5b505050506040513d5f823e3d601f19601f8201168201806040525081019061037491906116b5565b6040516020016103849190611780565b604051602081830303815290604052905090565b5f8160015f3373ffffffffffffffffffffffffffffffffffffffff1673ffffffffffffffffffffffffffffffffffffffff1681526020019081526020015f205f8573ffffffffffffffffffffffffffffffffffffffff1673ffffffffffffffffffffffffffffffffffffffff1681526020019081526020015f20819055508273ffffffffffffffffffffffffffffffffffffffff163373ffffffffffffffffffffffffffffffffffffffff167f8c5be1e5ebec7d5bd14f71427d1e84f3dd0314c0f7b2291e5b200ac8c7c3b92584604051610473919061143e565b60405180910390a36001905092915050565b5f600254905090565b7f000000000000000000000000000000000000000000000000000000000000000073ffffffffffffffffffffffffffffffffffffffff163373ffffffffffffffffffffffffffffffffffffffff161461051c576040517f08c379a0000000000000000000000000000000000000000000000000000000008152600401610513906117eb565b60405180910390fd5b6105268282610e6a565b5050565b5f815f5f8673ffffffffffffffffffffffffffffffffffffffff1673ffffffffffffffffffffffffffffffffffffffff1681526020019081526020015f205410156105aa576040517f08c379a00000000000000000000000000000000000000000000000000000000081526004016105a190611853565b60405180910390fd5b3373ffffffffffffffffffffffffffffffffffffffff168473ffffffffffffffffffffffffffffffffffffffff161415801561063257507f000000000000000000000000000000000000000000000000000000000000000073ffffffffffffffffffffffffffffffffffffffff163373ffffffffffffffffffffffffffffffffffffffff1614155b80156106d657507fffffffffffffffffffffffffffffffffffffffffffffffffffffffffffffffff60015f8673ffffffffffffffffffffffffffffffffffffffff1673ffffffffffffffffffffffffffffffffffffffff1681526020019081526020015f205f3373ffffffffffffffffffffffffffffffffffffffff1673ffffffffffffffffffffffffffffffffffffffff1681526020019081526020015f205414155b15610902578160015f8673ffffffffffffffffffffffffffffffffffffffff1673ffffffffffffffffffffffffffffffffffffffff1681526020019081526020015f205f3373ffffffffffffffffffffffffffffffffffffffff1673ffffffffffffffffffffffffffffffffffffffff1681526020019081526020015f20541015610796576040517f08c379a000000000000000000000000000000000000000000000000000000000815260040161078d906118bb565b60405180910390fd5b8160015f8673ffffffffffffffffffffffffffffffffffffffff1673ffffffffffffffffffffffffffffffffffffffff1681526020019081526020015f205f3373ffffffffffffffffffffffffffffffffffffffff1673ffffffffffffffffffffffffffffffffffffffff1681526020019081526020015f205f82825461081d9190611906565b925050819055503373ffffffffffffffffffffffffffffffffffffffff168473ffffffffffffffffffffffffffffffffffffffff167f8c5be1e5ebec7d5bd14f71427d1e84f3dd0314c0f7b2291e5b200ac8c7c3b92560015f8873ffffffffffffffffffffffffffffffffffffffff1673ffffffffffffffffffffffffffffffffffffffff1681526020019081526020015f205f3373ffffffffffffffffffffffffffffffffffffffff1673ffffffffffffffffffffffffffffffffffffffff1681526020019081526020015f20546040516108f9919061143e565b60405180910390a35b815f5f8673ffffffffffffffffffffffffffffffffffffffff1673ffffffffffffffffffffffffffffffffffffffff1681526020019081526020015f205f82825461094d9190611906565b92505081905550815f5f8573ffffffffffffffffffffffffffffffffffffffff1673ffffffffffffffffffffffffffffffffffffffff1681526020019081526020015f205f82825461099f9190611939565b925050819055508273ffffffffffffffffffffffffffffffffffffffff168473ffffffffffffffffffffffffffffffffffffffff167fddf252ad1be2c89b69c2b068fc378daa952ba7f163c4a11628f55a4df523b3ef84604051610a03919061143e565b60405180910390a3600190509392505050565b5f7f000000000000000000000000000000000000000000000000000000000000000073ffffffffffffffffffffffffffffffffffffffff1663313ce5676040518163ffffffff1660e01b8152600401602060405180830381865afa158015610a80573d5f5f3e3d5ffd5b505050506040513d601f19601f82011682018060405250810190610aa49190611996565b905090565b5f7f0000000000000000000000000000000000000000000000000000000000000000905090565b5f5f5f8373ffffffffffffffffffffffffffffffffffffffff1673ffffffffffffffffffffffffffffffffffffffff1681526020019081526020015f20549050919050565b60607f000000000000000000000000000000000000000000000000000000000000000073ffffffffffffffffffffffffffffffffffffffff166395d89b416040518163ffffffff1660e01b81526004015f60405180830381865afa158015610b7f573d5f5f3e3d5ffd5b505050506040513d5f823e3d601f19601f82011682018060405250810190610ba791906116b5565b604051602001610bb79190611a0b565b604051602081830303815290604052905090565b5f610bd733848461052a565b905092915050565b5f7f000000000000000000000000000000000000000000000000000000000000000073ffffffffffffffffffffffffffffffffffffffff166370a08231306040518263ffffffff1660e01b8152600401610c3991906114ea565b602060405180830381865afa158015610c54573d5f5f3e3d5ffd5b505050506040513d601f19601f82011682018060405250810190610c789190611a40565b90506002548111610cbe576040517f08c379a0000000000000000000000000000000000000000000000000000000008152600401610cb590611ab5565b60405180910390fd5b5f60025482610ccd9190611906565b90508060025f828254610ce09190611939565b92505081905550805f5f8573ffffffffffffffffffffffffffffffffffffffff1673ffffffffffffffffffffffffffffffffffffffff1681526020019081526020015f205f828254610d329190611939565b925050819055508273ffffffffffffffffffffffffffffffffffffffff165f73ffffffffffffffffffffffffffffffffffffffff167fddf252ad1be2c89b69c2b068fc378daa952ba7f163c4a11628f55a4df523b3ef83604051610d96919061143e565b60405180910390a3505050565b5f60015f8473ffffffffffffffffffffffffffffffffffffffff1673ffffffffffffffffffffffffffffffffffffffff1681526020019081526020015f205f8373ffffffffffffffffffffffffffffffffffffffff1673ffffffffffffffffffffffffffffffffffffffff1681526020019081526020015f2054905092915050565b610e2f3382610e6a565b50565b610e5e7f0000000000000000000000000000000000000000000000000000000000000000333084610fe7565b610e6733610bdf565b50565b805f5f8473ffffffffffffffffffffffffffffffffffffffff1673ffffffffffffffffffffffffffffffffffffffff1681526020019081526020015f20541015610ee9576040517f08c379a0000000000000000000000000000000000000000000000000000000008152600401610ee090611853565b60405180910390fd5b8060025f828254610efa9190611906565b92505081905550805f5f8473ffffffffffffffffffffffffffffffffffffffff1673ffffffffffffffffffffffffffffffffffffffff1681526020019081526020015f205f828254610f4c9190611906565b92505081905550610f7e7f0000000000000000000000000000000000000000000000000000000000000000838361113d565b5f73ffffffffffffffffffffffffffffffffffffffff168273ffffffffffffffffffffffffffffffffffffffff167fddf252ad1be2c89b69c2b068fc378daa952ba7f163c4a11628f55a4df523b3ef83604051610fdb919061143e565b60405180910390a35050565b5f5f8573ffffffffffffffffffffffffffffffffffffffff166323b872dd60e01b86868660405160240161101d93929190611ad3565b604051602081830303815290604052907bffffffffffffffffffffffffffffffffffffffffffffffffffffffff19166020820180517bffffffffffffffffffffffffffffffffffffffffffffffffffffffff83818316178352505050506040516110879190611b4c565b5f604051808303815f865af19150503d805f81146110c0576040519150601f19603f3d011682016040523d82523d5f602084013e6110c5565b606091505b50915091508180156110f257505f815114806110f15750808060200190518101906110f09190611b8c565b5b5b8190611134576040517f08c379a000000000000000000000000000000000000000000000000000000000815260040161112b9190611300565b60405180910390fd5b50505050505050565b5f5f8473ffffffffffffffffffffffffffffffffffffffff1663a9059cbb60e01b8585604051602401611171929190611bb7565b604051602081830303815290604052907bffffffffffffffffffffffffffffffffffffffffffffffffffffffff19166020820180517bffffffffffffffffffffffffffffffffffffffffffffffffffffffff83818316178352505050506040516111db9190611b4c565b5f604051808303815f865af19150503d805f8114611214576040519150601f19603f3d011682016040523d82523d5f602084013e611219565b606091505b509150915081801561124657505f815114806112455750808060200190518101906112449190611b8c565b5b5b8190611288576040517f08c379a000000000000000000000000000000000000000000000000000000000815260040161127f9190611300565b60405180910390fd5b505050505050565b5f81519050919050565b5f82825260208201905092915050565b8281835e5f83830152505050565b5f601f19601f8301169050919050565b5f6112d282611290565b6112dc818561129a565b93506112ec8185602086016112aa565b6112f5816112b8565b840191505092915050565b5f6020820190508181035f83015261131881846112c8565b905092915050565b5f604051905090565b5f5ffd5b5f5ffd5b5f73ffffffffffffffffffffffffffffffffffffffff82169050919050565b5f61135a82611331565b9050919050565b61136a81611350565b8114611374575f5ffd5b50565b5f8135905061138581611361565b92915050565b5f819050919050565b61139d8161138b565b81146113a7575f5ffd5b50565b5f813590506113b881611394565b92915050565b5f5f604083850312156113d4576113d3611329565b5b5f6113e185828601611377565b92505060206113f2858286016113aa565b9150509250929050565b5f8115159050919050565b611410816113fc565b82525050565b5f6020820190506114295f830184611407565b92915050565b6114388161138b565b82525050565b5f6020820190506114515f83018461142f565b92915050565b5f5f5f6060848603121561146e5761146d611329565b5b5f61147b86828701611377565b935050602061148c86828701611377565b925050604061149d868287016113aa565b9150509250925092565b5f60ff82169050919050565b6114bc816114a7565b82525050565b5f6020820190506114d55f8301846114b3565b92915050565b6114e481611350565b82525050565b5f6020820190506114fd5f8301846114db565b92915050565b5f6020828403121561151857611517611329565b5b5f61152584828501611377565b91505092915050565b5f5f6040838503121561154457611543611329565b5b5f61155185828601611377565b925050602061156285828601611377565b9150509250929050565b5f6020828403121561158157611580611329565b5b5f61158e848285016113aa565b91505092915050565b5f5ffd5b5f5ffd5b7f4e487b71000000000000000000000000000000000000000000000000000000005f52604160045260245ffd5b6115d5826112b8565b810181811067ffffffffffffffff821117156115f4576115f361159f565b5b80604052505050565b5f611606611320565b905061161282826115cc565b919050565b5f67ffffffffffffffff8211156116315761163061159f565b5b61163a826112b8565b9050602081019050919050565b5f61165961165484611617565b6115fd565b9050828152602081018484840111156116755761167461159b565b5b6116808482856112aa565b509392505050565b5f82601f83011261169c5761169b611597565b5b81516116ac848260208601611647565b91505092915050565b5f602082840312156116ca576116c9611329565b5b5f82015167ffffffffffffffff8111156116e7576116e661132d565b5b6116f384828501611688565b91505092915050565b5f81905092915050565b7f45756c65722050726f74656374656420000000000000000000000000000000005f82015250565b5f61173a6010836116fc565b915061174582611706565b601082019050919050565b5f61175a82611290565b61176481856116fc565b93506117748185602086016112aa565b80840191505092915050565b5f61178a8261172e565b91506117968284611750565b915081905092915050565b7f7065726d697373696f6e2064656e6965640000000000000000000000000000005f82015250565b5f6117d560118361129a565b91506117e0826117a1565b602082019050919050565b5f6020820190508181035f830152611802816117c9565b9050919050565b7f696e73756666696369656e742062616c616e63650000000000000000000000005f82015250565b5f61183d60148361129a565b915061184882611809565b602082019050919050565b5f6020820190508181035f83015261186a81611831565b9050919050565b7f696e73756666696369656e7420616c6c6f77616e6365000000000000000000005f82015250565b5f6118a560168361129a565b91506118b082611871565b602082019050919050565b5f6020820190508181035f8301526118d281611899565b9050919050565b7f4e487b71000000000000000000000000000000000000000000000000000000005f52601160045260245ffd5b5f6119108261138b565b915061191b8361138b565b9250828203905081811115611933576119326118d9565b5b92915050565b5f6119438261138b565b915061194e8361138b565b9250828201905080821115611966576119656118d9565b5b92915050565b611975816114a7565b811461197f575f5ffd5b50565b5f815190506119908161196c565b92915050565b5f602082840312156119ab576119aa611329565b5b5f6119b884828501611982565b91505092915050565b7f70000000000000000000000000000000000000000000000000000000000000005f82015250565b5f6119f56001836116fc565b9150611a00826119c1565b600182019050919050565b5f611a15826119e9565b9150611a218284611750565b915081905092915050565b5f81519050611a3a81611394565b92915050565b5f60208284031215611a5557611a54611329565b5b5f611a6284828501611a2c565b91505092915050565b7f6e6f20737572706c75732062616c616e636520746f20636c61696d00000000005f82015250565b5f611a9f601b8361129a565b9150611aaa82611a6b565b602082019050919050565b5f6020820190508181035f830152611acc81611a93565b9050919050565b5f606082019050611ae65f8301866114db565b611af360208301856114db565b611b00604083018461142f565b949350505050565b5f81519050919050565b5f81905092915050565b5f611b2682611b08565b611b308185611b12565b9350611b408185602086016112aa565b80840191505092915050565b5f611b578284611b1c565b915081905092915050565b611b6b816113fc565b8114611b75575f5ffd5b50565b5f81519050611b8681611b62565b92915050565b5f60208284031215611ba157611ba0611329565b5b5f611bae84828501611b78565b91505092915050565b5f604082019050611bca5f8301856114db565b611bd7602083018461142f565b939250505056fea26469706673582212201f75bc4c2c91b9fec9e92a7af7373a0da699054a66aee22660d8fe08c222116764736f6c634300081e003360a0604052348015600e575f5ffd5b503373ffffffffffffffffffffffffffffffffffffffff1660808173ffffffffffffffffffffffffffffffffffffffff168152505060805161017c61005a5f395f6013015261017c5ff3fe608060405234801561000f575f5ffd5b505f7f000000000000000000000000000000000000000000000000000000000000000090508073ffffffffffffffffffffffffffffffffffffffff163373ffffffffffffffffffffffffffffffffffffffff16036100f6575f5f52365f601f375f515f811461009c57600181146100a857600281146100b757600381146100c957600481146100de575f5ffd5b600136036020a06100f2565b602051602136036040a16100f2565b604051602051604136036060a26100f2565b606051604051602051606136036080a36100f2565b6080516060516040516020516081360360a0a45b5f5ff35b7fe9c4a3ac000000000000000000000000000000000000000000000000000000005f52365f6004373360601b36600401525f5f366018015f5f855af13d5f5f3e805f8114610142573d5ff35b3d5ffdfea2646970667358221220750d944f8381ac6f00e3b8d06f1cd902aedff03bc89c31dd4494db4b04253abf64736f6c634300081e0033a2646970667358221220c499371bb9ec1b1b2f58fe78aaeef9cb3affdade926d71626fb989069d6c759664736f6c634300081e0033","linkReferences":{}},"methodIdentifiers":{"activateMarket(address)":"4e807177","activatePToken(address)":"0d771df7","dTokenToUnderlying(address)":"c3c96b2b","eTokenToDToken(address)":"6b5e3606","eTokenToUnderlying(address)":"b93982a0","enterMarket(uint256,address)":"73f0b437","exitMarket(uint256,address)":"c8a5fba3","getChainlinkPriceFeedConfig(address)":"b3312cf4","getEnteredMarkets(address)":"8ccb720b","getPricingConfig(address)":"546422d6","interestAccumulator(address)":"bcc343ae","interestRate(address)":"7c2c69c0","interestRateModel(address)":"b409dd9b","moduleGitCommit()":"69a92ea3","moduleId()":"a1308f27","reserveFee(address)":"b74b1ed5","underlyingToAssetConfig(address)":"4e9cfac2","underlyingToAssetConfigUnresolved(address)":"8f34bdbc","underlyingToDToken(address)":"1b300582","underlyingToEToken(address)":"89488749","underlyingToPToken(address)":"fd7948d4"},"id":12}