{"abi":[{"type":"constructor","inputs":[{"name":"_dai","type":"address","internalType":"contract IERC20"},{"name":"_eToken","type":"address","internalType":"contract IEToken"},{"name":"_dToken","type":"address","internalType":"contract IDToken"},{"name":"_euler","type":"address","internalType":"address"},{"name":"_liquidation","type":"address","internalType":"contract ILiquidation"},{"name":"_markets","type":"address","internalType":"contract IMarkets"}],"stateMutability":"nonpayable"},{"type":"function","name":"liquidate","inputs":[{"name":"violator","type":"address","internalType":"address"}],"outputs":[],"stateMutability":"nonpayable"},{"type":"event","name":"log_named_decimal_uint","inputs":[{"name":"key","type":"string","indexed":false,"internalType":"string"},{"name":"val","type":"uint256","indexed":false,"internalType":"uint256"},{"name":"decimals","type":"uint256","indexed":false,"internalType":"uint256"}],"anonymous":false}],"bytecode":{"object":"0x610140604052348015610010575f5ffd5b50604051611ba3380380611ba3833981810160405281019061003291906102fc565b8573ffffffffffffffffffffffffffffffffffffffff1660808173ffffffffffffffffffffffffffffffffffffffff16815250508473ffffffffffffffffffffffffffffffffffffffff1660a08173ffffffffffffffffffffffffffffffffffffffff16815250508373ffffffffffffffffffffffffffffffffffffffff1660c08173ffffffffffffffffffffffffffffffffffffffff16815250508273ffffffffffffffffffffffffffffffffffffffff1660e08173ffffffffffffffffffffffffffffffffffffffff16815250508173ffffffffffffffffffffffffffffffffffffffff166101008173ffffffffffffffffffffffffffffffffffffffff16815250508073ffffffffffffffffffffffffffffffffffffffff166101208173ffffffffffffffffffffffffffffffffffffffff1681525050505050505050610385565b5f5ffd5b5f73ffffffffffffffffffffffffffffffffffffffff82169050919050565b5f6101a48261017b565b9050919050565b5f6101b58261019a565b9050919050565b6101c5816101ab565b81146101cf575f5ffd5b50565b5f815190506101e0816101bc565b92915050565b5f6101f08261019a565b9050919050565b610200816101e6565b811461020a575f5ffd5b50565b5f8151905061021b816101f7565b92915050565b5f61022b8261019a565b9050919050565b61023b81610221565b8114610245575f5ffd5b50565b5f8151905061025681610232565b92915050565b6102658161019a565b811461026f575f5ffd5b50565b5f815190506102808161025c565b92915050565b5f6102908261019a565b9050919050565b6102a081610286565b81146102aa575f5ffd5b50565b5f815190506102bb81610297565b92915050565b5f6102cb8261019a565b9050919050565b6102db816102c1565b81146102e5575f5ffd5b50565b5f815190506102f6816102d2565b92915050565b5f5f5f5f5f5f60c0878903121561031657610315610177565b5b5f61032389828a016101d2565b965050602061033489828a0161020d565b955050604061034589828a01610248565b945050606061035689828a01610272565b935050608061036789828a016102ad565b92505060a061037889828a016102e8565b9150509295509295509295565b60805160a05160c05160e051610100516101205161174a6104595f395f81816102020152818161038d015261082e01525f8181604c015261012d01525f8181610596015281816107680152610a3701525f50505f818161023e015281816103c9015281816106ef015261086a01525f8181608a0152818160ab0152818161016a0152818161018b0152818161025f015281816103ea0152818161055a0152818161061c0152818161072c0152818161088b015281816109fb01528181610abd01528181610b900152610bcd015261174a5ff3fe608060405234801561000f575f5ffd5b5060043610610029575f3560e01c80632f8655681461002d575b5f5ffd5b61004760048036038101906100429190610e8e565b610049565b005b5f7f000000000000000000000000000000000000000000000000000000000000000073ffffffffffffffffffffffffffffffffffffffff16631a96d9d530847f00000000000000000000000000000000000000000000000000000000000000007f00000000000000000000000000000000000000000000000000000000000000006040518563ffffffff1660e01b81526004016100e99493929190610ec8565b60c0604051808303815f875af1158015610105573d5f5f3e3d5ffd5b505050506040513d601f19601f820116820180604052508101906101299190611067565b90507f000000000000000000000000000000000000000000000000000000000000000073ffffffffffffffffffffffffffffffffffffffff16636f70e66f837f00000000000000000000000000000000000000000000000000000000000000007f0000000000000000000000000000000000000000000000000000000000000000855f015186602001516040518663ffffffff1660e01b81526004016101d39594939291906110a1565b5f604051808303815f87803b1580156101ea575f5ffd5b505af11580156101fc573d5f5f3e3d5ffd5b505050507f000000000000000000000000000000000000000000000000000000000000000073ffffffffffffffffffffffffffffffffffffffff1663843d8ab27f00000000000000000000000000000000000000000000000000000000000000007f000000000000000000000000000000000000000000000000000000000000000073ffffffffffffffffffffffffffffffffffffffff166395d89b416040518163ffffffff1660e01b81526004015f60405180830381865afa1580156102c5573d5f5f3e3d5ffd5b505050506040513d5f823e3d601f19601f820116820180604052508101906102ed91906111a6565b306040518463ffffffff1660e01b815260040161030c93929190611289565b6060604051808303815f875af1158015610328573d5f5f3e3d5ffd5b505050506040513d601f19601f8201168201806040525081019061034c91906113c3565b5061038b6040518060400160405280600181526020017f2000000000000000000000000000000000000000000000000000000000000000815250610cc5565b7f000000000000000000000000000000000000000000000000000000000000000073ffffffffffffffffffffffffffffffffffffffff1663843d8ab27f00000000000000000000000000000000000000000000000000000000000000007f000000000000000000000000000000000000000000000000000000000000000073ffffffffffffffffffffffffffffffffffffffff166395d89b416040518163ffffffff1660e01b81526004015f60405180830381865afa158015610450573d5f5f3e3d5ffd5b505050506040513d5f823e3d601f19601f8201168201806040525081019061047891906111a6565b856040518463ffffffff1660e01b815260040161049793929190611438565b6060604051808303815f875af11580156104b3573d5f5f3e3d5ffd5b505050506040513d601f19601f820116820180604052508101906104d791906113c3565b506105166040518060400160405280600181526020017f2000000000000000000000000000000000000000000000000000000000000000815250610cc5565b6106af6040518060400160405280600f81526020017f45554c45522062616c616e63653a200000000000000000000000000000000000815250670de0b6b3a76400007f000000000000000000000000000000000000000000000000000000000000000073ffffffffffffffffffffffffffffffffffffffff166370a082317f00000000000000000000000000000000000000000000000000000000000000006040518263ffffffff1660e01b81526004016105d19190611487565b602060405180830381865afa1580156105ec573d5f5f3e3d5ffd5b505050506040513d601f19601f8201168201806040525081019061061091906114a0565b61061a91906114f8565b7f000000000000000000000000000000000000000000000000000000000000000073ffffffffffffffffffffffffffffffffffffffff166395d89b416040518163ffffffff1660e01b81526004015f60405180830381865afa158015610682573d5f5f3e3d5ffd5b505050506040513d5f823e3d601f19601f820116820180604052508101906106aa91906111a6565b610d5e565b6106ed6040518060400160405280600181526020017f2000000000000000000000000000000000000000000000000000000000000000815250610cc5565b7f000000000000000000000000000000000000000000000000000000000000000073ffffffffffffffffffffffffffffffffffffffff1663441a3e705f7f000000000000000000000000000000000000000000000000000000000000000073ffffffffffffffffffffffffffffffffffffffff166370a082317f00000000000000000000000000000000000000000000000000000000000000006040518263ffffffff1660e01b81526004016107a39190611487565b602060405180830381865afa1580156107be573d5f5f3e3d5ffd5b505050506040513d601f19601f820116820180604052508101906107e291906114a0565b6040518363ffffffff1660e01b81526004016107ff92919061156a565b5f604051808303815f87803b158015610816575f5ffd5b505af1158015610828573d5f5f3e3d5ffd5b505050507f000000000000000000000000000000000000000000000000000000000000000073ffffffffffffffffffffffffffffffffffffffff1663843d8ab27f00000000000000000000000000000000000000000000000000000000000000007f000000000000000000000000000000000000000000000000000000000000000073ffffffffffffffffffffffffffffffffffffffff166395d89b416040518163ffffffff1660e01b81526004015f60405180830381865afa1580156108f1573d5f5f3e3d5ffd5b505050506040513d5f823e3d601f19601f8201168201806040525081019061091991906111a6565b306040518463ffffffff1660e01b8152600401610938939291906115db565b6060604051808303815f875af1158015610954573d5f5f3e3d5ffd5b505050506040513d601f19601f8201168201806040525081019061097891906113c3565b506109b76040518060400160405280600181526020017f2000000000000000000000000000000000000000000000000000000000000000815250610cc5565b610b506040518060400160405280600f81526020017f45554c45522062616c616e63653a200000000000000000000000000000000000815250670de0b6b3a76400007f000000000000000000000000000000000000000000000000000000000000000073ffffffffffffffffffffffffffffffffffffffff166370a082317f00000000000000000000000000000000000000000000000000000000000000006040518263ffffffff1660e01b8152600401610a729190611487565b602060405180830381865afa158015610a8d573d5f5f3e3d5ffd5b505050506040513d601f19601f82011682018060405250810190610ab191906114a0565b610abb91906114f8565b7f000000000000000000000000000000000000000000000000000000000000000073ffffffffffffffffffffffffffffffffffffffff166395d89b416040518163ffffffff1660e01b81526004015f60405180830381865afa158015610b23573d5f5f3e3d5ffd5b505050506040513d5f823e3d601f19601f82011682018060405250810190610b4b91906111a6565b610d5e565b610b8e6040518060400160405280600181526020017f2000000000000000000000000000000000000000000000000000000000000000815250610cc5565b7f000000000000000000000000000000000000000000000000000000000000000073ffffffffffffffffffffffffffffffffffffffff1663a9059cbb337f000000000000000000000000000000000000000000000000000000000000000073ffffffffffffffffffffffffffffffffffffffff166370a08231306040518263ffffffff1660e01b8152600401610c249190611487565b602060405180830381865afa158015610c3f573d5f5f3e3d5ffd5b505050506040513d601f19601f82011682018060405250810190610c6391906114a0565b6040518363ffffffff1660e01b8152600401610c8092919061162a565b6020604051808303815f875af1158015610c9c573d5f5f3e3d5ffd5b505050506040513d601f19601f82011682018060405250810190610cc09190611686565b505050565b610d5b81604051602401610cd991906116b1565b6040516020818303038152906040527f41304fac000000000000000000000000000000000000000000000000000000007bffffffffffffffffffffffffffffffffffffffffffffffffffffffff19166020820180517bffffffffffffffffffffffffffffffffffffffffffffffffffffffff8381831617835250505050610dfd565b50565b610df8838383604051602401610d76939291906116d1565b6040516020818303038152906040527fa3f5c739000000000000000000000000000000000000000000000000000000007bffffffffffffffffffffffffffffffffffffffffffffffffffffffff19166020820180517bffffffffffffffffffffffffffffffffffffffffffffffffffffffff8381831617835250505050610dfd565b505050565b5f815190505f6a636f6e736f6c652e6c6f679050602083015f5f8483855afa5050505050565b5f604051905090565b5f5ffd5b5f5ffd5b5f73ffffffffffffffffffffffffffffffffffffffff82169050919050565b5f610e5d82610e34565b9050919050565b610e6d81610e53565b8114610e77575f5ffd5b50565b5f81359050610e8881610e64565b92915050565b5f60208284031215610ea357610ea2610e2c565b5b5f610eb084828501610e7a565b91505092915050565b610ec281610e53565b82525050565b5f608082019050610edb5f830187610eb9565b610ee86020830186610eb9565b610ef56040830185610eb9565b610f026060830184610eb9565b95945050505050565b5f5ffd5b5f601f19601f8301169050919050565b7f4e487b71000000000000000000000000000000000000000000000000000000005f52604160045260245ffd5b610f5582610f0f565b810181811067ffffffffffffffff82111715610f7457610f73610f1f565b5b80604052505050565b5f610f86610e23565b9050610f928282610f4c565b919050565b5f819050919050565b610fa981610f97565b8114610fb3575f5ffd5b50565b5f81519050610fc481610fa0565b92915050565b5f60c08284031215610fdf57610fde610f0b565b5b610fe960c0610f7d565b90505f610ff884828501610fb6565b5f83015250602061100b84828501610fb6565b602083015250604061101f84828501610fb6565b604083015250606061103384828501610fb6565b606083015250608061104784828501610fb6565b60808301525060a061105b84828501610fb6565b60a08301525092915050565b5f60c0828403121561107c5761107b610e2c565b5b5f61108984828501610fca565b91505092915050565b61109b81610f97565b82525050565b5f60a0820190506110b45f830188610eb9565b6110c16020830187610eb9565b6110ce6040830186610eb9565b6110db6060830185611092565b6110e86080830184611092565b9695505050505050565b5f5ffd5b5f5ffd5b5f67ffffffffffffffff82111561111457611113610f1f565b5b61111d82610f0f565b9050602081019050919050565b8281835e5f83830152505050565b5f61114a611145846110fa565b610f7d565b905082815260208101848484011115611166576111656110f6565b5b61117184828561112a565b509392505050565b5f82601f83011261118d5761118c6110f2565b5b815161119d848260208601611138565b91505092915050565b5f602082840312156111bb576111ba610e2c565b5b5f82015167ffffffffffffffff8111156111d8576111d7610e30565b5b6111e484828501611179565b91505092915050565b5f82825260208201905092915050565b7f4166746572206c69717569646174696e6720286c697175696461746f72293a205f82015250565b5f6112316020836111ed565b915061123c826111fd565b602082019050919050565b5f81519050919050565b5f61125b82611247565b61126581856111ed565b935061127581856020860161112a565b61127e81610f0f565b840191505092915050565b5f6080820190508181035f8301526112a081611225565b90506112af6020830186610eb9565b81810360408301526112c18185611251565b90506112d06060830184610eb9565b949350505050565b5f6dffffffffffffffffffffffffffff82169050919050565b6112fa816112d8565b8114611304575f5ffd5b50565b5f81519050611315816112f1565b92915050565b5f71ffffffffffffffffffffffffffffffffffff82169050919050565b6113418161131b565b811461134b575f5ffd5b50565b5f8151905061135c81611338565b92915050565b5f6060828403121561137757611376610f0b565b5b6113816060610f7d565b90505f61139084828501611307565b5f8301525060206113a38482850161134e565b60208301525060406113b784828501610fb6565b60408301525092915050565b5f606082840312156113d8576113d7610e2c565b5b5f6113e584828501611362565b91505092915050565b7f4166746572206c69717569646174696e67202876696f6c61746f72293a2000005f82015250565b5f611422601e836111ed565b915061142d826113ee565b602082019050919050565b5f6080820190508181035f83015261144f81611416565b905061145e6020830186610eb9565b81810360408301526114708185611251565b905061147f6060830184610eb9565b949350505050565b5f60208201905061149a5f830184610eb9565b92915050565b5f602082840312156114b5576114b4610e2c565b5b5f6114c284828501610fb6565b91505092915050565b7f4e487b71000000000000000000000000000000000000000000000000000000005f52601260045260245ffd5b5f61150282610f97565b915061150d83610f97565b92508261151d5761151c6114cb565b5b828204905092915050565b5f819050919050565b5f819050919050565b5f61155461154f61154a84611528565b611531565b610f97565b9050919050565b6115648161153a565b82525050565b5f60408201905061157d5f83018561155b565b61158a6020830184611092565b9392505050565b7f4166746572207769746864726177696e6720286c697175696461746f72293a205f82015250565b5f6115c56020836111ed565b91506115d082611591565b602082019050919050565b5f6080820190508181035f8301526115f2816115b9565b90506116016020830186610eb9565b81810360408301526116138185611251565b90506116226060830184610eb9565b949350505050565b5f60408201905061163d5f830185610eb9565b61164a6020830184611092565b9392505050565b5f8115159050919050565b61166581611651565b811461166f575f5ffd5b50565b5f815190506116808161165c565b92915050565b5f6020828403121561169b5761169a610e2c565b5b5f6116a884828501611672565b91505092915050565b5f6020820190508181035f8301526116c98184611251565b905092915050565b5f6060820190508181035f8301526116e98186611251565b90506116f86020830185611092565b818103604083015261170a8184611251565b905094935050505056fea26469706673582212204b4fddad9d66a5108d2392d3c2db74473aedbaa47999ace34712a204e1995bb064736f6c634300081e0033","linkReferences":{}},"methodIdentifiers":{"liquidate(address)":"2f865568"},"id":35}