{"abi":[{"type":"function","name":"activateMarket","inputs":[{"name":"underlying","type":"address","internalType":"address"}],"outputs":[{"name":"","type":"address","internalType":"address"}],"stateMutability":"nonpayable"},{"type":"function","name":"activatePToken","inputs":[{"name":"underlying","type":"address","internalType":"address"}],"outputs":[{"name":"","type":"address","internalType":"address"}],"stateMutability":"nonpayable"},{"type":"function","name":"dTokenToUnderlying","inputs":[{"name":"dToken","type":"address","internalType":"address"}],"outputs":[{"name":"underlying","type":"address","internalType":"address"}],"stateMutability":"view"},{"type":"function","name":"eTokenToDToken","inputs":[{"name":"eToken","type":"address","internalType":"address"}],"outputs":[{"name":"dTokenAddr","type":"address","internalType":"address"}],"stateMutability":"view"},{"type":"function","name":"eTokenToUnderlying","inputs":[{"name":"eToken","type":"address","internalType":"address"}],"outputs":[{"name":"underlying","type":"address","internalType":"address"}],"stateMutability":"view"},{"type":"function","name":"enterMarket","inputs":[{"name":"subAccountId","type":"uint256","internalType":"uint256"},{"name":"newMarket","type":"address","internalType":"address"}],"outputs":[],"stateMutability":"nonpayable"},{"type":"function","name":"exitMarket","inputs":[{"name":"subAccountId","type":"uint256","internalType":"uint256"},{"name":"oldMarket","type":"address","internalType":"address"}],"outputs":[],"stateMutability":"nonpayable"},{"type":"function","name":"getChainlinkPriceFeedConfig","inputs":[{"name":"underlying","type":"address","internalType":"address"}],"outputs":[{"name":"chainlinkAggregator","type":"address","internalType":"address"}],"stateMutability":"view"},{"type":"function","name":"getDTokenAddress","inputs":[{"name":"message","type":"string","internalType":"string"},{"name":"eToken","type":"address","internalType":"address"}],"outputs":[{"name":"","type":"address","internalType":"address"}],"stateMutability":"view"},{"type":"function","name":"getEnteredMarkets","inputs":[{"name":"account","type":"address","internalType":"address"}],"outputs":[{"name":"","type":"address[]","internalType":"address[]"}],"stateMutability":"view"},{"type":"function","name":"getInterestAccumulator","inputs":[{"name":"message","type":"string","internalType":"string"},{"name":"eToken","type":"address","internalType":"address"}],"outputs":[{"name":"","type":"uint256","internalType":"uint256"}],"stateMutability":"view"},{"type":"function","name":"getInterestRate","inputs":[{"name":"message","type":"string","internalType":"string"},{"name":"eToken","type":"address","internalType":"address"}],"outputs":[{"name":"","type":"int96","internalType":"int96"}],"stateMutability":"view"},{"type":"function","name":"getInterestRateModel","inputs":[{"name":"message","type":"string","internalType":"string"},{"name":"eToken","type":"address","internalType":"address"}],"outputs":[{"name":"","type":"uint32","internalType":"uint32"}],"stateMutability":"view"},{"type":"function","name":"getLastInterestAccumulatorUpdate","inputs":[{"name":"message","type":"string","internalType":"string"},{"name":"eToken","type":"address","internalType":"address"}],"outputs":[{"name":"","type":"uint40","internalType":"uint40"}],"stateMutability":"view"},{"type":"function","name":"getLiquidityStatus","inputs":[{"name":"account","type":"address","internalType":"address"}],"outputs":[{"name":"status","type":"tuple","internalType":"struct IRiskManager.LiquidityStatus","components":[{"name":"collateralValue","type":"uint256","internalType":"uint256"},{"name":"liabilityValue","type":"uint256","internalType":"uint256"},{"name":"numBorrows","type":"uint256","internalType":"uint256"},{"name":"borrowIsolated","type":"bool","internalType":"bool"}]}],"stateMutability":"nonpayable"},{"type":"function","name":"getPricingConfig","inputs":[{"name":"underlying","type":"address","internalType":"address"}],"outputs":[{"name":"pricingType","type":"uint16","internalType":"uint16"},{"name":"pricingParameters","type":"uint32","internalType":"uint32"},{"name":"pricingForwarded","type":"address","internalType":"address"}],"stateMutability":"view"},{"type":"function","name":"getPricingParameters","inputs":[{"name":"message","type":"string","internalType":"string"},{"name":"eToken","type":"address","internalType":"address"}],"outputs":[{"name":"","type":"uint32","internalType":"uint32"}],"stateMutability":"view"},{"type":"function","name":"getPricingType","inputs":[{"name":"message","type":"string","internalType":"string"},{"name":"eToken","type":"address","internalType":"address"}],"outputs":[{"name":"","type":"uint16","internalType":"uint16"}],"stateMutability":"view"},{"type":"function","name":"getReserveBalance","inputs":[{"name":"message","type":"string","internalType":"string"},{"name":"eToken","type":"address","internalType":"address"}],"outputs":[{"name":"","type":"uint96","internalType":"uint96"}],"stateMutability":"view"},{"type":"function","name":"getReserveFee","inputs":[{"name":"message","type":"string","internalType":"string"},{"name":"eToken","type":"address","internalType":"address"}],"outputs":[{"name":"","type":"uint32","internalType":"uint32"}],"stateMutability":"view"},{"type":"function","name":"getTotalBalances","inputs":[{"name":"message","type":"string","internalType":"string"},{"name":"eToken","type":"address","internalType":"address"}],"outputs":[{"name":"","type":"uint112","internalType":"uint112"}],"stateMutability":"view"},{"type":"function","name":"getTotalBorrows","inputs":[{"name":"message","type":"string","internalType":"string"},{"name":"eToken","type":"address","internalType":"address"}],"outputs":[{"name":"","type":"uint144","internalType":"uint144"}],"stateMutability":"view"},{"type":"function","name":"getUnderlying","inputs":[{"name":"message","type":"string","internalType":"string"},{"name":"eToken","type":"address","internalType":"address"}],"outputs":[{"name":"","type":"address","internalType":"address"}],"stateMutability":"view"},{"type":"function","name":"getUnderlyingDecimals","inputs":[{"name":"message","type":"string","internalType":"string"},{"name":"eToken","type":"address","internalType":"address"}],"outputs":[{"name":"","type":"uint8","internalType":"uint8"}],"stateMutability":"view"},{"type":"function","name":"getUserAsset","inputs":[{"name":"message","type":"string","internalType":"string"},{"name":"eToken","type":"address","internalType":"address"},{"name":"symbol","type":"string","internalType":"string"},{"name":"user","type":"address","internalType":"address"}],"outputs":[{"name":"","type":"tuple","internalType":"struct Storage.UserAsset","components":[{"name":"balance","type":"uint112","internalType":"uint112"},{"name":"owed","type":"uint144","internalType":"uint144"},{"name":"interestAccumulator","type":"uint256","internalType":"uint256"}]}],"stateMutability":"nonpayable"},{"type":"function","name":"interestAccumulator","inputs":[{"name":"underlying","type":"address","internalType":"address"}],"outputs":[{"name":"","type":"uint256","internalType":"uint256"}],"stateMutability":"view"},{"type":"function","name":"interestRate","inputs":[{"name":"underlying","type":"address","internalType":"address"}],"outputs":[{"name":"","type":"int96","internalType":"int96"}],"stateMutability":"view"},{"type":"function","name":"interestRateModel","inputs":[{"name":"underlying","type":"address","internalType":"address"}],"outputs":[{"name":"","type":"uint256","internalType":"uint256"}],"stateMutability":"view"},{"type":"function","name":"moduleGitCommit","inputs":[],"outputs":[{"name":"","type":"bytes32","internalType":"bytes32"}],"stateMutability":"view"},{"type":"function","name":"moduleId","inputs":[],"outputs":[{"name":"","type":"uint256","internalType":"uint256"}],"stateMutability":"view"},{"type":"function","name":"reserveFee","inputs":[{"name":"underlying","type":"address","internalType":"address"}],"outputs":[{"name":"","type":"uint32","internalType":"uint32"}],"stateMutability":"view"},{"type":"function","name":"underlyingToAssetConfig","inputs":[{"name":"underlying","type":"address","internalType":"address"}],"outputs":[{"name":"","type":"tuple","internalType":"struct Storage.AssetConfig","components":[{"name":"eTokenAddress","type":"address","internalType":"address"},{"name":"borrowIsolated","type":"bool","internalType":"bool"},{"name":"collateralFactor","type":"uint32","internalType":"uint32"},{"name":"borrowFactor","type":"uint32","internalType":"uint32"},{"name":"twapWindow","type":"uint24","internalType":"uint24"}]}],"stateMutability":"view"},{"type":"function","name":"underlyingToAssetConfigUnresolved","inputs":[{"name":"underlying","type":"address","internalType":"address"}],"outputs":[{"name":"config","type":"tuple","internalType":"struct Storage.AssetConfig","components":[{"name":"eTokenAddress","type":"address","internalType":"address"},{"name":"borrowIsolated","type":"bool","internalType":"bool"},{"name":"collateralFactor","type":"uint32","internalType":"uint32"},{"name":"borrowFactor","type":"uint32","internalType":"uint32"},{"name":"twapWindow","type":"uint24","internalType":"uint24"}]}],"stateMutability":"view"},{"type":"function","name":"underlyingToDToken","inputs":[{"name":"underlying","type":"address","internalType":"address"}],"outputs":[{"name":"","type":"address","internalType":"address"}],"stateMutability":"view"},{"type":"function","name":"underlyingToEToken","inputs":[{"name":"underlying","type":"address","internalType":"address"}],"outputs":[{"name":"","type":"address","internalType":"address"}],"stateMutability":"view"},{"type":"function","name":"underlyingToPToken","inputs":[{"name":"underlying","type":"address","internalType":"address"}],"outputs":[{"name":"","type":"address","internalType":"address"}],"stateMutability":"view"},{"type":"event","name":"AssetStatus","inputs":[{"name":"underlying","type":"address","indexed":true,"internalType":"address"},{"name":"totalBalances","type":"uint256","indexed":false,"internalType":"uint256"},{"name":"totalBorrows","type":"uint256","indexed":false,"internalType":"uint256"},{"name":"reserveBalance","type":"uint96","indexed":false,"internalType":"uint96"},{"name":"poolSize","type":"uint256","indexed":false,"internalType":"uint256"},{"name":"interestAccumulator","type":"uint256","indexed":false,"internalType":"uint256"},{"name":"interestRate","type":"int96","indexed":false,"internalType":"int96"},{"name":"timestamp","type":"uint256","indexed":false,"internalType":"uint256"}],"anonymous":false},{"type":"event","name":"Borrow","inputs":[{"name":"underlying","type":"address","indexed":true,"internalType":"address"},{"name":"account","type":"address","indexed":true,"internalType":"address"},{"name":"amount","type":"uint256","indexed":false,"internalType":"uint256"}],"anonymous":false},{"type":"event","name":"DelegateAverageLiquidity","inputs":[{"name":"account","type":"address","indexed":true,"internalType":"address"},{"name":"delegate","type":"address","indexed":true,"internalType":"address"}],"anonymous":false},{"type":"event","name":"Deposit","inputs":[{"name":"underlying","type":"address","indexed":true,"internalType":"address"},{"name":"account","type":"address","indexed":true,"internalType":"address"},{"name":"amount","type":"uint256","indexed":false,"internalType":"uint256"}],"anonymous":false},{"type":"event","name":"EnterMarket","inputs":[{"name":"underlying","type":"address","indexed":true,"internalType":"address"},{"name":"account","type":"address","indexed":true,"internalType":"address"}],"anonymous":false},{"type":"event","name":"ExitMarket","inputs":[{"name":"underlying","type":"address","indexed":true,"internalType":"address"},{"name":"account","type":"address","indexed":true,"internalType":"address"}],"anonymous":false},{"type":"event","name":"Genesis","inputs":[],"anonymous":false},{"type":"event","name":"GovConvertReserves","inputs":[{"name":"underlying","type":"address","indexed":true,"internalType":"address"},{"name":"recipient","type":"address","indexed":true,"internalType":"address"},{"name":"amount","type":"uint256","indexed":false,"internalType":"uint256"}],"anonymous":false},{"type":"event","name":"GovSetAssetConfig","inputs":[{"name":"underlying","type":"address","indexed":true,"internalType":"address"},{"name":"newConfig","type":"tuple","indexed":false,"internalType":"struct Storage.AssetConfig","components":[{"name":"eTokenAddress","type":"address","internalType":"address"},{"name":"borrowIsolated","type":"bool","internalType":"bool"},{"name":"collateralFactor","type":"uint32","internalType":"uint32"},{"name":"borrowFactor","type":"uint32","internalType":"uint32"},{"name":"twapWindow","type":"uint24","internalType":"uint24"}]}],"anonymous":false},{"type":"event","name":"GovSetChainlinkPriceFeed","inputs":[{"name":"underlying","type":"address","indexed":true,"internalType":"address"},{"name":"chainlinkAggregator","type":"address","indexed":false,"internalType":"address"}],"anonymous":false},{"type":"event","name":"GovSetIRM","inputs":[{"name":"underlying","type":"address","indexed":true,"internalType":"address"},{"name":"interestRateModel","type":"uint256","indexed":false,"internalType":"uint256"},{"name":"resetParams","type":"bytes","indexed":false,"internalType":"bytes"}],"anonymous":false},{"type":"event","name":"GovSetPricingConfig","inputs":[{"name":"underlying","type":"address","indexed":true,"internalType":"address"},{"name":"newPricingType","type":"uint16","indexed":false,"internalType":"uint16"},{"name":"newPricingParameter","type":"uint32","indexed":false,"internalType":"uint32"}],"anonymous":false},{"type":"event","name":"GovSetReserveFee","inputs":[{"name":"underlying","type":"address","indexed":true,"internalType":"address"},{"name":"newReserveFee","type":"uint32","indexed":false,"internalType":"uint32"}],"anonymous":false},{"type":"event","name":"InstallerInstallModule","inputs":[{"name":"moduleId","type":"uint256","indexed":true,"internalType":"uint256"},{"name":"moduleImpl","type":"address","indexed":true,"internalType":"address"},{"name":"moduleGitCommit","type":"bytes32","indexed":false,"internalType":"bytes32"}],"anonymous":false},{"type":"event","name":"InstallerSetGovernorAdmin","inputs":[{"name":"newGovernorAdmin","type":"address","indexed":true,"internalType":"address"}],"anonymous":false},{"type":"event","name":"InstallerSetUpgradeAdmin","inputs":[{"name":"newUpgradeAdmin","type":"address","indexed":true,"internalType":"address"}],"anonymous":false},{"type":"event","name":"Liquidation","inputs":[{"name":"liquidator","type":"address","indexed":true,"internalType":"address"},{"name":"violator","type":"address","indexed":true,"internalType":"address"},{"name":"underlying","type":"address","indexed":true,"internalType":"address"},{"name":"collateral","type":"address","indexed":false,"internalType":"address"},{"name":"repay","type":"uint256","indexed":false,"internalType":"uint256"},{"name":"yield","type":"uint256","indexed":false,"internalType":"uint256"},{"name":"healthScore","type":"uint256","indexed":false,"internalType":"uint256"},{"name":"baseDiscount","type":"uint256","indexed":false,"internalType":"uint256"},{"name":"discount","type":"uint256","indexed":false,"internalType":"uint256"}],"anonymous":false},{"type":"event","name":"MarketActivated","inputs":[{"name":"underlying","type":"address","indexed":true,"internalType":"address"},{"name":"eToken","type":"address","indexed":true,"internalType":"address"},{"name":"dToken","type":"address","indexed":true,"internalType":"address"}],"anonymous":false},{"type":"event","name":"PTokenActivated","inputs":[{"name":"underlying","type":"address","indexed":true,"internalType":"address"},{"name":"pToken","type":"address","indexed":true,"internalType":"address"}],"anonymous":false},{"type":"event","name":"PTokenUnWrap","inputs":[{"name":"underlying","type":"address","indexed":true,"internalType":"address"},{"name":"account","type":"address","indexed":true,"internalType":"address"},{"name":"amount","type":"uint256","indexed":false,"internalType":"uint256"}],"anonymous":false},{"type":"event","name":"PTokenWrap","inputs":[{"name":"underlying","type":"address","indexed":true,"internalType":"address"},{"name":"account","type":"address","indexed":true,"internalType":"address"},{"name":"amount","type":"uint256","indexed":false,"internalType":"uint256"}],"anonymous":false},{"type":"event","name":"ProxyCreated","inputs":[{"name":"proxy","type":"address","indexed":true,"internalType":"address"},{"name":"moduleId","type":"uint256","indexed":false,"internalType":"uint256"}],"anonymous":false},{"type":"event","name":"Repay","inputs":[{"name":"underlying","type":"address","indexed":true,"internalType":"address"},{"name":"account","type":"address","indexed":true,"internalType":"address"},{"name":"amount","type":"uint256","indexed":false,"internalType":"uint256"}],"anonymous":false},{"type":"event","name":"RequestBorrow","inputs":[{"name":"account","type":"address","indexed":true,"internalType":"address"},{"name":"amount","type":"uint256","indexed":false,"internalType":"uint256"}],"anonymous":false},{"type":"event","name":"RequestBurn","inputs":[{"name":"account","type":"address","indexed":true,"internalType":"address"},{"name":"amount","type":"uint256","indexed":false,"internalType":"uint256"}],"anonymous":false},{"type":"event","name":"RequestDeposit","inputs":[{"name":"account","type":"address","indexed":true,"internalType":"address"},{"name":"amount","type":"uint256","indexed":false,"internalType":"uint256"}],"anonymous":false},{"type":"event","name":"RequestDonate","inputs":[{"name":"account","type":"address","indexed":true,"internalType":"address"},{"name":"amount","type":"uint256","indexed":false,"internalType":"uint256"}],"anonymous":false},{"type":"event","name":"RequestLiquidate","inputs":[{"name":"liquidator","type":"address","indexed":true,"internalType":"address"},{"name":"violator","type":"address","indexed":true,"internalType":"address"},{"name":"underlying","type":"address","indexed":true,"internalType":"address"},{"name":"collateral","type":"address","indexed":false,"internalType":"address"},{"name":"repay","type":"uint256","indexed":false,"internalType":"uint256"},{"name":"minYield","type":"uint256","indexed":false,"internalType":"uint256"}],"anonymous":false},{"type":"event","name":"RequestMint","inputs":[{"name":"account","type":"address","indexed":true,"internalType":"address"},{"name":"amount","type":"uint256","indexed":false,"internalType":"uint256"}],"anonymous":false},{"type":"event","name":"RequestRepay","inputs":[{"name":"account","type":"address","indexed":true,"internalType":"address"},{"name":"amount","type":"uint256","indexed":false,"internalType":"uint256"}],"anonymous":false},{"type":"event","name":"RequestSwap","inputs":[{"name":"accountIn","type":"address","indexed":true,"internalType":"address"},{"name":"accountOut","type":"address","indexed":true,"internalType":"address"},{"name":"underlyingIn","type":"address","indexed":true,"internalType":"address"},{"name":"underlyingOut","type":"address","indexed":false,"internalType":"address"},{"name":"amount","type":"uint256","indexed":false,"internalType":"uint256"},{"name":"swapType","type":"uint256","indexed":false,"internalType":"uint256"}],"anonymous":false},{"type":"event","name":"RequestSwapHub","inputs":[{"name":"accountIn","type":"address","indexed":true,"internalType":"address"},{"name":"accountOut","type":"address","indexed":true,"internalType":"address"},{"name":"underlyingIn","type":"address","indexed":true,"internalType":"address"},{"name":"underlyingOut","type":"address","indexed":false,"internalType":"address"},{"name":"amountIn","type":"uint256","indexed":false,"internalType":"uint256"},{"name":"amountOut","type":"uint256","indexed":false,"internalType":"uint256"},{"name":"mode","type":"uint256","indexed":false,"internalType":"uint256"},{"name":"swapHandler","type":"address","indexed":false,"internalType":"address"}],"anonymous":false},{"type":"event","name":"RequestSwapHubRepay","inputs":[{"name":"accountIn","type":"address","indexed":true,"internalType":"address"},{"name":"accountOut","type":"address","indexed":true,"internalType":"address"},{"name":"underlyingIn","type":"address","indexed":true,"internalType":"address"},{"name":"underlyingOut","type":"address","indexed":false,"internalType":"address"},{"name":"targetDebt","type":"uint256","indexed":false,"internalType":"uint256"},{"name":"swapHandler","type":"address","indexed":false,"internalType":"address"}],"anonymous":false},{"type":"event","name":"RequestTransferDToken","inputs":[{"name":"from","type":"address","indexed":true,"internalType":"address"},{"name":"to","type":"address","indexed":true,"internalType":"address"},{"name":"amount","type":"uint256","indexed":false,"internalType":"uint256"}],"anonymous":false},{"type":"event","name":"RequestTransferEToken","inputs":[{"name":"from","type":"address","indexed":true,"internalType":"address"},{"name":"to","type":"address","indexed":true,"internalType":"address"},{"name":"amount","type":"uint256","indexed":false,"internalType":"uint256"}],"anonymous":false},{"type":"event","name":"RequestWithdraw","inputs":[{"name":"account","type":"address","indexed":true,"internalType":"address"},{"name":"amount","type":"uint256","indexed":false,"internalType":"uint256"}],"anonymous":false},{"type":"event","name":"TrackAverageLiquidity","inputs":[{"name":"account","type":"address","indexed":true,"internalType":"address"}],"anonymous":false},{"type":"event","name":"UnTrackAverageLiquidity","inputs":[{"name":"account","type":"address","indexed":true,"internalType":"address"}],"anonymous":false},{"type":"event","name":"Withdraw","inputs":[{"name":"underlying","type":"address","indexed":true,"internalType":"address"},{"name":"account","type":"address","indexed":true,"internalType":"address"},{"name":"amount","type":"uint256","indexed":false,"internalType":"uint256"}],"anonymous":false},{"type":"event","name":"log_named_decimal_uint","inputs":[{"name":"key","type":"string","indexed":false,"internalType":"string"},{"name":"val","type":"uint256","indexed":false,"internalType":"uint256"},{"name":"decimals","type":"uint256","indexed":false,"internalType":"uint256"}],"anonymous":false}],"bytecode":{"object":"0x60c0604052348015600e575f5ffd5b507f99ac22643f1ec0e690c9b0b8e1f8cce7e4839b1e1d2f86273dcc8c19cc0e981c600281818181608081815250508060a08181525050505050505060805160a051618ce461006b5f395f6113a601525f611e580152618ce45ff3fe608060405234801561000f575f5ffd5b506004361061021a575f3560e01c80638f34bdbc11610123578063c064e411116100ab578063c94dbc181161007a578063c94dbc18146107a4578063e05f13ba146107d4578063e778610214610804578063f2e7711714610834578063fd7948d4146108645761021a565b8063c064e411146106f8578063c3c96b2b14610728578063c7ec099714610758578063c8a5fba3146107885761021a565b8063b3312cf4116100f2578063b3312cf414610608578063b409dd9b14610638578063b74b1ed514610668578063b93982a014610698578063bcc343ae146106c85761021a565b80638f34bdbc1461055a57806398cfb2301461058a578063a1308f27146105ba578063ab9690df146105d85761021a565b806369a92ea3116101a65780637808bca8116101755780637808bca81461046a5780637c2c69c01461049a578063843d8ab2146104ca57806389488749146104fa5780638ccb720b1461052a5761021a565b806369a92ea3146103d05780636b5e3606146103ee5780637163c7e41461041e57806373f0b4371461044e5761021a565b80634e807177116101ed5780634e807177146102de5780634e9cfac21461030e57806352d94d6b1461033e578063546422d61461036e57806359ce0cda146103a05761021a565b80630d771df71461021e5780631b3005821461024e5780631c8df6251461027e578063276b227f146102ae575b5f5ffd5b6102386004803603810190610233919061536e565b610894565b60405161024591906153a8565b60405180910390f35b6102686004803603810190610263919061536e565b610c97565b60405161027591906153a8565b60405180910390f35b61029860048036038101906102939190615422565b610d5d565b6040516102a591906153a8565b60405180910390f35b6102c860048036038101906102c39190615422565b610ebf565b6040516102d59190615497565b60405180910390f35b6102f860048036038101906102f3919061536e565b610f9f565b60405161030591906153a8565b60405180910390f35b6103286004803603810190610323919061536e565b6110cc565b604051610335919061557a565b60405180910390f35b61035860048036038101906103539190615422565b6110e4565b60405161036591906155a2565b60405180910390f35b6103886004803603810190610383919061536e565b6111e8565b604051610397939291906155d7565b60405180910390f35b6103ba60048036038101906103b59190615422565b61129f565b6040516103c7919061562b565b60405180910390f35b6103d86113a4565b6040516103e5919061565c565b60405180910390f35b6104086004803603810190610403919061536e565b6113c8565b60405161041591906153a8565b60405180910390f35b61043860048036038101906104339190615422565b61149e565b60405161044591906156a1565b60405180910390f35b610468600480360381019061046391906156e4565b6115ce565b005b610484600480360381019061047f9190615422565b611714565b604051610491919061573d565b60405180910390f35b6104b460048036038101906104af919061536e565b61176b565b6040516104c19190615771565b60405180910390f35b6104e460048036038101906104df91906158c2565b611791565b6040516104f191906159e8565b60405180910390f35b610514600480360381019061050f919061536e565b611b1d565b60405161052191906153a8565b60405180910390f35b610544600480360381019061053f919061536e565b611b84565b6040516105519190615aa9565b60405180910390f35b610574600480360381019061056f919061536e565b611b96565b604051610581919061557a565b60405180910390f35b6105a4600480360381019061059f9190615422565b611d38565b6040516105b19190615aef565b60405180910390f35b6105c2611e56565b6040516105cf9190615497565b60405180910390f35b6105f260048036038101906105ed9190615422565b611e7a565b6040516105ff9190615b17565b60405180910390f35b610622600480360381019061061d919061536e565b611f9c565b60405161062f91906153a8565b60405180910390f35b610652600480360381019061064d919061536e565b612001565b60405161065f9190615497565b60405180910390f35b610682600480360381019061067d919061536e565b612030565b60405161068f91906155a2565b60405180910390f35b6106b260048036038101906106ad919061536e565b61208a565b6040516106bf91906153a8565b60405180910390f35b6106e260048036038101906106dd919061536e565b612160565b6040516106ef9190615497565b60405180910390f35b610712600480360381019061070d9190615422565b612188565b60405161071f91906155a2565b60405180910390f35b610742600480360381019061073d919061536e565b61228c565b60405161074f91906153a8565b60405180910390f35b610772600480360381019061076d9190615b30565b6123c3565b60405161077f9190615771565b60405180910390f35b6107a2600480360381019061079d91906156e4565b61247a565b005b6107be60048036038101906107b99190615422565b612697565b6040516107cb91906153a8565b60405180910390f35b6107ee60048036038101906107e9919061536e565b6127b5565b6040516107fb9190615bdd565b60405180910390f35b61081e60048036038101906108199190615422565b61285e565b60405161082b9190615bf6565b60405180910390f35b61084e60048036038101906108499190615422565b61295c565b60405161085b91906155a2565b60405180910390f35b61087e6004803603810190610879919061536e565b612a60565b60405161088b91906153a8565b60405180910390f35b5f60015f54146108d9576040517f08c379a00000000000000000000000000000000000000000000000000000000081526004016108d090615c69565b60405180910390fd5b60025f819055505f73ffffffffffffffffffffffffffffffffffffffff16600b5f8473ffffffffffffffffffffffffffffffffffffffff1673ffffffffffffffffffffffffffffffffffffffff1681526020019081526020015f205f9054906101000a900473ffffffffffffffffffffffffffffffffffffffff1673ffffffffffffffffffffffffffffffffffffffff16146109aa576040517f08c379a00000000000000000000000000000000000000000000000000000000081526004016109a190615cd1565b60405180910390fd5b5f73ffffffffffffffffffffffffffffffffffffffff16600c5f8473ffffffffffffffffffffffffffffffffffffffff1673ffffffffffffffffffffffffffffffffffffffff1681526020019081526020015f205f9054906101000a900473ffffffffffffffffffffffffffffffffffffffff1673ffffffffffffffffffffffffffffffffffffffff1614610a9d57600c5f8373ffffffffffffffffffffffffffffffffffffffff1673ffffffffffffffffffffffffffffffffffffffff1681526020019081526020015f205f9054906101000a900473ffffffffffffffffffffffffffffffffffffffff169050610c8b565b5f610aa783612ac5565b90505f816040015163ffffffff1603610af5576040517f08c379a0000000000000000000000000000000000000000000000000000000008152600401610aec90615d39565b60405180910390fd5b505f3083604051610b059061512d565b610b10929190615d57565b604051809103905ff080158015610b29573d5f5f3e3d5ffd5b50905082600b5f8373ffffffffffffffffffffffffffffffffffffffff1673ffffffffffffffffffffffffffffffffffffffff1681526020019081526020015f205f6101000a81548173ffffffffffffffffffffffffffffffffffffffff021916908373ffffffffffffffffffffffffffffffffffffffff16021790555080600c5f8573ffffffffffffffffffffffffffffffffffffffff1673ffffffffffffffffffffffffffffffffffffffff1681526020019081526020015f205f6101000a81548173ffffffffffffffffffffffffffffffffffffffff021916908373ffffffffffffffffffffffffffffffffffffffff1602179055508073ffffffffffffffffffffffffffffffffffffffff168373ffffffffffffffffffffffffffffffffffffffff167f73fb3a739df7a607a2d4190be1c2d2beb0a1a1d66712602ace77dfa83381b73f60405160405180910390a3610c8581612cce565b50809150505b60015f81905550919050565b5f60095f60085f8573ffffffffffffffffffffffffffffffffffffffff1673ffffffffffffffffffffffffffffffffffffffff1681526020019081526020015f205f015f9054906101000a900473ffffffffffffffffffffffffffffffffffffffff1673ffffffffffffffffffffffffffffffffffffffff1673ffffffffffffffffffffffffffffffffffffffff1681526020019081526020015f206002015f9054906101000a900473ffffffffffffffffffffffffffffffffffffffff169050919050565b5f610daa84848080601f0160208091040260200160405190810160405280939291908181526020018383808284375f81840152601f19601f82011690508083019250505050505050613481565b610e5684848080601f0160208091040260200160405190810160405280939291908181526020018383808284375f81840152601f19601f8201169050808301925050505050505060095f8573ffffffffffffffffffffffffffffffffffffffff1673ffffffffffffffffffffffffffffffffffffffff1681526020019081526020015f206001015f9054906101000a900473ffffffffffffffffffffffffffffffffffffffff1661351a565b60095f8373ffffffffffffffffffffffffffffffffffffffff1673ffffffffffffffffffffffffffffffffffffffff1681526020019081526020015f206001015f9054906101000a900473ffffffffffffffffffffffffffffffffffffffff1690509392505050565b5f610f0c84848080601f0160208091040260200160405190810160405280939291908181526020018383808284375f81840152601f19601f82011690508083019250505050505050613481565b610f5560095f8473ffffffffffffffffffffffffffffffffffffffff1673ffffffffffffffffffffffffffffffffffffffff1681526020019081526020015f20600401546135b6565b60095f8373ffffffffffffffffffffffffffffffffffffffff1673ffffffffffffffffffffffffffffffffffffffff1681526020019081526020015f206004015490509392505050565b5f60015f5414610fe4576040517f08c379a0000000000000000000000000000000000000000000000000000000008152600401610fdb90615c69565b60405180910390fd5b60025f819055505f73ffffffffffffffffffffffffffffffffffffffff16600b5f8473ffffffffffffffffffffffffffffffffffffffff1673ffffffffffffffffffffffffffffffffffffffff1681526020019081526020015f205f9054906101000a900473ffffffffffffffffffffffffffffffffffffffff1673ffffffffffffffffffffffffffffffffffffffff16146110b5576040517f08c379a00000000000000000000000000000000000000000000000000000000081526004016110ac90615dc8565b60405180910390fd5b6110be82612cce565b905060015f81905550919050565b6110d461513a565b6110dd82612ac5565b9050919050565b5f61113184848080601f0160208091040260200160405190810160405280939291908181526020018383808284375f81840152601f19601f82011690508083019250505050505050613481565b61118f60095f8473ffffffffffffffffffffffffffffffffffffffff1673ffffffffffffffffffffffffffffffffffffffff1681526020019081526020015f205f0160069054906101000a900463ffffffff1663ffffffff166135b6565b60095f8373ffffffffffffffffffffffffffffffffffffffff1673ffffffffffffffffffffffffffffffffffffffff1681526020019081526020015f205f0160069054906101000a900463ffffffff1690509392505050565b5f5f5f5f6111f58561364f565b9050805f01601a9054906101000a900461ffff169350805f01601c9054906101000a900463ffffffff169250600361ffff168461ffff1614611237575f611295565b600b5f8673ffffffffffffffffffffffffffffffffffffffff1673ffffffffffffffffffffffffffffffffffffffff1681526020019081526020015f205f9054906101000a900473ffffffffffffffffffffffffffffffffffffffff165b9150509193909250565b5f6112ec84848080601f0160208091040260200160405190810160405280939291908181526020018383808284375f81840152601f19601f82011690508083019250505050505050613481565b61134b60095f8473ffffffffffffffffffffffffffffffffffffffff1673ffffffffffffffffffffffffffffffffffffffff1681526020019081526020015f205f015f9054906101000a900464ffffffffff1664ffffffffff166135b6565b60095f8373ffffffffffffffffffffffffffffffffffffffff1673ffffffffffffffffffffffffffffffffffffffff1681526020019081526020015f205f015f9054906101000a900464ffffffffff1690509392505050565b7f000000000000000000000000000000000000000000000000000000000000000081565b5f60095f8373ffffffffffffffffffffffffffffffffffffffff1673ffffffffffffffffffffffffffffffffffffffff1681526020019081526020015f206002015f9054906101000a900473ffffffffffffffffffffffffffffffffffffffff1690505f73ffffffffffffffffffffffffffffffffffffffff168173ffffffffffffffffffffffffffffffffffffffff1603611499576040517f08c379a000000000000000000000000000000000000000000000000000000000815260040161149090615e30565b60405180910390fd5b919050565b5f6114eb84848080601f0160208091040260200160405190810160405280939291908181526020018383808284375f81840152601f19601f82011690508083019250505050505050613481565b61156660095f8473ffffffffffffffffffffffffffffffffffffffff1673ffffffffffffffffffffffffffffffffffffffff1681526020019081526020015f20600301600e9054906101000a900471ffffffffffffffffffffffffffffffffffff1671ffffffffffffffffffffffffffffffffffff166135b6565b60095f8373ffffffffffffffffffffffffffffffffffffffff1673ffffffffffffffffffffffffffffffffffffffff1681526020019081526020015f20600301600e9054906101000a900471ffffffffffffffffffffffffffffffffffff1690509392505050565b60015f5414611612576040517f08c379a000000000000000000000000000000000000000000000000000000000815260040161160990615c69565b60405180910390fd5b60025f819055505f611622613765565b90505f61162f8285613773565b90505f73ffffffffffffffffffffffffffffffffffffffff1660085f8573ffffffffffffffffffffffffffffffffffffffff1673ffffffffffffffffffffffffffffffffffffffff1681526020019081526020015f205f015f9054906101000a900473ffffffffffffffffffffffffffffffffffffffff1673ffffffffffffffffffffffffffffffffffffffff16036116fd576040517f08c379a00000000000000000000000000000000000000000000000000000000081526004016116f490615e98565b60405180910390fd5b61170781846137c3565b505060015f819055505050565b5f60095f8373ffffffffffffffffffffffffffffffffffffffff1673ffffffffffffffffffffffffffffffffffffffff1681526020019081526020015f205f0160059054906101000a900460ff1690509392505050565b5f5f6117768361364f565b9050805f01600a9054906101000a9004600b0b915050919050565b61179961518d565b6117e586868080601f0160208091040260200160405190810160405280939291908181526020018383808284375f81840152601f19601f82011690508083019250505050505050613481565b5f836040516020016117f79190615fa0565b60405160208183030381529060405290505f8460405160200161181a919061603e565b60405160208183030381529060405290507feb8ba43ced7537421946bd43e828b8b2b8428927aa8f801c13d934bf11aca57b8260095f8973ffffffffffffffffffffffffffffffffffffffff1673ffffffffffffffffffffffffffffffffffffffff1681526020019081526020015f206005015f611898885f613773565b73ffffffffffffffffffffffffffffffffffffffff1673ffffffffffffffffffffffffffffffffffffffff1681526020019081526020015f205f015f9054906101000a90046dffffffffffffffffffffffffffff1660126040516118fe9392919061613a565b60405180910390a17feb8ba43ced7537421946bd43e828b8b2b8428927aa8f801c13d934bf11aca57b8160095f8973ffffffffffffffffffffffffffffffffffffffff1673ffffffffffffffffffffffffffffffffffffffff1681526020019081526020015f206005015f611973885f613773565b73ffffffffffffffffffffffffffffffffffffffff1673ffffffffffffffffffffffffffffffffffffffff1681526020019081526020015f205f01600e9054906101000a900471ffffffffffffffffffffffffffffffffffff16601b6040516119de939291906161df565b60405180910390a160095f8773ffffffffffffffffffffffffffffffffffffffff1673ffffffffffffffffffffffffffffffffffffffff1681526020019081526020015f206005015f611a31865f613773565b73ffffffffffffffffffffffffffffffffffffffff1673ffffffffffffffffffffffffffffffffffffffff1681526020019081526020015f206040518060600160405290815f82015f9054906101000a90046dffffffffffffffffffffffffffff166dffffffffffffffffffffffffffff166dffffffffffffffffffffffffffff1681526020015f8201600e9054906101000a900471ffffffffffffffffffffffffffffffffffff1671ffffffffffffffffffffffffffffffffffff1671ffffffffffffffffffffffffffffffffffff1681526020016001820154815250509250505095945050505050565b5f60085f8373ffffffffffffffffffffffffffffffffffffffff1673ffffffffffffffffffffffffffffffffffffffff1681526020019081526020015f205f015f9054906101000a900473ffffffffffffffffffffffffffffffffffffffff169050919050565b6060611b8f82613ae5565b9050919050565b611b9e61513a565b60085f8373ffffffffffffffffffffffffffffffffffffffff1673ffffffffffffffffffffffffffffffffffffffff1681526020019081526020015f206040518060a00160405290815f82015f9054906101000a900473ffffffffffffffffffffffffffffffffffffffff1673ffffffffffffffffffffffffffffffffffffffff1673ffffffffffffffffffffffffffffffffffffffff1681526020015f820160149054906101000a900460ff161515151581526020015f820160159054906101000a900463ffffffff1663ffffffff1663ffffffff1681526020015f820160199054906101000a900463ffffffff1663ffffffff1663ffffffff1681526020015f8201601d9054906101000a900462ffffff1662ffffff1662ffffff168152505090505f73ffffffffffffffffffffffffffffffffffffffff16815f015173ffffffffffffffffffffffffffffffffffffffff1603611d33576040517f08c379a0000000000000000000000000000000000000000000000000000000008152600401611d2a90615e98565b60405180910390fd5b919050565b5f611d8584848080601f0160208091040260200160405190810160405280939291908181526020018383808284375f81840152601f19601f82011690508083019250505050505050613481565b611df460095f8473ffffffffffffffffffffffffffffffffffffffff1673ffffffffffffffffffffffffffffffffffffffff1681526020019081526020015f2060010160149054906101000a90046bffffffffffffffffffffffff166bffffffffffffffffffffffff166135b6565b60095f8373ffffffffffffffffffffffffffffffffffffffff1673ffffffffffffffffffffffffffffffffffffffff1681526020019081526020015f2060010160149054906101000a90046bffffffffffffffffffffffff1690509392505050565b7f000000000000000000000000000000000000000000000000000000000000000081565b5f611ec784848080601f0160208091040260200160405190810160405280939291908181526020018383808284375f81840152601f19601f82011690508083019250505050505050613481565b611f3960095f8473ffffffffffffffffffffffffffffffffffffffff1673ffffffffffffffffffffffffffffffffffffffff1681526020019081526020015f206003015f9054906101000a90046dffffffffffffffffffffffffffff166dffffffffffffffffffffffffffff166135b6565b60095f8373ffffffffffffffffffffffffffffffffffffffff1673ffffffffffffffffffffffffffffffffffffffff1681526020019081526020015f206003015f9054906101000a90046dffffffffffffffffffffffffffff1690509392505050565b5f600d5f8373ffffffffffffffffffffffffffffffffffffffff1673ffffffffffffffffffffffffffffffffffffffff1681526020019081526020015f205f9054906101000a900473ffffffffffffffffffffffffffffffffffffffff169050919050565b5f5f61200c8361364f565b9050805f0160069054906101000a900463ffffffff1663ffffffff16915050919050565b5f5f61203b8361364f565b905063ffffffff8016815f0160169054906101000a900463ffffffff1663ffffffff161461207c57805f0160169054906101000a900463ffffffff16612082565b6336d616005b915050919050565b5f60095f8373ffffffffffffffffffffffffffffffffffffffff1673ffffffffffffffffffffffffffffffffffffffff1681526020019081526020015f206001015f9054906101000a900473ffffffffffffffffffffffffffffffffffffffff1690505f73ffffffffffffffffffffffffffffffffffffffff168173ffffffffffffffffffffffffffffffffffffffff160361215b576040517f08c379a000000000000000000000000000000000000000000000000000000000815260040161215290615e30565b60405180910390fd5b919050565b5f5f61216b8361364f565b90505f6121788483613d47565b9050806080015192505050919050565b5f6121d584848080601f0160208091040260200160405190810160405280939291908181526020018383808284375f81840152601f19601f82011690508083019250505050505050613481565b61223360095f8473ffffffffffffffffffffffffffffffffffffffff1673ffffffffffffffffffffffffffffffffffffffff1681526020019081526020015f205f01601c9054906101000a900463ffffffff1663ffffffff166135b6565b60095f8373ffffffffffffffffffffffffffffffffffffffff1673ffffffffffffffffffffffffffffffffffffffff1681526020019081526020015f205f01601c9054906101000a900463ffffffff1690509392505050565b5f5f600a5f8473ffffffffffffffffffffffffffffffffffffffff1673ffffffffffffffffffffffffffffffffffffffff1681526020019081526020015f205f9054906101000a900473ffffffffffffffffffffffffffffffffffffffff1690505f73ffffffffffffffffffffffffffffffffffffffff168173ffffffffffffffffffffffffffffffffffffffff160361235b576040517f08c379a000000000000000000000000000000000000000000000000000000000815260040161235290616265565b60405180910390fd5b60095f8273ffffffffffffffffffffffffffffffffffffffff1673ffffffffffffffffffffffffffffffffffffffff1681526020019081526020015f206001015f9054906101000a900473ffffffffffffffffffffffffffffffffffffffff16915050919050565b5f6123cd83613481565b61242560095f8473ffffffffffffffffffffffffffffffffffffffff1673ffffffffffffffffffffffffffffffffffffffff1681526020019081526020015f205f01600a9054906101000a9004600b0b600b0b613da5565b60095f8373ffffffffffffffffffffffffffffffffffffffff1673ffffffffffffffffffffffffffffffffffffffff1681526020019081526020015f205f01600a9054906101000a9004600b0b905092915050565b60015f54146124be576040517f08c379a00000000000000000000000000000000000000000000000000000000081526004016124b590615c69565b60405180910390fd5b60025f819055505f6124ce613765565b90505f6124db8285613773565b90505f6124e784612ac5565b90505f60095f835f015173ffffffffffffffffffffffffffffffffffffffff1673ffffffffffffffffffffffffffffffffffffffff1681526020019081526020015f2090505f816005015f8573ffffffffffffffffffffffffffffffffffffffff1673ffffffffffffffffffffffffffffffffffffffff1681526020019081526020015f205f015f9054906101000a90046dffffffffffffffffffffffffffff166dffffffffffffffffffffffffffff1690505f826005015f8673ffffffffffffffffffffffffffffffffffffffff1673ffffffffffffffffffffffffffffffffffffffff1681526020019081526020015f205f01600e9054906101000a900471ffffffffffffffffffffffffffffffffffff1671ffffffffffffffffffffffffffffffffffff1690505f8114612653576040517f08c379a000000000000000000000000000000000000000000000000000000000815260040161264a906162cd565b60405180910390fd5b61265d8588613e3e565b5f846040015163ffffffff161415801561267757505f8214155b156126865761268585614247565b5b50505050505060015f819055505050565b5f6126e484848080601f0160208091040260200160405190810160405280939291908181526020018383808284375f81840152601f19601f82011690508083019250505050505050613481565b61274c60095f8473ffffffffffffffffffffffffffffffffffffffff1673ffffffffffffffffffffffffffffffffffffffff1681526020019081526020015f206002015f9054906101000a900473ffffffffffffffffffffffffffffffffffffffff16614397565b60095f8373ffffffffffffffffffffffffffffffffffffffff1673ffffffffffffffffffffffffffffffffffffffff1681526020019081526020015f206002015f9054906101000a900473ffffffffffffffffffffffffffffffffffffffff1690509392505050565b6127bd6151cf565b5f612840620f42406337fe974a60e01b856040516024016127de91906153a8565b604051602081830303815290604052907bffffffffffffffffffffffffffffffffffffffffffffffffffffffff19166020820180517bffffffffffffffffffffffffffffffffffffffffffffffffffffffff8381831617835250505050614430565b90508080602001905181019061285691906163a2565b915050919050565b5f6128ab84848080601f0160208091040260200160405190810160405280939291908181526020018383808284375f81840152601f19601f82011690508083019250505050505050613481565b61290560095f8473ffffffffffffffffffffffffffffffffffffffff1673ffffffffffffffffffffffffffffffffffffffff1681526020019081526020015f205f01601a9054906101000a900461ffff1661ffff166135b6565b60095f8373ffffffffffffffffffffffffffffffffffffffff1673ffffffffffffffffffffffffffffffffffffffff1681526020019081526020015f205f01601a9054906101000a900461ffff1690509392505050565b5f6129a984848080601f0160208091040260200160405190810160405280939291908181526020018383808284375f81840152601f19601f82011690508083019250505050505050613481565b612a0760095f8473ffffffffffffffffffffffffffffffffffffffff1673ffffffffffffffffffffffffffffffffffffffff1681526020019081526020015f205f0160169054906101000a900463ffffffff1663ffffffff166135b6565b60095f8373ffffffffffffffffffffffffffffffffffffffff1673ffffffffffffffffffffffffffffffffffffffff1681526020019081526020015f205f0160169054906101000a900463ffffffff1690509392505050565b5f600c5f8373ffffffffffffffffffffffffffffffffffffffff1673ffffffffffffffffffffffffffffffffffffffff1681526020019081526020015f205f9054906101000a900473ffffffffffffffffffffffffffffffffffffffff169050919050565b612acd61513a565b5f60085f8473ffffffffffffffffffffffffffffffffffffffff1673ffffffffffffffffffffffffffffffffffffffff1681526020019081526020015f206040518060a00160405290815f82015f9054906101000a900473ffffffffffffffffffffffffffffffffffffffff1673ffffffffffffffffffffffffffffffffffffffff1673ffffffffffffffffffffffffffffffffffffffff1681526020015f820160149054906101000a900460ff161515151581526020015f820160159054906101000a900463ffffffff1663ffffffff1663ffffffff1681526020015f820160199054906101000a900463ffffffff1663ffffffff1663ffffffff1681526020015f8201601d9054906101000a900462ffffff1662ffffff1662ffffff168152505090505f73ffffffffffffffffffffffffffffffffffffffff16815f015173ffffffffffffffffffffffffffffffffffffffff1603612c63576040517f08c379a0000000000000000000000000000000000000000000000000000000008152600401612c5a90615e98565b60405180910390fd5b63ffffffff8016816060015163ffffffff1603612c97576342c1d800816060019063ffffffff16908163ffffffff16815250505b62ffffff8016816080015162ffffff1603612cc557610708816080019062ffffff16908162ffffff16815250505b80915050919050565b5f5f73ffffffffffffffffffffffffffffffffffffffff1660085f8473ffffffffffffffffffffffffffffffffffffffff1673ffffffffffffffffffffffffffffffffffffffff1681526020019081526020015f205f015f9054906101000a900473ffffffffffffffffffffffffffffffffffffffff1673ffffffffffffffffffffffffffffffffffffffff1614612dc65760085f8373ffffffffffffffffffffffffffffffffffffffff1673ffffffffffffffffffffffffffffffffffffffff1681526020019081526020015f205f015f9054906101000a900473ffffffffffffffffffffffffffffffffffffffff16905061347c565b5f60055f8473ffffffffffffffffffffffffffffffffffffffff1673ffffffffffffffffffffffffffffffffffffffff1681526020019081526020015f205f015f9054906101000a900463ffffffff1663ffffffff16148015612e5557503073ffffffffffffffffffffffffffffffffffffffff168273ffffffffffffffffffffffffffffffffffffffff1614155b612e94576040517f08c379a0000000000000000000000000000000000000000000000000000000008152600401612e8b90615dc8565b60405180910390fd5b5f8273ffffffffffffffffffffffffffffffffffffffff1663313ce5676040518163ffffffff1660e01b8152600401602060405180830381865afa158015612ede573d5f5f3e3d5ffd5b505050506040513d601f19601f82011682018060405250810190612f0291906163f7565b905060128160ff161115612f4b576040517f08c379a0000000000000000000000000000000000000000000000000000000008152600401612f429061646c565b60405180910390fd5b612f536151f5565b5f612fd6620f4240638eddcd9260e01b87604051602401612f7491906153a8565b604051602081830303815290604052907bffffffffffffffffffffffffffffffffffffffffffffffffffffffff19166020820180517bffffffffffffffffffffffffffffffffffffffffffffffffffffffff8381831617835250505050614430565b905080806020019051810190612fec9190616606565b9150505f612ffc6207a1206144e5565b82604001515f019073ffffffffffffffffffffffffffffffffffffffff16908173ffffffffffffffffffffffffffffffffffffffff1681525090505f6130446207a1216144e5565b9050826040015160085f8873ffffffffffffffffffffffffffffffffffffffff1673ffffffffffffffffffffffffffffffffffffffff1681526020019081526020015f205f820151815f015f6101000a81548173ffffffffffffffffffffffffffffffffffffffff021916908373ffffffffffffffffffffffffffffffffffffffff1602179055506020820151815f0160146101000a81548160ff0219169083151502179055506040820151815f0160156101000a81548163ffffffff021916908363ffffffff1602179055506060820151815f0160196101000a81548163ffffffff021916908363ffffffff1602179055506080820151815f01601d6101000a81548162ffffff021916908362ffffff16021790555090505081600a5f8373ffffffffffffffffffffffffffffffffffffffff1673ffffffffffffffffffffffffffffffffffffffff1681526020019081526020015f205f6101000a81548173ffffffffffffffffffffffffffffffffffffffff021916908373ffffffffffffffffffffffffffffffffffffffff1602179055505f60095f8473ffffffffffffffffffffffffffffffffffffffff1673ffffffffffffffffffffffffffffffffffffffff1681526020019081526020015f20905086816001015f6101000a81548173ffffffffffffffffffffffffffffffffffffffff021916908373ffffffffffffffffffffffffffffffffffffffff160217905550835f0151815f01601a6101000a81548161ffff021916908361ffff1602179055508360200151815f01601c6101000a81548163ffffffff021916908363ffffffff16021790555081816002015f6101000a81548173ffffffffffffffffffffffffffffffffffffffff021916908373ffffffffffffffffffffffffffffffffffffffff16021790555042815f015f6101000a81548164ffffffffff021916908364ffffffffff16021790555084815f0160056101000a81548160ff021916908360ff160217905550621e8480815f0160066101000a81548163ffffffff021916908363ffffffff16021790555063ffffffff815f0160166101000a81548163ffffffff021916908363ffffffff16021790555061337a620f42406147bf565b8160010160146101000a8154816bffffffffffffffffffffffff02191690836bffffffffffffffffffffffff1602179055506133b8620f4240614819565b816003015f6101000a8154816dffffffffffffffffffffffffffff02191690836dffffffffffffffffffffffffffff1602179055506b033b2e3c9fd0803ce800000081600401819055508173ffffffffffffffffffffffffffffffffffffffff168373ffffffffffffffffffffffffffffffffffffffff168873ffffffffffffffffffffffffffffffffffffffff167f2ece124509c63be11a6985ae00b93c8cb8f8d8898f6e5239fc9e38bc7190966760405160405180910390a482955050505050505b919050565b613517816040516024016134959190616631565b6040516020818303038152906040527f41304fac000000000000000000000000000000000000000000000000000000007bffffffffffffffffffffffffffffffffffffffffffffffffffffffff19166020820180517bffffffffffffffffffffffffffffffffffffffffffffffffffffffff8381831617835250505050614875565b50565b6135b28282604051602401613530929190616651565b6040516020818303038152906040527f319af333000000000000000000000000000000000000000000000000000000007bffffffffffffffffffffffffffffffffffffffffffffffffffffffff19166020820180517bffffffffffffffffffffffffffffffffffffffffffffffffffffffff8381831617835250505050614875565b5050565b61364c816040516024016135ca9190615497565b6040516020818303038152906040527ff5b1bba9000000000000000000000000000000000000000000000000000000007bffffffffffffffffffffffffffffffffffffffffffffffffffffffff19166020820180517bffffffffffffffffffffffffffffffffffffffffffffffffffffffff8381831617835250505050614875565b50565b5f5f60085f8473ffffffffffffffffffffffffffffffffffffffff1673ffffffffffffffffffffffffffffffffffffffff1681526020019081526020015f205f015f9054906101000a900473ffffffffffffffffffffffffffffffffffffffff1690505f73ffffffffffffffffffffffffffffffffffffffff168173ffffffffffffffffffffffffffffffffffffffff1603613720576040517f08c379a000000000000000000000000000000000000000000000000000000000815260040161371790615e98565b60405180910390fd5b60095f8273ffffffffffffffffffffffffffffffffffffffff1673ffffffffffffffffffffffffffffffffffffffff1681526020019081526020015f20915050919050565b5f602836033560601c905090565b5f61010082106137b8576040517f08c379a00000000000000000000000000000000000000000000000000000000081526004016137af906166c9565b60405180910390fd5b818318905092915050565b5f60065f8473ffffffffffffffffffffffffffffffffffffffff1673ffffffffffffffffffffffffffffffffffffffff1681526020019081526020015f2090505f815f0160069054906101000a900463ffffffff1690505f60075f8673ffffffffffffffffffffffffffffffffffffffff1673ffffffffffffffffffffffffffffffffffffffff1681526020019081526020015f2090505f8263ffffffff161461395b578373ffffffffffffffffffffffffffffffffffffffff16835f01600a9054906101000a900473ffffffffffffffffffffffffffffffffffffffff1673ffffffffffffffffffffffffffffffffffffffff16036138c557505050613ae1565b5f600190505b8263ffffffff16811015613959578473ffffffffffffffffffffffffffffffffffffffff1682826401000000008110613907576139066166e7565b5b015f9054906101000a900473ffffffffffffffffffffffffffffffffffffffff1673ffffffffffffffffffffffffffffffffffffffff160361394c5750505050613ae1565b80806001019150506138cb565b505b600a8263ffffffff16106139a4576040517f08c379a000000000000000000000000000000000000000000000000000000000815260040161399b9061675e565b60405180910390fd5b5f8263ffffffff16036139f85783835f01600a6101000a81548173ffffffffffffffffffffffffffffffffffffffff021916908373ffffffffffffffffffffffffffffffffffffffff160217905550613a55565b83818363ffffffff166401000000008110613a1657613a156166e7565b5b015f6101000a81548173ffffffffffffffffffffffffffffffffffffffff021916908373ffffffffffffffffffffffffffffffffffffffff1602179055505b600182613a6291906167a9565b835f0160066101000a81548163ffffffff021916908363ffffffff1602179055508473ffffffffffffffffffffffffffffffffffffffff168473ffffffffffffffffffffffffffffffffffffffff167f1c0971b8e0f7bb4e90bdbd87cfe682c36c383e2fc3dc4716ecc02771186293cc60405160405180910390a35050505b5050565b60605f60065f8473ffffffffffffffffffffffffffffffffffffffff1673ffffffffffffffffffffffffffffffffffffffff1681526020019081526020015f205f0160069054906101000a900463ffffffff1690505f60065f8573ffffffffffffffffffffffffffffffffffffffff1673ffffffffffffffffffffffffffffffffffffffff1681526020019081526020015f205f01600a9054906101000a900473ffffffffffffffffffffffffffffffffffffffff1690505f8263ffffffff1667ffffffffffffffff811115613bbe57613bbd61579e565b5b604051908082528060200260200182016040528015613bec5781602001602082028036833780820191505090505b5090505f8363ffffffff1603613c0757809350505050613d42565b5f60075f8773ffffffffffffffffffffffffffffffffffffffff1673ffffffffffffffffffffffffffffffffffffffff1681526020019081526020015f20905082825f81518110613c5b57613c5a6166e7565b5b602002602001019073ffffffffffffffffffffffffffffffffffffffff16908173ffffffffffffffffffffffffffffffffffffffff16815250505f600190505b8463ffffffff16811015613d395781816401000000008110613cc057613cbf6166e7565b5b015f9054906101000a900473ffffffffffffffffffffffffffffffffffffffff16838281518110613cf457613cf36166e7565b5b602002602001019073ffffffffffffffffffffffffffffffffffffffff16908173ffffffffffffffffffffffffffffffffffffffff1681525050806001019050613c9b565b50819450505050505b919050565b613d4f615224565b60015f5414613d93576040517f08c379a0000000000000000000000000000000000000000000000000000000008152600401613d8a9061682a565b60405180910390fd5b613d9e83838361489b565b5092915050565b613e3b81604051602401613db99190616860565b6040516020818303038152906040527f4e0c1d1d000000000000000000000000000000000000000000000000000000007bffffffffffffffffffffffffffffffffffffffffffffffffffffffff19166020820180517bffffffffffffffffffffffffffffffffffffffffffffffffffffffff8381831617835250505050614875565b50565b5f60065f8473ffffffffffffffffffffffffffffffffffffffff1673ffffffffffffffffffffffffffffffffffffffff1681526020019081526020015f2090505f815f0160069054906101000a900463ffffffff1690505f60075f8673ffffffffffffffffffffffffffffffffffffffff1673ffffffffffffffffffffffffffffffffffffffff1681526020019081526020015f2090505f7fffffffffffffffffffffffffffffffffffffffffffffffffffffffffffffffff90505f8363ffffffff1603613f0f5750505050614243565b8473ffffffffffffffffffffffffffffffffffffffff16845f01600a9054906101000a900473ffffffffffffffffffffffffffffffffffffffff1673ffffffffffffffffffffffffffffffffffffffff1603613f6d575f9050614032565b5f600190505b8363ffffffff16811015614000578573ffffffffffffffffffffffffffffffffffffffff1683826401000000008110613faf57613fae6166e7565b5b015f9054906101000a900473ffffffffffffffffffffffffffffffffffffffff1673ffffffffffffffffffffffffffffffffffffffff1603613ff357809150614000565b8080600101915050613f73565b507fffffffffffffffffffffffffffffffffffffffffffffffffffffffffffffffff81036140315750505050614243565b5b5f6001846140409190616879565b63ffffffff169050808214614163575f82036140d4578281640100000000811061406d5761406c6166e7565b5b015f9054906101000a900473ffffffffffffffffffffffffffffffffffffffff16855f01600a6101000a81548173ffffffffffffffffffffffffffffffffffffffff021916908373ffffffffffffffffffffffffffffffffffffffff160217905550614162565b828164010000000081106140eb576140ea6166e7565b5b015f9054906101000a900473ffffffffffffffffffffffffffffffffffffffff1683836401000000008110614123576141226166e7565b5b015f6101000a81548173ffffffffffffffffffffffffffffffffffffffff021916908373ffffffffffffffffffffffffffffffffffffffff1602179055505b5b80855f0160066101000a81548163ffffffff021916908363ffffffff1602179055505f81146141e3575f838264010000000081106141a4576141a36166e7565b5b015f6101000a81548173ffffffffffffffffffffffffffffffffffffffff021916908373ffffffffffffffffffffffffffffffffffffffff1602179055505b8673ffffffffffffffffffffffffffffffffffffffff168673ffffffffffffffffffffffffffffffffffffffff167f7a35d9c64b6bcbe8e9104e3f481fb44a765d4b2a54cfa1c2d434a46c69f0418960405160405180910390a350505050505b5050565b5f60065f8373ffffffffffffffffffffffffffffffffffffffff1673ffffffffffffffffffffffffffffffffffffffff1681526020019081526020015f205f015f9054906101000a900460ff1690505f60ff168160ff160361432b57614325620f424063c39b543a60e01b846040516024016142c391906153a8565b604051602081830303815290604052907bffffffffffffffffffffffffffffffffffffffffffffffffffffffff19166020820180517bffffffffffffffffffffffffffffffffffffffffffffffffffffffff8381831617835250505050614430565b50614393565b600160ff168160ff160361439257600260065f8473ffffffffffffffffffffffffffffffffffffffff1673ffffffffffffffffffffffffffffffffffffffff1681526020019081526020015f205f015f6101000a81548160ff021916908360ff1602179055505b5b5050565b61442d816040516024016143ab91906153a8565b6040516020818303038152906040527f2c2ecbc2000000000000000000000000000000000000000000000000000000007bffffffffffffffffffffffffffffffffffffffffffffffffffffffff19166020820180517bffffffffffffffffffffffffffffffffffffffffffffffffffffffff8381831617835250505050614875565b50565b60605f5f60035f8681526020019081526020015f205f9054906101000a900473ffffffffffffffffffffffffffffffffffffffff1673ffffffffffffffffffffffffffffffffffffffff168460405161448991906168f4565b5f60405180830381855af49150503d805f81146144c1576040519150601f19603f3d011682016040523d82523d5f602084013e6144c6565b606091505b5091509150816144da576144d981614e96565b5b809250505092915050565b5f5f8203614528576040517f08c379a000000000000000000000000000000000000000000000000000000000815260040161451f90616954565b60405180910390fd5b620f423f82111561456e576040517f08c379a0000000000000000000000000000000000000000000000000000000008152600401614565906169bc565b60405180910390fd5b5f73ffffffffffffffffffffffffffffffffffffffff1660045f8481526020019081526020015f205f9054906101000a900473ffffffffffffffffffffffffffffffffffffffff1673ffffffffffffffffffffffffffffffffffffffff16146146095760045f8381526020019081526020015f205f9054906101000a900473ffffffffffffffffffffffffffffffffffffffff1690506147ba565b5f604051614616906152f6565b604051809103905ff08015801561462f573d5f5f3e3d5ffd5b5090506207a11f831161468c578060045f8581526020019081526020015f205f6101000a81548173ffffffffffffffffffffffffffffffffffffffff021916908373ffffffffffffffffffffffffffffffffffffffff1602179055505b60405180604001604052808463ffffffff1681526020015f73ffffffffffffffffffffffffffffffffffffffff1681525060055f8373ffffffffffffffffffffffffffffffffffffffff1673ffffffffffffffffffffffffffffffffffffffff1681526020019081526020015f205f820151815f015f6101000a81548163ffffffff021916908363ffffffff1602179055506020820151815f0160046101000a81548173ffffffffffffffffffffffffffffffffffffffff021916908373ffffffffffffffffffffffffffffffffffffffff1602179055509050508073ffffffffffffffffffffffffffffffffffffffff167f6c6ffd7df9a0cfaa14ee2cf752003968de6c340564276242aa48ca641b09bce4846040516147ad9190615497565b60405180910390a2809150505b919050565b5f6bffffffffffffffffffffffff8016821115614811576040517f08c379a000000000000000000000000000000000000000000000000000000000815260040161480890616a4a565b60405180910390fd5b819050919050565b5f6dffffffffffffffffffffffffffff801682111561486d576040517f08c379a000000000000000000000000000000000000000000000000000000000815260040161486490616ab2565b60405180910390fd5b819050919050565b5f815190505f6a636f6e736f6c652e6c6f679050602083015f5f8483855afa5050505050565b5f5f905083825f019073ffffffffffffffffffffffffffffffffffffffff16908173ffffffffffffffffffffffffffffffffffffffff1681525050825f015f9054906101000a900464ffffffffff168260a0019064ffffffffff16908164ffffffffff16815250505f835f0160059054906101000a900460ff168360c0019060ff16908160ff168152509050835f0160069054906101000a900463ffffffff168360e0019063ffffffff16908163ffffffff1681525050835f01600a9054906101000a9004600b0b836101000190600b0b9081600b0b81525050835f0160169054906101000a900463ffffffff1683610120019063ffffffff16908163ffffffff1681525050835f01601a9054906101000a900461ffff1683610140019061ffff16908161ffff1681525050835f01601c9054906101000a900463ffffffff1683610160019063ffffffff16908163ffffffff16815250508360010160149054906101000a90046bffffffffffffffffffffffff1683606001906bffffffffffffffffffffffff1690816bffffffffffffffffffffffff1681525050836003015f9054906101000a90046dffffffffffffffffffffffffffff1683602001906dffffffffffffffffffffffffffff1690816dffffffffffffffffffffffffffff168152505083600301600e9054906101000a900471ffffffffffffffffffffffffffffffffffff16836040019071ffffffffffffffffffffffffffffffffffff16908171ffffffffffffffffffffffffffffffffffff168152505083600401548360800181815250508060120360ff16600a0a836101a0018181525050826101a001516dffffffffffffffffffffffffffff801681614b1d57614b1c616ad0565b5b04836101c00181815250505f614b338430614ee2565b9050836101c001518111614b5857836101a00151810284610180018181525050614b64565b5f846101800181815250505b8360a0015164ffffffffff164214614e8d57600192505f8460a0015164ffffffffff1642614b929190616afd565b90505f6b033b2e3c9fd0803ce80000008660800151614bdd6b033b2e3c9fd0803ce8000000896101000151600b0b614bca9190616b30565b856b033b2e3c9fd0803ce8000000615010565b614be79190616b71565b614bf19190616bb2565b90505f866080015182886040015171ffffffffffffffffffffffffffffffffffff16614c1d9190616b71565b614c279190616bb2565b90505f87606001516bffffffffffffffffffffffff1690505f88602001516dffffffffffffffffffffffffffff1690505f633b9aca0063ee6b2800614c6c9190616b71565b63ffffffff80168b610120015163ffffffff1614614c8f578a6101200151614c95565b6336d616005b63ffffffff168b6040015171ffffffffffffffffffffffffffffffffffff1686614cbf9190616afd565b614cc99190616b71565b614cd39190616bb2565b90505f8114614d52575f633b9aca0085614ced9190616bb2565b8b6101800151614cfd9190616be2565b90508181614d0b9190616afd565b8382614d179190616b71565b614d219190616bb2565b92508a602001516dffffffffffffffffffffffffffff1683614d439190616afd565b84614d4e9190616be2565b9350505b6dffffffffffffffffffffffffffff80168211158015614d86575071ffffffffffffffffffffffffffffffffffff80168411155b8015614da057506bffffffffffffffffffffffff80168311155b15614e8657614dae846150cd565b8a6040019071ffffffffffffffffffffffffffffffffffff16908171ffffffffffffffffffffffffffffffffffff1681525050848a6080018181525050428a60a0019064ffffffffff16908164ffffffffff168152505089602001516dffffffffffffffffffffffffffff168214614e8557614e29836147bf565b8a606001906bffffffffffffffffffffffff1690816bffffffffffffffffffffffff1681525050614e5982614819565b8a602001906dffffffffffffffffffffffffffff1690816dffffffffffffffffffffffffffff16815250505b5b5050505050505b50509392505050565b5f81511115614ea757805181602001fd5b6040517f08c379a0000000000000000000000000000000000000000000000000000000008152600401614ed990616c5f565b60405180910390fd5b5f5f60405190505f5f855f015173ffffffffffffffffffffffffffffffffffffffff1662030d406370a0823160e01b87604051602401614f2291906153a8565b604051602081830303815290604052907bffffffffffffffffffffffffffffffffffffffffffffffffffffffff19166020820180517bffffffffffffffffffffffffffffffffffffffffffffffffffffffff8381831617835250505050604051614f8c91906168f4565b5f604051808303818686fa925050503d805f8114614fc5576040519150601f19603f3d011682016040523d82523d5f602084013e614fca565b606091505b5091509150811580614fdd575060208151105b15614fec575f93505050615005565b808060200190518101906150009190616c7d565b935050505b806040525092915050565b5f835f81146150af57600284065f811461502c57859250615030565b8392505b50600283046002850494505b84156150a9578586028687820414615052575f5ffd5b81810181811015615061575f5ffd5b8581049750600287061561509c578785028589820414158915151615615085575f5ffd5b83810181811015615094575f5ffd5b878104965050505b505060028504945061503c565b506150c5565b835f81146150bf575f92506150c3565b8392505b505b509392505050565b5f71ffffffffffffffffffffffffffffffffffff8016821115615125576040517f08c379a000000000000000000000000000000000000000000000000000000000815260040161511c90616d18565b60405180910390fd5b819050919050565b611da280616d3783390190565b6040518060a001604052805f73ffffffffffffffffffffffffffffffffffffffff1681526020015f151581526020015f63ffffffff1681526020015f63ffffffff1681526020015f62ffffff1681525090565b60405180606001604052805f6dffffffffffffffffffffffffffff1681526020015f71ffffffffffffffffffffffffffffffffffff1681526020015f81525090565b60405180608001604052805f81526020015f81526020015f81526020015f151581525090565b60405180606001604052805f61ffff1681526020015f63ffffffff16815260200161521e61513a565b81525090565b604051806101e001604052805f73ffffffffffffffffffffffffffffffffffffffff1681526020015f6dffffffffffffffffffffffffffff1681526020015f71ffffffffffffffffffffffffffffffffffff1681526020015f6bffffffffffffffffffffffff1681526020015f81526020015f64ffffffffff1681526020015f60ff1681526020015f63ffffffff1681526020015f600b0b81526020015f63ffffffff1681526020015f61ffff1681526020015f63ffffffff1681526020015f81526020015f81526020015f81525090565b6101d680618ad983390190565b5f604051905090565b5f5ffd5b5f5ffd5b5f73ffffffffffffffffffffffffffffffffffffffff82169050919050565b5f61533d82615314565b9050919050565b61534d81615333565b8114615357575f5ffd5b50565b5f8135905061536881615344565b92915050565b5f602082840312156153835761538261530c565b5b5f6153908482850161535a565b91505092915050565b6153a281615333565b82525050565b5f6020820190506153bb5f830184615399565b92915050565b5f5ffd5b5f5ffd5b5f5ffd5b5f5f83601f8401126153e2576153e16153c1565b5b8235905067ffffffffffffffff8111156153ff576153fe6153c5565b5b60208301915083600182028301111561541b5761541a6153c9565b5b9250929050565b5f5f5f604084860312156154395761543861530c565b5b5f84013567ffffffffffffffff81111561545657615455615310565b5b615462868287016153cd565b935093505060206154758682870161535a565b9150509250925092565b5f819050919050565b6154918161547f565b82525050565b5f6020820190506154aa5f830184615488565b92915050565b6154b981615333565b82525050565b5f8115159050919050565b6154d3816154bf565b82525050565b5f63ffffffff82169050919050565b6154f1816154d9565b82525050565b5f62ffffff82169050919050565b61550e816154f7565b82525050565b60a082015f8201516155285f8501826154b0565b50602082015161553b60208501826154ca565b50604082015161554e60408501826154e8565b50606082015161556160608501826154e8565b5060808201516155746080850182615505565b50505050565b5f60a08201905061558d5f830184615514565b92915050565b61559c816154d9565b82525050565b5f6020820190506155b55f830184615593565b92915050565b5f61ffff82169050919050565b6155d1816155bb565b82525050565b5f6060820190506155ea5f8301866155c8565b6155f76020830185615593565b6156046040830184615399565b949350505050565b5f64ffffffffff82169050919050565b6156258161560c565b82525050565b5f60208201905061563e5f83018461561c565b92915050565b5f819050919050565b61565681615644565b82525050565b5f60208201905061566f5f83018461564d565b92915050565b5f71ffffffffffffffffffffffffffffffffffff82169050919050565b61569b81615675565b82525050565b5f6020820190506156b45f830184615692565b92915050565b6156c38161547f565b81146156cd575f5ffd5b50565b5f813590506156de816156ba565b92915050565b5f5f604083850312156156fa576156f961530c565b5b5f615707858286016156d0565b92505060206157188582860161535a565b9150509250929050565b5f60ff82169050919050565b61573781615722565b82525050565b5f6020820190506157505f83018461572e565b92915050565b5f81600b0b9050919050565b61576b81615756565b82525050565b5f6020820190506157845f830184615762565b92915050565b5f5ffd5b5f601f19601f8301169050919050565b7f4e487b71000000000000000000000000000000000000000000000000000000005f52604160045260245ffd5b6157d48261578e565b810181811067ffffffffffffffff821117156157f3576157f261579e565b5b80604052505050565b5f615805615303565b905061581182826157cb565b919050565b5f67ffffffffffffffff8211156158305761582f61579e565b5b6158398261578e565b9050602081019050919050565b828183375f83830152505050565b5f61586661586184615816565b6157fc565b9050828152602081018484840111156158825761588161578a565b5b61588d848285615846565b509392505050565b5f82601f8301126158a9576158a86153c1565b5b81356158b9848260208601615854565b91505092915050565b5f5f5f5f5f608086880312156158db576158da61530c565b5b5f86013567ffffffffffffffff8111156158f8576158f7615310565b5b615904888289016153cd565b955095505060206159178882890161535a565b935050604086013567ffffffffffffffff81111561593857615937615310565b5b61594488828901615895565b92505060606159558882890161535a565b9150509295509295909350565b5f6dffffffffffffffffffffffffffff82169050919050565b61598481615962565b82525050565b61599381615675565b82525050565b6159a28161547f565b82525050565b606082015f8201516159bc5f85018261597b565b5060208201516159cf602085018261598a565b5060408201516159e26040850182615999565b50505050565b5f6060820190506159fb5f8301846159a8565b92915050565b5f81519050919050565b5f82825260208201905092915050565b5f819050602082019050919050565b5f615a3583836154b0565b60208301905092915050565b5f602082019050919050565b5f615a5782615a01565b615a618185615a0b565b9350615a6c83615a1b565b805f5b83811015615a9c578151615a838882615a2a565b9750615a8e83615a41565b925050600181019050615a6f565b5085935050505092915050565b5f6020820190508181035f830152615ac18184615a4d565b905092915050565b5f6bffffffffffffffffffffffff82169050919050565b615ae981615ac9565b82525050565b5f602082019050615b025f830184615ae0565b92915050565b615b1181615962565b82525050565b5f602082019050615b2a5f830184615b08565b92915050565b5f5f60408385031215615b4657615b4561530c565b5b5f83013567ffffffffffffffff811115615b6357615b62615310565b5b615b6f85828601615895565b9250506020615b808582860161535a565b9150509250929050565b608082015f820151615b9e5f850182615999565b506020820151615bb16020850182615999565b506040820151615bc46040850182615999565b506060820151615bd760608501826154ca565b50505050565b5f608082019050615bf05f830184615b8a565b92915050565b5f602082019050615c095f8301846155c8565b92915050565b5f82825260208201905092915050565b7f652f7265656e7472616e637900000000000000000000000000000000000000005f82015250565b5f615c53600c83615c0f565b9150615c5e82615c1f565b602082019050919050565b5f6020820190508181035f830152615c8081615c47565b9050919050565b7f652f6e65737465642d70746f6b656e00000000000000000000000000000000005f82015250565b5f615cbb600f83615c0f565b9150615cc682615c87565b602082019050919050565b5f6020820190508181035f830152615ce881615caf565b9050919050565b7f652f70746f6b656e2f6e6f742d636f6c6c61746572616c0000000000000000005f82015250565b5f615d23601783615c0f565b9150615d2e82615cef565b602082019050919050565b5f6020820190508181035f830152615d5081615d17565b9050919050565b5f604082019050615d6a5f830185615399565b615d776020830184615399565b9392505050565b7f652f6d61726b6574732f696e76616c69642d746f6b656e0000000000000000005f82015250565b5f615db2601783615c0f565b9150615dbd82615d7e565b602082019050919050565b5f6020820190508181035f830152615ddf81615da6565b9050919050565b7f652f696e76616c69642d65746f6b656e000000000000000000000000000000005f82015250565b5f615e1a601083615c0f565b9150615e2582615de6565b602082019050919050565b5f6020820190508181035f830152615e4781615e0e565b9050919050565b7f652f6d61726b65742d6e6f742d616374697661746564000000000000000000005f82015250565b5f615e82601683615c0f565b9150615e8d82615e4e565b602082019050919050565b5f6020820190508181035f830152615eaf81615e76565b9050919050565b7f436f6c6c61746572616c00000000000000000000000000000000000000000000815250565b7f2028000000000000000000000000000000000000000000000000000000000000815250565b7f6500000000000000000000000000000000000000000000000000000000000000815250565b5f81519050919050565b5f81905092915050565b8281835e5f83830152505050565b5f615f5482615f28565b615f5e8185615f32565b9350615f6e818560208601615f3c565b80840191505092915050565b7f2900000000000000000000000000000000000000000000000000000000000000815250565b5f615faa82615eb6565b600a82019150615fb982615edc565b600282019150615fc882615f02565b600182019150615fd88284615f4a565b9150615fe382615f7a565b60018201915081905092915050565b7f4465627400000000000000000000000000000000000000000000000000000000815250565b7f6400000000000000000000000000000000000000000000000000000000000000815250565b5f61604882615ff2565b60048201915061605782615edc565b60028201915061606682616018565b6001820191506160768284615f4a565b915061608182615f7a565b60018201915081905092915050565b5f61609a82615f28565b6160a48185615c0f565b93506160b4818560208601615f3c565b6160bd8161578e565b840191505092915050565b5f819050919050565b5f6160eb6160e66160e184615962565b6160c8565b61547f565b9050919050565b6160fb816160d1565b82525050565b5f819050919050565b5f61612461611f61611a84616101565b6160c8565b61547f565b9050919050565b6161348161610a565b82525050565b5f6060820190508181035f8301526161528186616090565b905061616160208301856160f2565b61616e604083018461612b565b949350505050565b5f61619061618b61618684615675565b6160c8565b61547f565b9050919050565b6161a081616176565b82525050565b5f819050919050565b5f6161c96161c46161bf846161a6565b6160c8565b61547f565b9050919050565b6161d9816161af565b82525050565b5f6060820190508181035f8301526161f78186616090565b90506162066020830185616197565b61621360408301846161d0565b949350505050565b7f652f696e76616c69642d64746f6b656e000000000000000000000000000000005f82015250565b5f61624f601083615c0f565b915061625a8261621b565b602082019050919050565b5f6020820190508181035f83015261627c81616243565b9050919050565b7f652f6f75747374616e64696e672d626f72726f770000000000000000000000005f82015250565b5f6162b7601483615c0f565b91506162c282616283565b602082019050919050565b5f6020820190508181035f8301526162e4816162ab565b9050919050565b5f5ffd5b5f815190506162fd816156ba565b92915050565b61630c816154bf565b8114616316575f5ffd5b50565b5f8151905061632781616303565b92915050565b5f60808284031215616342576163416162eb565b5b61634c60806157fc565b90505f61635b848285016162ef565b5f83015250602061636e848285016162ef565b6020830152506040616382848285016162ef565b604083015250606061639684828501616319565b60608301525092915050565b5f608082840312156163b7576163b661530c565b5b5f6163c48482850161632d565b91505092915050565b6163d681615722565b81146163e0575f5ffd5b50565b5f815190506163f1816163cd565b92915050565b5f6020828403121561640c5761640b61530c565b5b5f616419848285016163e3565b91505092915050565b7f652f746f6f2d6d616e792d646563696d616c73000000000000000000000000005f82015250565b5f616456601383615c0f565b915061646182616422565b602082019050919050565b5f6020820190508181035f8301526164838161644a565b9050919050565b616493816155bb565b811461649d575f5ffd5b50565b5f815190506164ae8161648a565b92915050565b6164bd816154d9565b81146164c7575f5ffd5b50565b5f815190506164d8816164b4565b92915050565b5f815190506164ec81615344565b92915050565b6164fb816154f7565b8114616505575f5ffd5b50565b5f81519050616516816164f2565b92915050565b5f60a08284031215616531576165306162eb565b5b61653b60a06157fc565b90505f61654a848285016164de565b5f83015250602061655d84828501616319565b6020830152506040616571848285016164ca565b6040830152506060616585848285016164ca565b606083015250608061659984828501616508565b60808301525092915050565b5f60e082840312156165ba576165b96162eb565b5b6165c460606157fc565b90505f6165d3848285016164a0565b5f8301525060206165e6848285016164ca565b60208301525060406165fa8482850161651c565b60408301525092915050565b5f60e0828403121561661b5761661a61530c565b5b5f616628848285016165a5565b91505092915050565b5f6020820190508181035f8301526166498184616090565b905092915050565b5f6040820190508181035f8301526166698185616090565b90506166786020830184615399565b9392505050565b7f652f7375622d6163636f756e742d69642d746f6f2d62696700000000000000005f82015250565b5f6166b3601883615c0f565b91506166be8261667f565b602082019050919050565b5f6020820190508181035f8301526166e0816166a7565b9050919050565b7f4e487b71000000000000000000000000000000000000000000000000000000005f52603260045260245ffd5b7f652f746f6f2d6d616e792d656e74657265642d6d61726b6574730000000000005f82015250565b5f616748601a83615c0f565b915061675382616714565b602082019050919050565b5f6020820190508181035f8301526167758161673c565b9050919050565b7f4e487b71000000000000000000000000000000000000000000000000000000005f52601160045260245ffd5b5f6167b3826154d9565b91506167be836154d9565b9250828201905063ffffffff8111156167da576167d961677c565b5b92915050565b7f652f726f2d7265656e7472616e637900000000000000000000000000000000005f82015250565b5f616814600f83615c0f565b915061681f826167e0565b602082019050919050565b5f6020820190508181035f83015261684181616808565b9050919050565b5f819050919050565b61685a81616848565b82525050565b5f6020820190506168735f830184616851565b92915050565b5f616883826154d9565b915061688e836154d9565b9250828203905063ffffffff8111156168aa576168a961677c565b5b92915050565b5f81519050919050565b5f81905092915050565b5f6168ce826168b0565b6168d881856168ba565b93506168e8818560208601615f3c565b80840191505092915050565b5f6168ff82846168c4565b915081905092915050565b7f652f6372656174652d70726f78792f696e76616c69642d6d6f64756c650000005f82015250565b5f61693e601d83615c0f565b91506169498261690a565b602082019050919050565b5f6020820190508181035f83015261696b81616932565b9050919050565b7f652f6372656174652d70726f78792f696e7465726e616c2d6d6f64756c6500005f82015250565b5f6169a6601e83615c0f565b91506169b182616972565b602082019050919050565b5f6020820190508181035f8301526169d38161699a565b9050919050565b7f652f736d616c6c2d616d6f756e742d746f6f2d6c617267652d746f2d656e636f5f8201527f6465000000000000000000000000000000000000000000000000000000000000602082015250565b5f616a34602283615c0f565b9150616a3f826169da565b604082019050919050565b5f6020820190508181035f830152616a6181616a28565b9050919050565b7f652f616d6f756e742d746f6f2d6c617267652d746f2d656e636f6465000000005f82015250565b5f616a9c601c83615c0f565b9150616aa782616a68565b602082019050919050565b5f6020820190508181035f830152616ac981616a90565b9050919050565b7f4e487b71000000000000000000000000000000000000000000000000000000005f52601260045260245ffd5b5f616b078261547f565b9150616b128361547f565b9250828203905081811115616b2a57616b2961677c565b5b92915050565b5f616b3a82616848565b9150616b4583616848565b92508282019050828112155f8312168382125f841215161715616b6b57616b6a61677c565b5b92915050565b5f616b7b8261547f565b9150616b868361547f565b9250828202616b948161547f565b91508282048414831517616bab57616baa61677c565b5b5092915050565b5f616bbc8261547f565b9150616bc78361547f565b925082616bd757616bd6616ad0565b5b828204905092915050565b5f616bec8261547f565b9150616bf78361547f565b9250828201905080821115616c0f57616c0e61677c565b5b92915050565b7f652f656d7074792d6572726f72000000000000000000000000000000000000005f82015250565b5f616c49600d83615c0f565b9150616c5482616c15565b602082019050919050565b5f6020820190508181035f830152616c7681616c3d565b9050919050565b5f60208284031215616c9257616c9161530c565b5b5f616c9f848285016162ef565b91505092915050565b7f652f646562742d616d6f756e742d746f6f2d6c617267652d746f2d656e636f645f8201527f6500000000000000000000000000000000000000000000000000000000000000602082015250565b5f616d02602183615c0f565b9150616d0d82616ca8565b604082019050919050565b5f6020820190508181035f830152616d2f81616cf6565b905091905056fe60c060405234801561000f575f5ffd5b50604051611da2380380611da2833981810160405281019061003191906100fe565b8173ffffffffffffffffffffffffffffffffffffffff1660808173ffffffffffffffffffffffffffffffffffffffff16815250508073ffffffffffffffffffffffffffffffffffffffff1660a08173ffffffffffffffffffffffffffffffffffffffff1681525050505061013c565b5f5ffd5b5f73ffffffffffffffffffffffffffffffffffffffff82169050919050565b5f6100cd826100a4565b9050919050565b6100dd816100c3565b81146100e7575f5ffd5b50565b5f815190506100f8816100d4565b92915050565b5f5f60408385031215610114576101136100a0565b5b5f610121858286016100ea565b9250506020610132858286016100ea565b9150509250929050565b60805160a051611c1461018e5f395f81816102e601528181610a1901528181610aac01528181610b1901528181610be201528181610e370152610f5801525f818161049001526105e30152611c145ff3fe608060405234801561000f575f5ffd5b50600436106100e8575f3560e01c806370a082311161008a578063b77dfe0311610064578063b77dfe031461025e578063dd62ed3e1461027a578063de0e9a3e146102aa578063ea598cb0146102c6576100e8565b806370a08231146101e057806395d89b4114610210578063a9059cbb1461022e576100e8565b80631ed575db116100c65780631ed575db1461015857806323b872dd14610174578063313ce567146101a45780636f307dc3146101c2576100e8565b806306fdde03146100ec578063095ea7b31461010a57806318160ddd1461013a575b5f5ffd5b6100f46102e2565b6040516101019190611300565b60405180910390f35b610124600480360381019061011f91906113be565b610398565b6040516101319190611416565b60405180910390f35b610142610485565b60405161014f919061143e565b60405180910390f35b610172600480360381019061016d91906113be565b61048e565b005b61018e60048036038101906101899190611457565b61052a565b60405161019b9190611416565b60405180910390f35b6101ac610a16565b6040516101b991906114c2565b60405180910390f35b6101ca610aa9565b6040516101d791906114ea565b60405180910390f35b6101fa60048036038101906101f59190611503565b610ad0565b604051610207919061143e565b60405180910390f35b610218610b15565b6040516102259190611300565b60405180910390f35b610248600480360381019061024391906113be565b610bcb565b6040516102559190611416565b60405180910390f35b61027860048036038101906102739190611503565b610bdf565b005b610294600480360381019061028f919061152e565b610da3565b6040516102a1919061143e565b60405180910390f35b6102c460048036038101906102bf919061156c565b610e25565b005b6102e060048036038101906102db919061156c565b610e32565b005b60607f000000000000000000000000000000000000000000000000000000000000000073ffffffffffffffffffffffffffffffffffffffff166306fdde036040518163ffffffff1660e01b81526004015f60405180830381865afa15801561034c573d5f5f3e3d5ffd5b505050506040513d5f823e3d601f19601f8201168201806040525081019061037491906116b5565b6040516020016103849190611780565b604051602081830303815290604052905090565b5f8160015f3373ffffffffffffffffffffffffffffffffffffffff1673ffffffffffffffffffffffffffffffffffffffff1681526020019081526020015f205f8573ffffffffffffffffffffffffffffffffffffffff1673ffffffffffffffffffffffffffffffffffffffff1681526020019081526020015f20819055508273ffffffffffffffffffffffffffffffffffffffff163373ffffffffffffffffffffffffffffffffffffffff167f8c5be1e5ebec7d5bd14f71427d1e84f3dd0314c0f7b2291e5b200ac8c7c3b92584604051610473919061143e565b60405180910390a36001905092915050565b5f600254905090565b7f000000000000000000000000000000000000000000000000000000000000000073ffffffffffffffffffffffffffffffffffffffff163373ffffffffffffffffffffffffffffffffffffffff161461051c576040517f08c379a0000000000000000000000000000000000000000000000000000000008152600401610513906117eb565b60405180910390fd5b6105268282610e6a565b5050565b5f815f5f8673ffffffffffffffffffffffffffffffffffffffff1673ffffffffffffffffffffffffffffffffffffffff1681526020019081526020015f205410156105aa576040517f08c379a00000000000000000000000000000000000000000000000000000000081526004016105a190611853565b60405180910390fd5b3373ffffffffffffffffffffffffffffffffffffffff168473ffffffffffffffffffffffffffffffffffffffff161415801561063257507f000000000000000000000000000000000000000000000000000000000000000073ffffffffffffffffffffffffffffffffffffffff163373ffffffffffffffffffffffffffffffffffffffff1614155b80156106d657507fffffffffffffffffffffffffffffffffffffffffffffffffffffffffffffffff60015f8673ffffffffffffffffffffffffffffffffffffffff1673ffffffffffffffffffffffffffffffffffffffff1681526020019081526020015f205f3373ffffffffffffffffffffffffffffffffffffffff1673ffffffffffffffffffffffffffffffffffffffff1681526020019081526020015f205414155b15610902578160015f8673ffffffffffffffffffffffffffffffffffffffff1673ffffffffffffffffffffffffffffffffffffffff1681526020019081526020015f205f3373ffffffffffffffffffffffffffffffffffffffff1673ffffffffffffffffffffffffffffffffffffffff1681526020019081526020015f20541015610796576040517f08c379a000000000000000000000000000000000000000000000000000000000815260040161078d906118bb565b60405180910390fd5b8160015f8673ffffffffffffffffffffffffffffffffffffffff1673ffffffffffffffffffffffffffffffffffffffff1681526020019081526020015f205f3373ffffffffffffffffffffffffffffffffffffffff1673ffffffffffffffffffffffffffffffffffffffff1681526020019081526020015f205f82825461081d9190611906565b925050819055503373ffffffffffffffffffffffffffffffffffffffff168473ffffffffffffffffffffffffffffffffffffffff167f8c5be1e5ebec7d5bd14f71427d1e84f3dd0314c0f7b2291e5b200ac8c7c3b92560015f8873ffffffffffffffffffffffffffffffffffffffff1673ffffffffffffffffffffffffffffffffffffffff1681526020019081526020015f205f3373ffffffffffffffffffffffffffffffffffffffff1673ffffffffffffffffffffffffffffffffffffffff1681526020019081526020015f20546040516108f9919061143e565b60405180910390a35b815f5f8673ffffffffffffffffffffffffffffffffffffffff1673ffffffffffffffffffffffffffffffffffffffff1681526020019081526020015f205f82825461094d9190611906565b92505081905550815f5f8573ffffffffffffffffffffffffffffffffffffffff1673ffffffffffffffffffffffffffffffffffffffff1681526020019081526020015f205f82825461099f9190611939565b925050819055508273ffffffffffffffffffffffffffffffffffffffff168473ffffffffffffffffffffffffffffffffffffffff167fddf252ad1be2c89b69c2b068fc378daa952ba7f163c4a11628f55a4df523b3ef84604051610a03919061143e565b60405180910390a3600190509392505050565b5f7f000000000000000000000000000000000000000000000000000000000000000073ffffffffffffffffffffffffffffffffffffffff1663313ce5676040518163ffffffff1660e01b8152600401602060405180830381865afa158015610a80573d5f5f3e3d5ffd5b505050506040513d601f19601f82011682018060405250810190610aa49190611996565b905090565b5f7f0000000000000000000000000000000000000000000000000000000000000000905090565b5f5f5f8373ffffffffffffffffffffffffffffffffffffffff1673ffffffffffffffffffffffffffffffffffffffff1681526020019081526020015f20549050919050565b60607f000000000000000000000000000000000000000000000000000000000000000073ffffffffffffffffffffffffffffffffffffffff166395d89b416040518163ffffffff1660e01b81526004015f60405180830381865afa158015610b7f573d5f5f3e3d5ffd5b505050506040513d5f823e3d601f19601f82011682018060405250810190610ba791906116b5565b604051602001610bb79190611a0b565b604051602081830303815290604052905090565b5f610bd733848461052a565b905092915050565b5f7f000000000000000000000000000000000000000000000000000000000000000073ffffffffffffffffffffffffffffffffffffffff166370a08231306040518263ffffffff1660e01b8152600401610c3991906114ea565b602060405180830381865afa158015610c54573d5f5f3e3d5ffd5b505050506040513d601f19601f82011682018060405250810190610c789190611a40565b90506002548111610cbe576040517f08c379a0000000000000000000000000000000000000000000000000000000008152600401610cb590611ab5565b60405180910390fd5b5f60025482610ccd9190611906565b90508060025f828254610ce09190611939565b92505081905550805f5f8573ffffffffffffffffffffffffffffffffffffffff1673ffffffffffffffffffffffffffffffffffffffff1681526020019081526020015f205f828254610d329190611939565b925050819055508273ffffffffffffffffffffffffffffffffffffffff165f73ffffffffffffffffffffffffffffffffffffffff167fddf252ad1be2c89b69c2b068fc378daa952ba7f163c4a11628f55a4df523b3ef83604051610d96919061143e565b60405180910390a3505050565b5f60015f8473ffffffffffffffffffffffffffffffffffffffff1673ffffffffffffffffffffffffffffffffffffffff1681526020019081526020015f205f8373ffffffffffffffffffffffffffffffffffffffff1673ffffffffffffffffffffffffffffffffffffffff1681526020019081526020015f2054905092915050565b610e2f3382610e6a565b50565b610e5e7f0000000000000000000000000000000000000000000000000000000000000000333084610fe7565b610e6733610bdf565b50565b805f5f8473ffffffffffffffffffffffffffffffffffffffff1673ffffffffffffffffffffffffffffffffffffffff1681526020019081526020015f20541015610ee9576040517f08c379a0000000000000000000000000000000000000000000000000000000008152600401610ee090611853565b60405180910390fd5b8060025f828254610efa9190611906565b92505081905550805f5f8473ffffffffffffffffffffffffffffffffffffffff1673ffffffffffffffffffffffffffffffffffffffff1681526020019081526020015f205f828254610f4c9190611906565b92505081905550610f7e7f0000000000000000000000000000000000000000000000000000000000000000838361113d565b5f73ffffffffffffffffffffffffffffffffffffffff168273ffffffffffffffffffffffffffffffffffffffff167fddf252ad1be2c89b69c2b068fc378daa952ba7f163c4a11628f55a4df523b3ef83604051610fdb919061143e565b60405180910390a35050565b5f5f8573ffffffffffffffffffffffffffffffffffffffff166323b872dd60e01b86868660405160240161101d93929190611ad3565b604051602081830303815290604052907bffffffffffffffffffffffffffffffffffffffffffffffffffffffff19166020820180517bffffffffffffffffffffffffffffffffffffffffffffffffffffffff83818316178352505050506040516110879190611b4c565b5f604051808303815f865af19150503d805f81146110c0576040519150601f19603f3d011682016040523d82523d5f602084013e6110c5565b606091505b50915091508180156110f257505f815114806110f15750808060200190518101906110f09190611b8c565b5b5b8190611134576040517f08c379a000000000000000000000000000000000000000000000000000000000815260040161112b9190611300565b60405180910390fd5b50505050505050565b5f5f8473ffffffffffffffffffffffffffffffffffffffff1663a9059cbb60e01b8585604051602401611171929190611bb7565b604051602081830303815290604052907bffffffffffffffffffffffffffffffffffffffffffffffffffffffff19166020820180517bffffffffffffffffffffffffffffffffffffffffffffffffffffffff83818316178352505050506040516111db9190611b4c565b5f604051808303815f865af19150503d805f8114611214576040519150601f19603f3d011682016040523d82523d5f602084013e611219565b606091505b509150915081801561124657505f815114806112455750808060200190518101906112449190611b8c565b5b5b8190611288576040517f08c379a000000000000000000000000000000000000000000000000000000000815260040161127f9190611300565b60405180910390fd5b505050505050565b5f81519050919050565b5f82825260208201905092915050565b8281835e5f83830152505050565b5f601f19601f8301169050919050565b5f6112d282611290565b6112dc818561129a565b93506112ec8185602086016112aa565b6112f5816112b8565b840191505092915050565b5f6020820190508181035f83015261131881846112c8565b905092915050565b5f604051905090565b5f5ffd5b5f5ffd5b5f73ffffffffffffffffffffffffffffffffffffffff82169050919050565b5f61135a82611331565b9050919050565b61136a81611350565b8114611374575f5ffd5b50565b5f8135905061138581611361565b92915050565b5f819050919050565b61139d8161138b565b81146113a7575f5ffd5b50565b5f813590506113b881611394565b92915050565b5f5f604083850312156113d4576113d3611329565b5b5f6113e185828601611377565b92505060206113f2858286016113aa565b9150509250929050565b5f8115159050919050565b611410816113fc565b82525050565b5f6020820190506114295f830184611407565b92915050565b6114388161138b565b82525050565b5f6020820190506114515f83018461142f565b92915050565b5f5f5f6060848603121561146e5761146d611329565b5b5f61147b86828701611377565b935050602061148c86828701611377565b925050604061149d868287016113aa565b9150509250925092565b5f60ff82169050919050565b6114bc816114a7565b82525050565b5f6020820190506114d55f8301846114b3565b92915050565b6114e481611350565b82525050565b5f6020820190506114fd5f8301846114db565b92915050565b5f6020828403121561151857611517611329565b5b5f61152584828501611377565b91505092915050565b5f5f6040838503121561154457611543611329565b5b5f61155185828601611377565b925050602061156285828601611377565b9150509250929050565b5f6020828403121561158157611580611329565b5b5f61158e848285016113aa565b91505092915050565b5f5ffd5b5f5ffd5b7f4e487b71000000000000000000000000000000000000000000000000000000005f52604160045260245ffd5b6115d5826112b8565b810181811067ffffffffffffffff821117156115f4576115f361159f565b5b80604052505050565b5f611606611320565b905061161282826115cc565b919050565b5f67ffffffffffffffff8211156116315761163061159f565b5b61163a826112b8565b9050602081019050919050565b5f61165961165484611617565b6115fd565b9050828152602081018484840111156116755761167461159b565b5b6116808482856112aa565b509392505050565b5f82601f83011261169c5761169b611597565b5b81516116ac848260208601611647565b91505092915050565b5f602082840312156116ca576116c9611329565b5b5f82015167ffffffffffffffff8111156116e7576116e661132d565b5b6116f384828501611688565b91505092915050565b5f81905092915050565b7f45756c65722050726f74656374656420000000000000000000000000000000005f82015250565b5f61173a6010836116fc565b915061174582611706565b601082019050919050565b5f61175a82611290565b61176481856116fc565b93506117748185602086016112aa565b80840191505092915050565b5f61178a8261172e565b91506117968284611750565b915081905092915050565b7f7065726d697373696f6e2064656e6965640000000000000000000000000000005f82015250565b5f6117d560118361129a565b91506117e0826117a1565b602082019050919050565b5f6020820190508181035f830152611802816117c9565b9050919050565b7f696e73756666696369656e742062616c616e63650000000000000000000000005f82015250565b5f61183d60148361129a565b915061184882611809565b602082019050919050565b5f6020820190508181035f83015261186a81611831565b9050919050565b7f696e73756666696369656e7420616c6c6f77616e6365000000000000000000005f82015250565b5f6118a560168361129a565b91506118b082611871565b602082019050919050565b5f6020820190508181035f8301526118d281611899565b9050919050565b7f4e487b71000000000000000000000000000000000000000000000000000000005f52601160045260245ffd5b5f6119108261138b565b915061191b8361138b565b9250828203905081811115611933576119326118d9565b5b92915050565b5f6119438261138b565b915061194e8361138b565b9250828201905080821115611966576119656118d9565b5b92915050565b611975816114a7565b811461197f575f5ffd5b50565b5f815190506119908161196c565b92915050565b5f602082840312156119ab576119aa611329565b5b5f6119b884828501611982565b91505092915050565b7f70000000000000000000000000000000000000000000000000000000000000005f82015250565b5f6119f56001836116fc565b9150611a00826119c1565b600182019050919050565b5f611a15826119e9565b9150611a218284611750565b915081905092915050565b5f81519050611a3a81611394565b92915050565b5f60208284031215611a5557611a54611329565b5b5f611a6284828501611a2c565b91505092915050565b7f6e6f20737572706c75732062616c616e636520746f20636c61696d00000000005f82015250565b5f611a9f601b8361129a565b9150611aaa82611a6b565b602082019050919050565b5f6020820190508181035f830152611acc81611a93565b9050919050565b5f606082019050611ae65f8301866114db565b611af360208301856114db565b611b00604083018461142f565b949350505050565b5f81519050919050565b5f81905092915050565b5f611b2682611b08565b611b308185611b12565b9350611b408185602086016112aa565b80840191505092915050565b5f611b578284611b1c565b915081905092915050565b611b6b816113fc565b8114611b75575f5ffd5b50565b5f81519050611b8681611b62565b92915050565b5f60208284031215611ba157611ba0611329565b5b5f611bae84828501611b78565b91505092915050565b5f604082019050611bca5f8301856114db565b611bd7602083018461142f565b939250505056fea26469706673582212201f75bc4c2c91b9fec9e92a7af7373a0da699054a66aee22660d8fe08c222116764736f6c634300081e003360a0604052348015600e575f5ffd5b503373ffffffffffffffffffffffffffffffffffffffff1660808173ffffffffffffffffffffffffffffffffffffffff168152505060805161017c61005a5f395f6013015261017c5ff3fe608060405234801561000f575f5ffd5b505f7f000000000000000000000000000000000000000000000000000000000000000090508073ffffffffffffffffffffffffffffffffffffffff163373ffffffffffffffffffffffffffffffffffffffff16036100f6575f5f52365f601f375f515f811461009c57600181146100a857600281146100b757600381146100c957600481146100de575f5ffd5b600136036020a06100f2565b602051602136036040a16100f2565b604051602051604136036060a26100f2565b606051604051602051606136036080a36100f2565b6080516060516040516020516081360360a0a45b5f5ff35b7fe9c4a3ac000000000000000000000000000000000000000000000000000000005f52365f6004373360601b36600401525f5f366018015f5f855af13d5f5f3e805f8114610142573d5ff35b3d5ffdfea2646970667358221220750d944f8381ac6f00e3b8d06f1cd902aedff03bc89c31dd4494db4b04253abf64736f6c634300081e0033a2646970667358221220d36c4ad7cdeb6c92f2acfd1dcb7bd6d3d8c426e06b9a6faef20af99775c9dc5764736f6c634300081e0033","linkReferences":{}},"methodIdentifiers":{"activateMarket(address)":"4e807177","activatePToken(address)":"0d771df7","dTokenToUnderlying(address)":"c3c96b2b","eTokenToDToken(address)":"6b5e3606","eTokenToUnderlying(address)":"b93982a0","enterMarket(uint256,address)":"73f0b437","exitMarket(uint256,address)":"c8a5fba3","getChainlinkPriceFeedConfig(address)":"b3312cf4","getDTokenAddress(string,address)":"c94dbc18","getEnteredMarkets(address)":"8ccb720b","getInterestAccumulator(string,address)":"276b227f","getInterestRate(string,address)":"c7ec0997","getInterestRateModel(string,address)":"52d94d6b","getLastInterestAccumulatorUpdate(string,address)":"59ce0cda","getLiquidityStatus(address)":"e05f13ba","getPricingConfig(address)":"546422d6","getPricingParameters(string,address)":"c064e411","getPricingType(string,address)":"e7786102","getReserveBalance(string,address)":"98cfb230","getReserveFee(string,address)":"f2e77117","getTotalBalances(string,address)":"ab9690df","getTotalBorrows(string,address)":"7163c7e4","getUnderlying(string,address)":"1c8df625","getUnderlyingDecimals(string,address)":"7808bca8","getUserAsset(string,address,string,address)":"843d8ab2","interestAccumulator(address)":"bcc343ae","interestRate(address)":"7c2c69c0","interestRateModel(address)":"b409dd9b","moduleGitCommit()":"69a92ea3","moduleId()":"a1308f27","reserveFee(address)":"b74b1ed5","underlyingToAssetConfig(address)":"4e9cfac2","underlyingToAssetConfigUnresolved(address)":"8f34bdbc","underlyingToDToken(address)":"1b300582","underlyingToEToken(address)":"89488749","underlyingToPToken(address)":"fd7948d4"},"id":36}